{"abi":[{"type":"constructor","inputs":[],"stateMutability":"nonpayable"},{"type":"function","name":"FEE_DENOMINATOR","inputs":[],"outputs":[{"name":"","type":"uint256","internalType":"uint256"}],"stateMutability":"view"},{"type":"function","name":"FEE_NUMERATOR","inputs":[],"outputs":[{"name":"","type":"uint256","internalType":"uint256"}],"stateMutability":"view"},{"type":"function","name":"MINIMUM_LIQUIDITY","inputs":[],"outputs":[{"name":"","type":"uint256","internalType":"uint256"}],"stateMutability":"view"},{"type":"function","name":"allowance","inputs":[{"name":"owner","type":"address","internalType":"address"},{"name":"spender","type":"address","internalType":"address"}],"outputs":[{"name":"","type":"uint256","internalType":"uint256"}],"stateMutability":"view"},{"type":"function","name":"approve","inputs":[{"name":"spender","type":"address","internalType":"address"},{"name":"value","type":"uint256","internalType":"uint256"}],"outputs":[{"name":"","type":"bool","internalType":"bool"}],"stateMutability":"nonpayable"},{"type":"function","name":"balanceOf","inputs":[{"name":"account","type":"address","internalType":"address"}],"outputs":[{"name":"","type":"uint256","internalType":"uint256"}],"stateMutability":"view"},{"type":"function","name":"burn","inputs":[{"name":"to","type":"address","internalType":"address"}],"outputs":[{"name":"amount0","type":"uint256","internalType":"uint256"},{"name":"amount1","type":"uint256","internalType":"uint256"}],"stateMutability":"nonpayable"},{"type":"function","name":"decimals","inputs":[],"outputs":[{"name":"","type":"uint8","internalType":"uint8"}],"stateMutability":"view"},{"type":"function","name":"factory","inputs":[],"outputs":[{"name":"","type":"address","internalType":"address"}],"stateMutability":"view"},{"type":"function","name":"getReserves","inputs":[],"outputs":[{"name":"reserve0","type":"uint112","internalType":"uint112"},{"name":"reserve1","type":"uint112","internalType":"uint112"},{"name":"blockTimestampLast","type":"uint32","internalType":"uint32"}],"stateMutability":"view"},{"type":"function","name":"initialize","inputs":[{"name":"_token0","type":"address","internalType":"address"},{"name":"_token1","type":"address","internalType":"address"}],"outputs":[],"stateMutability":"nonpayable"},{"type":"function","name":"mint","inputs":[{"name":"to","type":"address","internalType":"address"}],"outputs":[{"name":"liquidity","type":"uint256","internalType":"uint256"}],"stateMutability":"nonpayable"},{"type":"function","name":"name","inputs":[],"outputs":[{"name":"","type":"string","internalType":"string"}],"stateMutability":"view"},{"type":"function","name":"swap","inputs":[{"name":"amount0Out","type":"uint256","internalType":"uint256"},{"name":"amount1Out","type":"uint256","internalType":"uint256"},{"name":"to","type":"address","internalType":"address"},{"name":"data","type":"bytes","internalType":"bytes"}],"outputs":[],"stateMutability":"nonpayable"},{"type":"function","name":"symbol","inputs":[],"outputs":[{"name":"","type":"string","internalType":"string"}],"stateMutability":"view"},{"type":"function","name":"token0","inputs":[],"outputs":[{"name":"","type":"address","internalType":"address"}],"stateMutability":"view"},{"type":"function","name":"token1","inputs":[],"outputs":[{"name":"","type":"address","internalType":"address"}],"stateMutability":"view"},{"type":"function","name":"totalSupply","inputs":[],"outputs":[{"name":"","type":"uint256","internalType":"uint256"}],"stateMutability":"view"},{"type":"function","name":"transfer","inputs":[{"name":"to","type":"address","internalType":"address"},{"name":"value","type":"uint256","internalType":"uint256"}],"outputs":[{"name":"","type":"bool","internalType":"bool"}],"stateMutability":"nonpayable"},{"type":"function","name":"transferFrom","inputs":[{"name":"from","type":"address","internalType":"address"},{"name":"to","type":"address","internalType":"address"},{"name":"value","type":"uint256","internalType":"uint256"}],"outputs":[{"name":"","type":"bool","internalType":"bool"}],"stateMutability":"nonpayable"},{"type":"event","name":"Approval","inputs":[{"name":"owner","type":"address","indexed":true,"internalType":"address"},{"name":"spender","type":"address","indexed":true,"internalType":"address"},{"name":"value","type":"uint256","indexed":false,"internalType":"uint256"}],"anonymous":false},{"type":"event","name":"Burn","inputs":[{"name":"sender","type":"address","indexed":true,"internalType":"address"},{"name":"amount0","type":"uint256","indexed":false,"internalType":"uint256"},{"name":"amount1","type":"uint256","indexed":false,"internalType":"uint256"},{"name":"to","type":"address","indexed":true,"internalType":"address"}],"anonymous":false},{"type":"event","name":"Mint","inputs":[{"name":"sender","type":"address","indexed":true,"internalType":"address"},{"name":"amount0","type":"uint256","indexed":false,"internalType":"uint256"},{"name":"amount1","type":"uint256","indexed":false,"internalType":"uint256"}],"anonymous":false},{"type":"event","name":"Swap","inputs":[{"name":"sender","type":"address","indexed":true,"internalType":"address"},{"name":"amount0In","type":"uint256","indexed":false,"internalType":"uint256"},{"name":"amount1In","type":"uint256","indexed":false,"internalType":"uint256"},{"name":"amount0Out","type":"uint256","indexed":false,"internalType":"uint256"},{"name":"amount1Out","type":"uint256","indexed":false,"internalType":"uint256"},{"name":"to","type":"address","indexed":true,"internalType":"address"}],"anonymous":false},{"type":"event","name":"Sync","inputs":[{"name":"reserve0","type":"uint112","indexed":false,"internalType":"uint112"},{"name":"reserve1","type":"uint112","indexed":false,"internalType":"uint112"}],"anonymous":false},{"type":"event","name":"Transfer","inputs":[{"name":"from","type":"address","indexed":true,"internalType":"address"},{"name":"to","type":"address","indexed":true,"internalType":"address"},{"name":"value","type":"uint256","indexed":false,"internalType":"uint256"}],"anonymous":false},{"type":"error","name":"AlreadyInitialized","inputs":[]},{"type":"error","name":"ERC20InsufficientAllowance","inputs":[{"name":"spender","type":"address","internalType":"address"},{"name":"allowance","type":"uint256","internalType":"uint256"},{"name":"needed","type":"uint256","internalType":"uint256"}]},{"type":"error","name":"ERC20InsufficientBalance","inputs":[{"name":"sender","type":"address","internalType":"address"},{"name":"balance","type":"uint256","internalType":"uint256"},{"name":"needed","type":"uint256","internalType":"uint256"}]},{"type":"error","name":"ERC20InvalidApprover","inputs":[{"name":"approver","type":"address","internalType":"address"}]},{"type":"error","name":"ERC20InvalidReceiver","inputs":[{"name":"receiver","type":"address","internalType":"address"}]},{"type":"error","name":"ERC20InvalidSender","inputs":[{"name":"sender","type":"address","internalType":"address"}]},{"type":"error","name":"ERC20InvalidSpender","inputs":[{"name":"spender","type":"address","internalType":"address"}]},{"type":"error","name":"InsufficientInputAmount","inputs":[]},{"type":"error","name":"InsufficientLiquidityBurned","inputs":[]},{"type":"error","name":"InsufficientLiquidityMinted","inputs":[]},{"type":"error","name":"InsufficientOutputAmount","inputs":[]},{"type":"error","name":"InvalidTo","inputs":[]},{"type":"error","name":"KInvariantViolated","inputs":[]},{"type":"error","name":"OnlyFactory","inputs":[]},{"type":"error","name":"ReentrancyGuardReentrantCall","inputs":[]}],"bytecode":{"object":"0x60803462000342576001600160401b0390604090808201838111828210176200024d578252600981526020926804172616c7973204c560bc1b84830152825190838201828110828211176200024d5784526007825266041524c592d4c560cc1b8583015282518181116200024d576003908154906001958683811c9316801562000337575b8984101462000323578190601f93848111620002d0575b5089908483116001146200026d575f9262000261575b50505f1982851b1c191690861b1782555b83519283116200024d576004938454978689811c9916801562000242575b818a10146200022f578883869798999a11620001d6575b50809285116001146200016c57505f9362000160575b505082851b925f19911b1c19161790555b7f9b779b17422d0df92223018b32b4d1fa46e071723d6817e2486d003becc55f0055600580546001600160a01b03191633179055516108ec9081620003478239f35b015191505f806200010d565b929190879550601f198516875f52845f20945f905b828210620001bc5750508511620001a2575b50505050811b0190556200011e565b01519060f8845f19921b161c191690555f80808062000193565b8484015187558a9890960195938401939081019062000181565b909192939450865f52815f208480880160051c82019284891062000225575b918a91899897969594930160051c01915b82811062000216575050620000f7565b5f81558897508a910162000206565b92508192620001f5565b602286634e487b7160e01b5f525260245ffd5b98607f1698620000e0565b634e487b7160e01b5f52604160045260245ffd5b015190505f80620000b1565b90889350601f19831691865f528b5f20925f5b8d828210620002b95750508411620002a1575b505050811b018255620000c2565b01515f1983871b60f8161c191690555f808062000293565b8385015186558c9790950194938401930162000280565b909150845f52895f208480850160051c8201928c861062000319575b918a91869594930160051c01915b8281106200030a5750506200009b565b5f81558594508a9101620002fa565b92508192620002ec565b634e487b7160e01b5f52602260045260245ffd5b92607f169262000084565b5f80fdfe604060808152600480361015610013575f80fd5b5f3560e01c908163022c0d9f1461067457816306fdde03146105995781630902f1ac14610584578163095ea7b3146104dc5781630dfe1681146104b457816318160ddd1461049657816323b872dd146103a4578163313ce5671461038957816341cd47bf1461036d578163485cc955146103465781636a627842146102e957816370a082311461031057816389afcb44146102e957816395d89b41146101ca57508063a9059cbb1461019a578063ba9a7a5614610145578063c45a015514610172578063d21220a71461014a578063d73792a9146101455763dd62ed3e146100f9575f80fd5b346101415780600319360112610141576020906101146106d4565b61011c6106ea565b9060018060a01b038091165f5260018452825f2091165f528252805f20549051908152f35b5f80fd5b610747565b5034610141575f3660031901126101415760075490516001600160a01b039091168152602090f35b5034610141575f3660031901126101415760055490516001600160a01b039091168152602090f35b50346101415780600319360112610141576020906101c36101b96106d4565b60243590336107dc565b5160018152f35b8234610141575f366003190112610141578051905f835460018160011c90600183169283156102df575b60209384841081146102cc578388529081156102b0575060011461025c575b505050829003601f01601f191682019267ffffffffffffffff8411838510176102495750829182610245925282610700565b0390f35b604190634e487b7160e01b5f525260245ffd5b5f878152929350837f8a35acfbc15ff81a39ae7d344fd709f28e8600b4aa8c65c6b64bfe7fe36bd19b5b83851061029c5750505050830101848080610213565b805488860183015293019284908201610286565b60ff1916878501525050151560051b8401019050848080610213565b602289634e487b7160e01b5f525260245ffd5b91607f16916101f4565b34610141576020366003190112610141576103026106d4565b5061030b61079a565b610763565b8234610141576020366003190112610141576020906001600160a01b036103356106d4565b165f525f8252805f20549051908152f35b8234610141573660031901126101415761035e6106d4565b506103676106ea565b50610763565b8234610141575f36600319011261014157602090516103e58152f35b8234610141575f366003190112610141576020905160128152f35b905034610141576060366003190112610141576103bf6106d4565b6103c76106ea565b906044359260018060a01b038216805f526001602052855f20335f52602052855f2054915f198310610402575b6020876101c38888886107dc565b85831061046a57811561045457331561043e57505f908152600160209081528682203383528152908690209185900390915582906101c36103f4565b6024905f885191634a1406b160e11b8352820152fd5b6024905f88519163e602df0560e01b8352820152fd5b8651637dc7a0d960e11b8152339181019182526020820193909352604081018690528291506060010390fd5b8234610141575f366003190112610141576020906002549051908152f35b8234610141575f3660031901126101415760065490516001600160a01b039091168152602090f35b82346101415780600319360112610141576104f56106d4565b60243590331561056e576001600160a01b03169081156105585760209350335f5260018452825f20825f52845280835f205582519081527f8c5be1e5ebec7d5bd14f71427d1e84f3dd0314c0f7b2291e5b200ac8c7c3b925843392a35160018152f35b8251634a1406b160e11b81525f81860152602490fd5b825163e602df0560e01b81525f81860152602490fd5b34610141575f36600319011215610763575f80fd5b8234610141575f366003190112610141578051905f60035460018160011c906001831692831561066a575b60209384841081146102cc578388529081156102b0575060011461061457505050829003601f01601f191682019267ffffffffffffffff8411838510176102495750829182610245925282610700565b60035f908152929350837fc2575a0e9e593c00f959f8c92f12db2869c3395a3b0502d05e2516446f71f85b5b8385106106565750505050830101848080610213565b805488860183015293019284908201610640565b91607f16916105c4565b34610141576080366003190112610141576044356001600160a01b03811603610141576064359067ffffffffffffffff9081831161014157366023840112156101415782013590811161014157369101602401116101415761030b61079a565b600435906001600160a01b038216820361014157565b602435906001600160a01b038216820361014157565b602080825282518183018190529093925f5b82811061073357505060409293505f838284010152601f8019910116010190565b818101860151848201604001528501610712565b34610141575f3660031901126101415760206040516103e88152f35b60405162461bcd60e51b815260206004820152600f60248201526e1b9bdd081a5b5c1b195b595b9d1959608a1b6044820152606490fd5b7f9b779b17422d0df92223018b32b4d1fa46e071723d6817e2486d003becc55f0060028154146107ca5760029055565b604051633ee5aeb560e01b8152600490fd5b916001600160a01b0380841692831561089e571692831561088657825f525f60205260405f2054908282106108545750817fddf252ad1be2c89b69c2b068fc378daa952ba7f163c4a11628f55a4df523b3ef92602092855f525f84520360405f2055845f5260405f20818154019055604051908152a3565b60405163391434e360e21b81526001600160a01b03919091166004820152602481019190915260448101829052606490fd5b60405163ec442f0560e01b81525f6004820152602490fd5b604051634b637e8f60e11b81525f6004820152602490fdfea2646970667358221220c42ac393671886e337c5c8992d7288593c710310be150fe8a002093ed5ebdb5964736f6c63430008180033","linkReferences":{}},"methodIdentifiers":{"FEE_DENOMINATOR()":"d73792a9","FEE_NUMERATOR()":"41cd47bf","MINIMUM_LIQUIDITY()":"ba9a7a56","allowance(address,address)":"dd62ed3e","approve(address,uint256)":"095ea7b3","balanceOf(address)":"70a08231","burn(address)":"89afcb44","decimals()":"313ce567","factory()":"c45a0155","getReserves()":"0902f1ac","initialize(address,address)":"485cc955","mint(address)":"6a627842","name()":"06fdde03","swap(uint256,uint256,address,bytes)":"022c0d9f","symbol()":"95d89b41","token0()":"0dfe1681","token1()":"d21220a7","totalSupply()":"18160ddd","transfer(address,uint256)":"a9059cbb","transferFrom(address,address,uint256)":"23b872dd"},"id":1}