{"abi":[{"type":"constructor","inputs":[],"stateMutability":"nonpayable"},{"type":"function","name":"BPS","inputs":[],"outputs":[{"name":"","type":"uint256","internalType":"uint256"}],"stateMutability":"view"},{"type":"function","name":"LIQ_BONUS_BPS","inputs":[],"outputs":[{"name":"","type":"uint256","internalType":"uint256"}],"stateMutability":"view"},{"type":"function","name":"LIQ_THRESHOLD_BPS","inputs":[],"outputs":[{"name":"","type":"uint256","internalType":"uint256"}],"stateMutability":"view"},{"type":"function","name":"LTV_BPS","inputs":[],"outputs":[{"name":"","type":"uint256","internalType":"uint256"}],"stateMutability":"view"},{"type":"function","name":"UPGRADE_INTERFACE_VERSION","inputs":[],"outputs":[{"name":"","type":"string","internalType":"string"}],"stateMutability":"view"},{"type":"function","name":"WAD","inputs":[],"outputs":[{"name":"","type":"uint256","internalType":"uint256"}],"stateMutability":"view"},{"type":"function","name":"annualInterestRate","inputs":[],"outputs":[{"name":"","type":"uint256","internalType":"uint256"}],"stateMutability":"view"},{"type":"function","name":"borrow","inputs":[{"name":"amount","type":"uint256","internalType":"uint256"}],"outputs":[],"stateMutability":"nonpayable"},{"type":"function","name":"collateralAsset","inputs":[],"outputs":[{"name":"","type":"address","internalType":"address"}],"stateMutability":"view"},{"type":"function","name":"collateralToken","inputs":[],"outputs":[{"name":"","type":"address","internalType":"contract IERC20"}],"stateMutability":"view"},{"type":"function","name":"debtToken","inputs":[],"outputs":[{"name":"","type":"address","internalType":"contract IERC20"}],"stateMutability":"view"},{"type":"function","name":"deposit","inputs":[{"name":"amount","type":"uint256","internalType":"uint256"}],"outputs":[],"stateMutability":"nonpayable"},{"type":"function","name":"getPosition","inputs":[{"name":"user","type":"address","internalType":"address"}],"outputs":[{"name":"collateral","type":"uint256","internalType":"uint256"},{"name":"debt","type":"uint256","internalType":"uint256"},{"name":"hf","type":"uint256","internalType":"uint256"}],"stateMutability":"view"},{"type":"function","name":"healthFactor","inputs":[{"name":"user","type":"address","internalType":"address"}],"outputs":[{"name":"","type":"uint256","internalType":"uint256"}],"stateMutability":"view"},{"type":"function","name":"initialize","inputs":[{"name":"collateralToken_","type":"address","internalType":"contract IERC20"},{"name":"debtToken_","type":"address","internalType":"contract IERC20"},{"name":"oracle_","type":"address","internalType":"contract OracleAdapter"},{"name":"collateralAsset_","type":"address","internalType":"address"},{"name":"owner_","type":"address","internalType":"address"}],"outputs":[],"stateMutability":"nonpayable"},{"type":"function","name":"liquidate","inputs":[{"name":"user","type":"address","internalType":"address"},{"name":"debtAmount","type":"uint256","internalType":"uint256"}],"outputs":[],"stateMutability":"nonpayable"},{"type":"function","name":"oracle","inputs":[],"outputs":[{"name":"","type":"address","internalType":"contract OracleAdapter"}],"stateMutability":"view"},{"type":"function","name":"owner","inputs":[],"outputs":[{"name":"","type":"address","internalType":"address"}],"stateMutability":"view"},{"type":"function","name":"pause","inputs":[],"outputs":[],"stateMutability":"nonpayable"},{"type":"function","name":"paused","inputs":[],"outputs":[{"name":"","type":"bool","internalType":"bool"}],"stateMutability":"view"},{"type":"function","name":"positions","inputs":[{"name":"user","type":"address","internalType":"address"}],"outputs":[{"name":"collateral","type":"uint128","internalType":"uint128"},{"name":"debt","type":"uint128","internalType":"uint128"},{"name":"lastAccrued","type":"uint256","internalType":"uint256"}],"stateMutability":"view"},{"type":"function","name":"proxiableUUID","inputs":[],"outputs":[{"name":"","type":"bytes32","internalType":"bytes32"}],"stateMutability":"view"},{"type":"function","name":"renounceOwnership","inputs":[],"outputs":[],"stateMutability":"nonpayable"},{"type":"function","name":"repay","inputs":[{"name":"amount","type":"uint256","internalType":"uint256"}],"outputs":[],"stateMutability":"nonpayable"},{"type":"function","name":"setInterestRate","inputs":[{"name":"newRate","type":"uint256","internalType":"uint256"}],"outputs":[],"stateMutability":"nonpayable"},{"type":"function","name":"totalBorrowed","inputs":[],"outputs":[{"name":"","type":"uint256","internalType":"uint256"}],"stateMutability":"view"},{"type":"function","name":"totalDeposited","inputs":[],"outputs":[{"name":"","type":"uint256","internalType":"uint256"}],"stateMutability":"view"},{"type":"function","name":"transferOwnership","inputs":[{"name":"newOwner","type":"address","internalType":"address"}],"outputs":[],"stateMutability":"nonpayable"},{"type":"function","name":"unpause","inputs":[],"outputs":[],"stateMutability":"nonpayable"},{"type":"function","name":"upgradeToAndCall","inputs":[{"name":"newImplementation","type":"address","internalType":"address"},{"name":"data","type":"bytes","internalType":"bytes"}],"outputs":[],"stateMutability":"payable"},{"type":"function","name":"withdraw","inputs":[{"name":"amount","type":"uint256","internalType":"uint256"}],"outputs":[],"stateMutability":"nonpayable"},{"type":"event","name":"Borrowed","inputs":[{"name":"user","type":"address","indexed":true,"internalType":"address"},{"name":"amount","type":"uint256","indexed":false,"internalType":"uint256"}],"anonymous":false},{"type":"event","name":"Deposited","inputs":[{"name":"user","type":"address","indexed":true,"internalType":"address"},{"name":"amount","type":"uint256","indexed":false,"internalType":"uint256"}],"anonymous":false},{"type":"event","name":"Initialized","inputs":[{"name":"version","type":"uint64","indexed":false,"internalType":"uint64"}],"anonymous":false},{"type":"event","name":"InterestRateUpdated","inputs":[{"name":"newRate","type":"uint256","indexed":false,"internalType":"uint256"}],"anonymous":false},{"type":"event","name":"Liquidated","inputs":[{"name":"liquidator","type":"address","indexed":true,"internalType":"address"},{"name":"user","type":"address","indexed":true,"internalType":"address"},{"name":"debtRepaid","type":"uint256","indexed":false,"internalType":"uint256"},{"name":"collateralSeized","type":"uint256","indexed":false,"internalType":"uint256"}],"anonymous":false},{"type":"event","name":"OwnershipTransferred","inputs":[{"name":"previousOwner","type":"address","indexed":true,"internalType":"address"},{"name":"newOwner","type":"address","indexed":true,"internalType":"address"}],"anonymous":false},{"type":"event","name":"Paused","inputs":[{"name":"account","type":"address","indexed":false,"internalType":"address"}],"anonymous":false},{"type":"event","name":"Repaid","inputs":[{"name":"user","type":"address","indexed":true,"internalType":"address"},{"name":"amount","type":"uint256","indexed":false,"internalType":"uint256"}],"anonymous":false},{"type":"event","name":"Unpaused","inputs":[{"name":"account","type":"address","indexed":false,"internalType":"address"}],"anonymous":false},{"type":"event","name":"Upgraded","inputs":[{"name":"implementation","type":"address","indexed":true,"internalType":"address"}],"anonymous":false},{"type":"event","name":"Withdrawn","inputs":[{"name":"user","type":"address","indexed":true,"internalType":"address"},{"name":"amount","type":"uint256","indexed":false,"internalType":"uint256"}],"anonymous":false},{"type":"error","name":"AddressEmptyCode","inputs":[{"name":"target","type":"address","internalType":"address"}]},{"type":"error","name":"ERC1967InvalidImplementation","inputs":[{"name":"implementation","type":"address","internalType":"address"}]},{"type":"error","name":"ERC1967NonPayable","inputs":[]},{"type":"error","name":"EnforcedPause","inputs":[]},{"type":"error","name":"ExceedsDebt","inputs":[{"name":"requested","type":"uint256","internalType":"uint256"},{"name":"debt","type":"uint256","internalType":"uint256"}]},{"type":"error","name":"ExceedsDeposit","inputs":[{"name":"requested","type":"uint256","internalType":"uint256"},{"name":"available","type":"uint256","internalType":"uint256"}]},{"type":"error","name":"ExpectedPause","inputs":[]},{"type":"error","name":"FailedCall","inputs":[]},{"type":"error","name":"InsufficientCollateral","inputs":[{"name":"healthFactor","type":"uint256","internalType":"uint256"}]},{"type":"error","name":"InvalidInitialization","inputs":[]},{"type":"error","name":"NotInitializing","inputs":[]},{"type":"error","name":"OwnableInvalidOwner","inputs":[{"name":"owner","type":"address","internalType":"address"}]},{"type":"error","name":"OwnableUnauthorizedAccount","inputs":[{"name":"account","type":"address","internalType":"address"}]},{"type":"error","name":"PositionIsHealthy","inputs":[{"name":"healthFactor","type":"uint256","internalType":"uint256"}]},{"type":"error","name":"SafeERC20FailedOperation","inputs":[{"name":"token","type":"address","internalType":"address"}]},{"type":"error","name":"UUPSUnauthorizedCallContext","inputs":[]},{"type":"error","name":"UUPSUnsupportedProxiableUUID","inputs":[{"name":"slot","type":"bytes32","internalType":"bytes32"}]},{"type":"error","name":"ZeroAmount","inputs":[]}],"bytecode":{"object":"0x60a080604052346100cc57306080527ff0c57e16840df040f15088dc2f81fe391c3923bec73e23a9662efc9c229c6a009081549060ff8260401c166100bd57506001600160401b036002600160401b031982821601610078575b60405161179990816100d182396080518181816109dd0152610ac20152f35b6001600160401b031990911681179091556040519081527fc7f505b2f371ae2175ee4913f4499e1f2633a7b5936321eed1cdaeb6115181d290602090a15f8080610059565b63f92ee8a960e01b8152600490fd5b5f80fdfe6080604090808252600480361015610015575f80fd5b5f3560e01c9182631459457a14610fa05750816316c1973914610f345781631a9703da14610f18578163249d39e914610efc5781632e1a7d4d14610de0578163371fd8e614610d075781633f4ba83a14610c925781634c19386c14610c745781634f1ef28614610a4157816352d1902d146109ca57816355f57510146109755781635c975abb146109465781635f84f302146108fb5781636a146024146108d95781636ad9f9df146108ad578163715018a6146108465781637dc0d1d01461081e5781638456cb59146107b95781638da5cb5b14610785578163aabaecd61461075d578163ad3cb1cc146106e3578163b2016bd4146106bc578163b6b55f25146105dd578163bcbaf48714610359578163c5ebeaec1461023d57508063e351353114610221578063e3cd32d614610205578063f2fde38b146101da578063f8d89898146101b2578063fae3706f146101965763ff50abdc14610175575f80fd5b34610192575f366003190112610192576020906006549051908152f35b5f80fd5b5034610192575f3660031901126101925760209051611d4c8152f35b5034610192575f3660031901126101925760015490516001600160a01b039091168152602090f35b34610192576020366003190112610192576102036101f6611165565b6101fe611619565b6112ac565b005b5034610192575f3660031901126101925760209051611f408152f35b5034610192575f36600319011261019257602090516101f48152f35b90503461019257602036600319011261019257803561025a61141d565b916102696002845414156111cd565b6002835561027561145f565b811561034b5761028433611489565b335f5260056020526102c9845f206102a96001600160801b038516825460801c611253565b81546001600160801b031660809190911b6001600160801b031916179055565b6102d58260075461126e565b6007556102e13361131d565b670de0b6b3a764000081106103355750506001926103088233868060a01b03875416611531565b519081527fac59582e5396aca512fa873a2047e7f4c80f8f55d4a06cb34a78a0187f62719f60203392a255005b8451632b3bc98560e01b81529182015260249150fd5b8351631f2a200560e01b8152fd5b905034610192578160031936011261019257610373611165565b906024803561038061141d565b9361038f6002865414156111cd565b6002855561039b61145f565b81156105cd576103aa81611489565b6103b38161131d565b90670de0b6b3a764000091828110156105b8575060018060a01b0380911694855f5260209260058452885f20918254918260801c968781115f146105b2575086975b856002541692878d8389600354169151809781936341976e0960e01b8352868301525afa9384156105a8575f94610579575b50612904808b02908b8204148b1517156105675769023934c5a09da19000008b029381850414901517156105565761271093808502948504036105565750509161049960019b9694927f1f0c6615429d1cdae0dfa233abf91d3b31cdbdd82c8081389832a61e1072f1ea98969461128e565b946001600160801b0380921680871161054c575b5091816104e56104c5889561053e97958d1690611219565b83546001600160801b031660809190911b6001600160801b031916178355565b8154906104f6818616828416611219565b16906001600160801b03191617905561051188600754611246565b60075561052082600654611246565b60065561053488828d5416309033906115af565b33905f5416611531565b82519485528401523392a355005b955061053e6104ad565b601190634e487b7160e01b5f52525ffd5b50601190634e487b7160e01b5f52525ffd5b9093508781813d83116105a1575b61059181836111ab565b810103126101925751925f610427565b503d610587565b8d513d5f823e3d90fd5b976103f5565b85859189519163577ae6c360e01b8352820152fd5b8551631f2a200560e01b81528490fd5b82346101925760203660031901126101925781356105f961141d565b916106086002845414156111cd565b6002835561061461145f565b81156106ad576001935061062733611489565b6001600160801b03335f526005602052815f209081549061064c818616828416611253565b16906001600160801b0319161790556106678260065461126e565b60065561068082858060a01b035f5416309033906115af565b519081527f2da466a7b24304f47e87fa2e1e5a81b9831ce54fec19055ce277ca2f39ba42c460203392a255005b51631f2a200560e01b81528390fd5b8234610192575f366003190112610192575f5490516001600160a01b039091168152602090f35b8234610192575f366003190112610192578051906107008261117b565b600582526020640352e302e360dc1b60208401528151928391602083528151918260208501525f5b8381106107475750505f83830185015250601f01601f19168101030190f35b8181018301518782018701528694508201610728565b8234610192575f3660031901126101925760035490516001600160a01b039091168152602090f35b8234610192575f366003190112610192575f805160206117248339815191525490516001600160a01b039091168152602090f35b8234610192575f3660031901126101925760207f62e78cea01bee320cd4e420270b5ea74000d11b0c9f74754ebdbfc544b05a258916107f6611619565b6107fe61145f565b5f80516020611744833981519152805460ff1916600117905551338152a1005b8234610192575f3660031901126101925760025490516001600160a01b039091168152602090f35b34610192575f3660031901126101925761085e611619565b5f8051602061172483398151915280546001600160a01b031981169091555f906001600160a01b03167f8be0079c531659141344cd1fd0a4f28419497f9722a3daafe3b4186f6b6457e08280a3005b8234610192576020366003190112610192576020906108d26108cd611165565b61131d565b9051908152f35b8234610192575f3660031901126101925760209051670de0b6b3a76400008152f35b823461019257602036600319011261019257816020917fa90e14be5aa57b910aa6dc16c31ff1b5cda380ae25a793b0d3f74df6131a7d749335809261093e611619565b5551908152a1005b8234610192575f3660031901126101925760209060ff5f80516020611744833981519152541690519015158152f35b8234610192576020366003190112610192576060906001600160a01b0361099a611165565b165f526005602052805f209060018254920154908051926001600160801b038116845260801c6020840152820152f35b8234610192575f366003190112610192577f00000000000000000000000000000000000000000000000000000000000000006001600160a01b03163003610a3457602090517f360894a13ba1a3210667c828492db98dca3e2076cc3735a920a3ca505d382bbc8152f35b5163703e46dd60e11b8152fd5b90508160031936011261019257610a56611165565b602492833567ffffffffffffffff9283821161019257366023830112156101925781850135938411610c6257602093835192610a9b86601f19601f85011601856111ab565b8184523688838301011161019257815f928988930183870137840101526001600160a01b037f00000000000000000000000000000000000000000000000000000000000000008116308114908115610c34575b50610c2457610afb611619565b83516352d1902d60e01b81529082169480828881895afa9182915f93610bf4575b5050610b36575050505191634c9c8ce360e01b8352820152fd5b85938591887f360894a13ba1a3210667c828492db98dca3e2076cc3735a920a3ca505d382bbc91828103610bdf5750843b15610bcb575080546001600160a01b0319168317905551907fbc7cd75a20ee27fd9adebab32041f755214dbc6bffa90cc0225b39da2e5c2d3b5f80a2825115610bb557506102039250611692565b91505034610bbf57005b63b398979f60e01b8152fd5b8251634c9c8ce360e01b8152808801859052fd5b8351632a87526960e21b815280890191909152fd5b9080929350813d8311610c1d575b610c0c81836111ab565b810103126101925751905f80610b1c565b503d610c02565b835163703e46dd60e11b81528690fd5b9050817f360894a13ba1a3210667c828492db98dca3e2076cc3735a920a3ca505d382bbc541614155f610aee565b85604186634e487b7160e01b5f52525ffd5b8234610192575f366003190112610192576020906007549051908152f35b8234610192575f36600319011261019257610cab611619565b5f805160206117448339815191529182549060ff821615610cf9577f5db9ee0a495bf2e6ff9c91a7834c1ba4fdd244a5e8aa4e537bd38aeae4b073aa602084868560ff1916905551338152a1005b8251638dfc202b60e01b8152fd5b8234610192576020366003190112610192578135610d2361141d565b91610d326002845414156111cd565b60028355610d3e61145f565b81156106ad5760019350610d5133611489565b335f526005602052610d84815f20805460801c938481115f14610dd657506102a9845b6001600160801b03861690611219565b610d9082600754611246565b600755610da982858060a01b03865416309033906115af565b519081527f0516911bcc3a0a7412a44601057c0a0a1ec628bde049a84284bc42886653448860203392a255005b6102a99094610d74565b905034610192576020366003190112610192578035610dfd61141d565b91610e0c6002845414156111cd565b60028355610e1861145f565b811561034b57335f526005602052835f206001600160801b0380825416808511610ee05750610e4633611489565b815490610e57818616828416611219565b16906001600160801b031916178155610e7283600654611246565b6006555460801c610ec2575b50600192610e958233868060a01b035f5416611531565b519081527f7084f5476618d8e60b11ef0d7d3f06914655adb8793e28ff7f018d4c76d505d560203392a255005b610ecb3361131d565b670de0b6b3a764000081106103355750610e7e565b836044918689519263303eeb1d60e01b84528301526024820152fd5b8234610192575f36600319011261019257602090516127108152f35b8234610192575f36600319011261019257602091549051908152f35b823461019257602036600319011261019257606090610f51611165565b6001600160a01b0381165f90815260056020528290205491608083901c9182610f9157505f19915b6001600160801b038251941684526020840152820152f35b610f9a9061131d565b91610f79565b8382346101925760a036600319011261019257610fbb611165565b926001600160a01b0360243581811693908490036101925760443595828716809703610192576064359083821680920361019257608435978489168903610192577ff0c57e16840df040f15088dc2f81fe391c3923bec73e23a9662efc9c229c6a009687549560ff878b1c16159667ffffffffffffffff81169889158061115e575b6001809b149081611154575b15908161114b575b5061113d5750899a9b61109091898b9c66b1a2bc2ec500009b9c67ffffffffffffffff19841617905561111e575b50611088611651565b6101fe611651565b611098611651565b886110a161141d565b556110aa611651565b6bffffffffffffffffffffffff60a01b9316835f5416175f55828854161787558160025416176002556003541617600355556110e257005b7fc7f505b2f371ae2175ee4913f4499e1f2633a7b5936321eed1cdaeb6115181d29260209268ff000000000000000019815416905551908152a1005b68ffffffffffffffffff191668010000000000000001178c558d61107f565b63f92ee8a960e01b81528790fd5b9050158e611051565b303b159150611049565b508861103d565b600435906001600160a01b038216820361019257565b6040810190811067ffffffffffffffff82111761119757604052565b634e487b7160e01b5f52604160045260245ffd5b90601f8019910116810190811067ffffffffffffffff82111761119757604052565b156111d457565b60405162461bcd60e51b815260206004820152601f60248201527f5265656e7472616e637947756172643a207265656e7472616e742063616c6c006044820152606490fd5b6001600160801b03918216908216039190821161123257565b634e487b7160e01b5f52601160045260245ffd5b9190820391821161123257565b9190916001600160801b038080941691160191821161123257565b9190820180921161123257565b8181029291811591840414171561123257565b8115611298570490565b634e487b7160e01b5f52601260045260245ffd5b6001600160a01b03908116908115611305575f8051602061172483398151915280546001600160a01b031981168417909155167f8be0079c531659141344cd1fd0a4f28419497f9722a3daafe3b4186f6b6457e05f80a3565b604051631e4fbdf760e01b81525f6004820152602490fd5b6001600160a01b039081165f90815260056020526040902054608081901c908115611415576020836002541693600354166024604051809681936341976e0960e01b835260048301525afa92831561140a575f936113d4575b50826001600160801b0361138a921661127b565b611f409081810291818304149015171561123257612710900490670de0b6b3a764000091828102928184041490151715611232576113d1926113cb9161127b565b9061128e565b90565b9092506020813d602011611402575b816113f0602093836111ab565b8101031261019257519161138a611376565b3d91506113e3565b6040513d5f823e3d90fd5b5050505f1990565b604051602081017f8f512fdee3b85f154acf5e55718dc6e140c9380a285506f24acf32d35df083ce8152602082526114548261117b565b9051902060ff191690565b60ff5f80516020611744833981519152541661147757565b60405163d93c066560e01b8152600490fd5b6001600160a01b03165f908152600560205260409020805460801c9081158015611525575b61151b5760018101916114c2835442611246565b80156115155761150d926102a96a1a1601fc4ea7109e0000006114f3611505946114ee6004548861127b565b61127b565b04936001600160801b03851690611253565b60075461126e565b600755429055565b50505050565b9050600142910155565b506001810154156114ae565b60405163a9059cbb60e01b5f9081526001600160a01b039384166004526024949094529260209060448180855af160015f5114811615611590575b836040521561157a57505050565b635274afe760e01b835216600482015260249150fd5b60018115166115a657813b15153d15161661156c565b833d5f823e3d90fd5b6040516323b872dd60e01b5f9081526001600160a01b03938416600452938316602452604494909452909160209060648180855af160015f5114811615611603575b836040525f6060521561157a57505050565b60018115166115a657813b15153d1516166115f1565b5f80516020611724833981519152546001600160a01b0316330361163957565b60405163118cdaa760e01b8152336004820152602490fd5b60ff7ff0c57e16840df040f15088dc2f81fe391c3923bec73e23a9662efc9c229c6a005460401c161561168057565b604051631afcd79f60e31b8152600490fd5b905f8091602081519101845af48080611710575b156116c65750506040513d81523d5f602083013e60203d82010160405290565b156116ed57604051639996b31560e01b81526001600160a01b039091166004820152602490fd5b3d156116fe576040513d5f823e3d90fd5b60405163d6bda27560e01b8152600490fd5b503d1515806116a65750813b15156116a656fe9016d09d72d40fdae2fd8ceac6b6234c7706214fd39c1cd1e609a0528c199300cd5ed15c6e187e77e9aee88184c21f4f2182ab5827cb3b7e07fbedcd63f03300a2646970667358221220d264ffd5a219646d88be8dfdac5f178c1e304dbafe89621888dd609143fd287664736f6c63430008180033","linkReferences":{}},"methodIdentifiers":{"BPS()":"249d39e9","LIQ_BONUS_BPS()":"e3513531","LIQ_THRESHOLD_BPS()":"e3cd32d6","LTV_BPS()":"fae3706f","UPGRADE_INTERFACE_VERSION()":"ad3cb1cc","WAD()":"6a146024","annualInterestRate()":"1a9703da","borrow(uint256)":"c5ebeaec","collateralAsset()":"aabaecd6","collateralToken()":"b2016bd4","debtToken()":"f8d89898","deposit(uint256)":"b6b55f25","getPosition(address)":"16c19739","healthFactor(address)":"6ad9f9df","initialize(address,address,address,address,address)":"1459457a","liquidate(address,uint256)":"bcbaf487","oracle()":"7dc0d1d0","owner()":"8da5cb5b","pause()":"8456cb59","paused()":"5c975abb","positions(address)":"55f57510","proxiableUUID()":"52d1902d","renounceOwnership()":"715018a6","repay(uint256)":"371fd8e6","setInterestRate(uint256)":"5f84f302","totalBorrowed()":"4c19386c","totalDeposited()":"ff50abdc","transferOwnership(address)":"f2fde38b","unpause()":"3f4ba83a","upgradeToAndCall(address,bytes)":"4f1ef286","withdraw(uint256)":"2e1a7d4d"},"id":2}