{"abi":[{"type":"constructor","inputs":[],"stateMutability":"nonpayable"},{"type":"function","name":"UPGRADE_INTERFACE_VERSION","inputs":[],"outputs":[{"name":"","type":"string","internalType":"string"}],"stateMutability":"view"},{"type":"function","name":"allowance","inputs":[{"name":"owner","type":"address","internalType":"address"},{"name":"spender","type":"address","internalType":"address"}],"outputs":[{"name":"","type":"uint256","internalType":"uint256"}],"stateMutability":"view"},{"type":"function","name":"approve","inputs":[{"name":"spender","type":"address","internalType":"address"},{"name":"value","type":"uint256","internalType":"uint256"}],"outputs":[{"name":"","type":"bool","internalType":"bool"}],"stateMutability":"nonpayable"},{"type":"function","name":"asset","inputs":[],"outputs":[{"name":"","type":"address","internalType":"address"}],"stateMutability":"view"},{"type":"function","name":"balanceOf","inputs":[{"name":"account","type":"address","internalType":"address"}],"outputs":[{"name":"","type":"uint256","internalType":"uint256"}],"stateMutability":"view"},{"type":"function","name":"convertToAssets","inputs":[{"name":"shares","type":"uint256","internalType":"uint256"}],"outputs":[{"name":"","type":"uint256","internalType":"uint256"}],"stateMutability":"view"},{"type":"function","name":"convertToShares","inputs":[{"name":"assets","type":"uint256","internalType":"uint256"}],"outputs":[{"name":"","type":"uint256","internalType":"uint256"}],"stateMutability":"view"},{"type":"function","name":"decimals","inputs":[],"outputs":[{"name":"","type":"uint8","internalType":"uint8"}],"stateMutability":"view"},{"type":"function","name":"deposit","inputs":[{"name":"assets","type":"uint256","internalType":"uint256"},{"name":"receiver","type":"address","internalType":"address"}],"outputs":[{"name":"","type":"uint256","internalType":"uint256"}],"stateMutability":"nonpayable"},{"type":"function","name":"feeRecipient","inputs":[],"outputs":[{"name":"","type":"address","internalType":"address"}],"stateMutability":"view"},{"type":"function","name":"initialize","inputs":[{"name":"asset_","type":"address","internalType":"contract IERC20"},{"name":"owner_","type":"address","internalType":"address"},{"name":"feeRecipient_","type":"address","internalType":"address"}],"outputs":[],"stateMutability":"nonpayable"},{"type":"function","name":"maxDeposit","inputs":[{"name":"","type":"address","internalType":"address"}],"outputs":[{"name":"","type":"uint256","internalType":"uint256"}],"stateMutability":"view"},{"type":"function","name":"maxMint","inputs":[{"name":"","type":"address","internalType":"address"}],"outputs":[{"name":"","type":"uint256","internalType":"uint256"}],"stateMutability":"view"},{"type":"function","name":"maxRedeem","inputs":[{"name":"owner","type":"address","internalType":"address"}],"outputs":[{"name":"","type":"uint256","internalType":"uint256"}],"stateMutability":"view"},{"type":"function","name":"maxWithdraw","inputs":[{"name":"owner","type":"address","internalType":"address"}],"outputs":[{"name":"","type":"uint256","internalType":"uint256"}],"stateMutability":"view"},{"type":"function","name":"mint","inputs":[{"name":"shares","type":"uint256","internalType":"uint256"},{"name":"receiver","type":"address","internalType":"address"}],"outputs":[{"name":"","type":"uint256","internalType":"uint256"}],"stateMutability":"nonpayable"},{"type":"function","name":"name","inputs":[],"outputs":[{"name":"","type":"string","internalType":"string"}],"stateMutability":"view"},{"type":"function","name":"owner","inputs":[],"outputs":[{"name":"","type":"address","internalType":"address"}],"stateMutability":"view"},{"type":"function","name":"pause","inputs":[],"outputs":[],"stateMutability":"nonpayable"},{"type":"function","name":"paused","inputs":[],"outputs":[{"name":"","type":"bool","internalType":"bool"}],"stateMutability":"view"},{"type":"function","name":"performanceFeeBps","inputs":[],"outputs":[{"name":"","type":"uint96","internalType":"uint96"}],"stateMutability":"view"},{"type":"function","name":"previewDeposit","inputs":[{"name":"assets","type":"uint256","internalType":"uint256"}],"outputs":[{"name":"","type":"uint256","internalType":"uint256"}],"stateMutability":"view"},{"type":"function","name":"previewMint","inputs":[{"name":"shares","type":"uint256","internalType":"uint256"}],"outputs":[{"name":"","type":"uint256","internalType":"uint256"}],"stateMutability":"view"},{"type":"function","name":"previewRedeem","inputs":[{"name":"shares","type":"uint256","internalType":"uint256"}],"outputs":[{"name":"","type":"uint256","internalType":"uint256"}],"stateMutability":"view"},{"type":"function","name":"previewWithdraw","inputs":[{"name":"assets","type":"uint256","internalType":"uint256"}],"outputs":[{"name":"","type":"uint256","internalType":"uint256"}],"stateMutability":"view"},{"type":"function","name":"proxiableUUID","inputs":[],"outputs":[{"name":"","type":"bytes32","internalType":"bytes32"}],"stateMutability":"view"},{"type":"function","name":"redeem","inputs":[{"name":"shares","type":"uint256","internalType":"uint256"},{"name":"receiver","type":"address","internalType":"address"},{"name":"owner","type":"address","internalType":"address"}],"outputs":[{"name":"","type":"uint256","internalType":"uint256"}],"stateMutability":"nonpayable"},{"type":"function","name":"renounceOwnership","inputs":[],"outputs":[],"stateMutability":"nonpayable"},{"type":"function","name":"setFeeRecipient","inputs":[{"name":"recipient","type":"address","internalType":"address"}],"outputs":[],"stateMutability":"nonpayable"},{"type":"function","name":"setPerformanceFee","inputs":[{"name":"bps","type":"uint96","internalType":"uint96"}],"outputs":[],"stateMutability":"nonpayable"},{"type":"function","name":"symbol","inputs":[],"outputs":[{"name":"","type":"string","internalType":"string"}],"stateMutability":"view"},{"type":"function","name":"totalAssets","inputs":[],"outputs":[{"name":"","type":"uint256","internalType":"uint256"}],"stateMutability":"view"},{"type":"function","name":"totalSupply","inputs":[],"outputs":[{"name":"","type":"uint256","internalType":"uint256"}],"stateMutability":"view"},{"type":"function","name":"transfer","inputs":[{"name":"to","type":"address","internalType":"address"},{"name":"value","type":"uint256","internalType":"uint256"}],"outputs":[{"name":"","type":"bool","internalType":"bool"}],"stateMutability":"nonpayable"},{"type":"function","name":"transferFrom","inputs":[{"name":"from","type":"address","internalType":"address"},{"name":"to","type":"address","internalType":"address"},{"name":"value","type":"uint256","internalType":"uint256"}],"outputs":[{"name":"","type":"bool","internalType":"bool"}],"stateMutability":"nonpayable"},{"type":"function","name":"transferOwnership","inputs":[{"name":"newOwner","type":"address","internalType":"address"}],"outputs":[],"stateMutability":"nonpayable"},{"type":"function","name":"unpause","inputs":[],"outputs":[],"stateMutability":"nonpayable"},{"type":"function","name":"upgradeToAndCall","inputs":[{"name":"newImplementation","type":"address","internalType":"address"},{"name":"data","type":"bytes","internalType":"bytes"}],"outputs":[],"stateMutability":"payable"},{"type":"function","name":"withdraw","inputs":[{"name":"assets","type":"uint256","internalType":"uint256"},{"name":"receiver","type":"address","internalType":"address"},{"name":"owner","type":"address","internalType":"address"}],"outputs":[{"name":"","type":"uint256","internalType":"uint256"}],"stateMutability":"nonpayable"},{"type":"event","name":"Approval","inputs":[{"name":"owner","type":"address","indexed":true,"internalType":"address"},{"name":"spender","type":"address","indexed":true,"internalType":"address"},{"name":"value","type":"uint256","indexed":false,"internalType":"uint256"}],"anonymous":false},{"type":"event","name":"Deposit","inputs":[{"name":"sender","type":"address","indexed":true,"internalType":"address"},{"name":"owner","type":"address","indexed":true,"internalType":"address"},{"name":"assets","type":"uint256","indexed":false,"internalType":"uint256"},{"name":"shares","type":"uint256","indexed":false,"internalType":"uint256"}],"anonymous":false},{"type":"event","name":"FeeRecipientChanged","inputs":[{"name":"newRecipient","type":"address","indexed":true,"internalType":"address"}],"anonymous":false},{"type":"event","name":"Initialized","inputs":[{"name":"version","type":"uint64","indexed":false,"internalType":"uint64"}],"anonymous":false},{"type":"event","name":"OwnershipTransferred","inputs":[{"name":"previousOwner","type":"address","indexed":true,"internalType":"address"},{"name":"newOwner","type":"address","indexed":true,"internalType":"address"}],"anonymous":false},{"type":"event","name":"Paused","inputs":[{"name":"account","type":"address","indexed":false,"internalType":"address"}],"anonymous":false},{"type":"event","name":"PerformanceFeeChanged","inputs":[{"name":"newBps","type":"uint96","indexed":false,"internalType":"uint96"}],"anonymous":false},{"type":"event","name":"Transfer","inputs":[{"name":"from","type":"address","indexed":true,"internalType":"address"},{"name":"to","type":"address","indexed":true,"internalType":"address"},{"name":"value","type":"uint256","indexed":false,"internalType":"uint256"}],"anonymous":false},{"type":"event","name":"Unpaused","inputs":[{"name":"account","type":"address","indexed":false,"internalType":"address"}],"anonymous":false},{"type":"event","name":"Upgraded","inputs":[{"name":"implementation","type":"address","indexed":true,"internalType":"address"}],"anonymous":false},{"type":"event","name":"Withdraw","inputs":[{"name":"sender","type":"address","indexed":true,"internalType":"address"},{"name":"receiver","type":"address","indexed":true,"internalType":"address"},{"name":"owner","type":"address","indexed":true,"internalType":"address"},{"name":"assets","type":"uint256","indexed":false,"internalType":"uint256"},{"name":"shares","type":"uint256","indexed":false,"internalType":"uint256"}],"anonymous":false},{"type":"error","name":"AddressEmptyCode","inputs":[{"name":"target","type":"address","internalType":"address"}]},{"type":"error","name":"ERC1967InvalidImplementation","inputs":[{"name":"implementation","type":"address","internalType":"address"}]},{"type":"error","name":"ERC1967NonPayable","inputs":[]},{"type":"error","name":"ERC20InsufficientAllowance","inputs":[{"name":"spender","type":"address","internalType":"address"},{"name":"allowance","type":"uint256","internalType":"uint256"},{"name":"needed","type":"uint256","internalType":"uint256"}]},{"type":"error","name":"ERC20InsufficientBalance","inputs":[{"name":"sender","type":"address","internalType":"address"},{"name":"balance","type":"uint256","internalType":"uint256"},{"name":"needed","type":"uint256","internalType":"uint256"}]},{"type":"error","name":"ERC20InvalidApprover","inputs":[{"name":"approver","type":"address","internalType":"address"}]},{"type":"error","name":"ERC20InvalidReceiver","inputs":[{"name":"receiver","type":"address","internalType":"address"}]},{"type":"error","name":"ERC20InvalidSender","inputs":[{"name":"sender","type":"address","internalType":"address"}]},{"type":"error","name":"ERC20InvalidSpender","inputs":[{"name":"spender","type":"address","internalType":"address"}]},{"type":"error","name":"ERC4626ExceededMaxDeposit","inputs":[{"name":"receiver","type":"address","internalType":"address"},{"name":"assets","type":"uint256","internalType":"uint256"},{"name":"max","type":"uint256","internalType":"uint256"}]},{"type":"error","name":"ERC4626ExceededMaxMint","inputs":[{"name":"receiver","type":"address","internalType":"address"},{"name":"shares","type":"uint256","internalType":"uint256"},{"name":"max","type":"uint256","internalType":"uint256"}]},{"type":"error","name":"ERC4626ExceededMaxRedeem","inputs":[{"name":"owner","type":"address","internalType":"address"},{"name":"shares","type":"uint256","internalType":"uint256"},{"name":"max","type":"uint256","internalType":"uint256"}]},{"type":"error","name":"ERC4626ExceededMaxWithdraw","inputs":[{"name":"owner","type":"address","internalType":"address"},{"name":"assets","type":"uint256","internalType":"uint256"},{"name":"max","type":"uint256","internalType":"uint256"}]},{"type":"error","name":"EnforcedPause","inputs":[]},{"type":"error","name":"ExpectedPause","inputs":[]},{"type":"error","name":"FailedCall","inputs":[]},{"type":"error","name":"InvalidFee","inputs":[{"name":"bps","type":"uint96","internalType":"uint96"}]},{"type":"error","name":"InvalidInitialization","inputs":[]},{"type":"error","name":"NotInitializing","inputs":[]},{"type":"error","name":"OwnableInvalidOwner","inputs":[{"name":"owner","type":"address","internalType":"address"}]},{"type":"error","name":"OwnableUnauthorizedAccount","inputs":[{"name":"account","type":"address","internalType":"address"}]},{"type":"error","name":"ReentrancyGuardReentrantCall","inputs":[]},{"type":"error","name":"SafeERC20FailedOperation","inputs":[{"name":"token","type":"address","internalType":"address"}]},{"type":"error","name":"UUPSUnauthorizedCallContext","inputs":[]},{"type":"error","name":"UUPSUnsupportedProxiableUUID","inputs":[{"name":"slot","type":"bytes32","internalType":"bytes32"}]}],"bytecode":{"object":"0x60a080604052346100cc57306080527ff0c57e16840df040f15088dc2f81fe391c3923bec73e23a9662efc9c229c6a009081549060ff8260401c166100bd57506001600160401b036002600160401b031982821601610078575b604051611de490816100d18239608051818181610d270152610e130152f35b6001600160401b031990911681179091556040519081527fc7f505b2f371ae2175ee4913f4499e1f2633a7b5936321eed1cdaeb6115181d290602090a15f8080610059565b63f92ee8a960e01b8152600490fd5b5f80fdfe60806040526004361015610011575f80fd5b5f3560e01c806301e1d114146112c457806306fdde031461122557806307a2d13a14610fbd578063095ea7b3146111765780630a28a4771461115857806318160ddd1461112f57806323b872dd146110f7578063313ce567146110a557806338d52e0f146110715780633f4ba83a14610fe9578063402d267d146102f75780634690484014610fc25780634cdad50614610fbd5780634f1ef28614610d9157806352d1902d14610d155780635c975abb14610cd45780636e553f6514610ca157806370a08231146102a6578063715018a614610c3a5780638456cb5914610baf57806387451de614610b0a5780638da5cb5b14610ad657806394bf804d14610aa357806395d89b41146109ca578063a9059cbb14610999578063ad3cb1cc14610958578063b3d7f6b91461093a578063b460af94146108ca578063b9d4e879146108ab578063ba0876521461083e578063c0c53b8b146102fc578063c63d75b6146102f7578063c6e6f592146101f5578063ce96cb77146102d1578063d905777e146102a6578063dd62ed3e1461025f578063e74b981b146101fa578063ef8b30f7146101f55763f2fde38b146101c6575f80fd5b346101f15760203660031901126101f1576101ef6101e2611343565b6101ea611824565b61153e565b005b5f80fd5b611407565b346101f15760203660031901126101f157610213611343565b61021b611824565b5f80546001600160a01b0319166001600160a01b039290921691821781557f167cccccc6e9b2892a740ec13fc1e51d3de8ea384f25bd87fee7412d588637e29080a2005b346101f15760403660031901126101f157610278611343565b610289610283611359565b916114e0565b9060018060a01b03165f52602052602060405f2054604051908152f35b346101f15760203660031901126101f15760206102c96102c4611343565b611518565b604051908152f35b346101f15760203660031901126101f15760206102c96102f26102c4611343565b6115f8565b61136f565b346101f15760603660031901126101f1576001600160a01b0360043580821690036101f157610329611359565b906044359080821682036101f1577ff0c57e16840df040f15088dc2f81fe391c3923bec73e23a9662efc9c229c6a009182549167ffffffffffffffff83168015908161082e575b6001149081610824575b15908161081b575b5061080957600167ffffffffffffffff19841617845560ff8360401c16156107ea575b604051946103b286611394565b6012865271105c985b1e5cc8165a595b190815985d5b1d60721b6020870152604051956103de87611394565b60058752647941524c5960d81b60208801526103f8611b42565b610400611b42565b80519067ffffffffffffffff82116106c457819061042b5f80516020611ccf833981519152546114a8565b601f811161076f575b50602090601f83116001146106e3575f926106d8575b50508160011b915f199060031b1c1916175f80516020611ccf833981519152555b855167ffffffffffffffff81116106c4576104935f80516020611d0f833981519152546114a8565b601f8111610650575b506020601f82116001146105c0579080610553939260ff98995f926105b5575b50508160011b915f199060031b1c1916175f80516020611d0f833981519152555b6104e5611b42565b6104ed611b42565b63313ce56760e01b5f5260205f60048181355afa5f5190601f3d111661010082101680156105ac57025b5f80516020611d6f83398151915280546001600160a81b03191691881660a01b91909117600435851617905561054b611b42565b6101ea611b42565b61055b611b42565b16607d60a31b175f5560401c161561056f57005b68ff00000000000000001981541690557fc7f505b2f371ae2175ee4913f4499e1f2633a7b5936321eed1cdaeb6115181d2602060405160018152a1005b50506012610517565b0151905089806104bc565b5f80516020611d0f8339815191525f525f80516020611d8f833981519152975f5b601f198416811061063857509160ff9798600192610553959483601f19811610610620575b505050811b015f80516020611d0f833981519152556104dd565b01515f1960f88460031b161c19169055898080610606565b828201518a55600190990198602092830192016105e1565b5f80516020611d0f8339815191525f52601f820160051c5f80516020611d8f8339815191520190602083106106af575b601f0160051c5f80516020611d8f83398151915201905b8181106106a4575061049c565b5f8155600101610697565b5f80516020611d8f8339815191529150610680565b634e487b7160e01b5f52604160045260245ffd5b01519050888061044a565b92505f80516020611ccf8339815191525f525f80516020611caf833981519152905f935b601f1984168510610754576001945083601f1981161061073c575b505050811b015f80516020611ccf8339815191525561046b565b01515f1960f88460031b161c19169055888080610722565b81810151835560209485019460019093019290910190610707565b9091505f80516020611ccf8339815191525f52601f830160051c5f80516020611caf83398151915201602084106107d6575b908392915b601f820160051c5f80516020611caf8339815191520181106107c85750610434565b5f81558493506001016107a6565b505f80516020611caf8339815191526107a1565b68ffffffffffffffffff198316680100000000000000011784556103a5565b60405163f92ee8a960e01b8152600490fd5b90501586610382565b303b15915061037a565b604085901c60ff16159150610370565b346101f15761084c366113d2565b9061085682611518565b8084116108775750826102c99161086e6020956115f8565b938491336119a2565b604051632e52afbb60e21b81526001600160a01b039390931660048401526024830193909352506044810191909152606490fd5b346101f1575f3660031901126101f15760205f5460a01c604051908152f35b346101f1576108d8366113d2565b906108e56102f283611518565b80841161090657506102c990836108fd602095611631565b938492336119a2565b604051633fa733bb60e21b81526001600160a01b039390931660048401526024830193909352506044810191909152606490fd5b346101f15760203660031901126101f15760206102c96004356115bc565b346101f1575f3660031901126101f15761099560405161097781611394565b60058152640352e302e360dc1b6020820152604051918291826112de565b0390f35b346101f15760403660031901126101f1576109bf6109b5611343565b602435903361173b565b602060405160018152f35b346101f1575f3660031901126101f1576040515f5f80516020611d0f8339815191528054906109f8826114a8565b80855291602091600191828116908115610a765750600114610a31575b61099586610a25818803826113b0565b604051918291826112de565b5f90815293505f80516020611d8f8339815191525b838510610a6357505050508101602001610a258261099585610a15565b8054868601840152938201938101610a46565b905086955061099596935060209250610a2594915060ff191682840152151560051b820101929385610a15565b346101f15760403660031901126101f15760206004356102c9610ac4611359565b91610ace816115bc565b80933361185c565b346101f1575f3660031901126101f1575f80516020611d2f833981519152546040516001600160a01b039091168152602090f35b346101f15760203660031901126101f1576004356bffffffffffffffffffffffff8116908181036101f157610b3d611824565b6107d08211610b96575f80546001600160a01b031660a09290921b6001600160a01b0319169190911790556040519081527f627daa270e4d2b7e3c44730b3e6c316182b046ec2a0fa55c97ff97abb574066e90602090a1005b60405163e3c1d40760e01b815260048101839052602490fd5b346101f1575f3660031901126101f157610bc7611824565b7fcd5ed15c6e187e77e9aee88184c21f4f2182ab5827cb3b7e07fbedcd63f03300805460ff8116610c285760019060ff19161790557f62e78cea01bee320cd4e420270b5ea74000d11b0c9f74754ebdbfc544b05a2586020604051338152a1005b60405163d93c066560e01b8152600490fd5b346101f1575f3660031901126101f157610c52611824565b5f80516020611d2f83398151915280546001600160a01b031981169091555f906001600160a01b03167f8be0079c531659141344cd1fd0a4f28419497f9722a3daafe3b4186f6b6457e08280a3005b346101f15760403660031901126101f15760206004356102c9610cc2611359565b610ccb8361166a565b9283913361185c565b346101f1575f3660031901126101f157602060ff7fcd5ed15c6e187e77e9aee88184c21f4f2182ab5827cb3b7e07fbedcd63f0330054166040519015158152f35b346101f1575f3660031901126101f1577f00000000000000000000000000000000000000000000000000000000000000006001600160a01b03163003610d7f5760206040517f360894a13ba1a3210667c828492db98dca3e2076cc3735a920a3ca505d382bbc8152f35b60405163703e46dd60e11b8152600490fd5b60403660031901126101f157610da5611343565b602490813567ffffffffffffffff918282116101f157366023830112156101f1578160040135928311610faa5760209260405192610dec85601f19601f85011601856113b0565b818452368683830101116101f157815f928787930183870137840101526001600160a01b037f00000000000000000000000000000000000000000000000000000000000000008116308114908115610f7c575b50610d7f57610e4c611824565b6040516352d1902d60e01b8152908216938082600481885afa9182915f93610f4c575b5050610e8d5750505060405190634c9c8ce360e01b82526004820152fd5b847f360894a13ba1a3210667c828492db98dca3e2076cc3735a920a3ca505d382bbc91828103610f375750823b15610f21575080546001600160a01b03191684179055604051927fbc7cd75a20ee27fd9adebab32041f755214dbc6bffa90cc0225b39da2e5c2d3b5f80a2815115610f09576101ef9250611c1d565b505034610f1257005b63b398979f60e01b8152600490fd5b604051634c9c8ce360e01b815260048101869052fd5b60405190632a87526960e21b82526004820152fd5b9080929350813d8311610f75575b610f6481836113b0565b810103126101f15751908680610e6f565b503d610f5a565b9050817f360894a13ba1a3210667c828492db98dca3e2076cc3735a920a3ca505d382bbc5416141586610e3f565b83634e487b7160e01b5f5260416004525ffd5b611325565b346101f1575f3660031901126101f1575f546040516001600160a01b039091168152602090f35b346101f1575f3660031901126101f157611001611824565b7fcd5ed15c6e187e77e9aee88184c21f4f2182ab5827cb3b7e07fbedcd63f03300805460ff81161561105f5760ff191690557f5db9ee0a495bf2e6ff9c91a7834c1ba4fdd244a5e8aa4e537bd38aeae4b073aa6020604051338152a1005b604051638dfc202b60e01b8152600490fd5b346101f1575f3660031901126101f1575f80516020611d6f833981519152546040516001600160a01b039091168152602090f35b346101f1575f3660031901126101f157600660ff5f80516020611d6f8339815191525460a01c160160ff81116110e35760209060ff60405191168152f35b634e487b7160e01b5f52601160045260245ffd5b346101f15760603660031901126101f1576109bf611113611343565b61111b611359565b6044359161112a8333836116a3565b61173b565b346101f1575f3660031901126101f15760205f80516020611d4f83398151915254604051908152f35b346101f15760203660031901126101f15760206102c9600435611631565b346101f15760403660031901126101f15761118f611343565b60243590331561120d576001600160a01b03169081156111f5576111b2336114e0565b825f526020528060405f20556040519081527f8c5be1e5ebec7d5bd14f71427d1e84f3dd0314c0f7b2291e5b200ac8c7c3b92560203392a3602060405160018152f35b604051634a1406b160e11b81525f6004820152602490fd5b60405163e602df0560e01b81525f6004820152602490fd5b346101f1575f3660031901126101f1576040515f5f80516020611ccf833981519152805490611253826114a8565b80855291602091600191828116908115610a76575060011461127f5761099586610a25818803826113b0565b5f90815293505f80516020611caf8339815191525b8385106112b157505050508101602001610a258261099585610a15565b8054868601840152938201938101611294565b346101f1575f3660031901126101f15760206102c9611425565b602080825282518183018190529093925f5b82811061131157505060409293505f838284010152601f8019910116010190565b8181018601518482016040015285016112f0565b346101f15760203660031901126101f15760206102c96004356115f8565b600435906001600160a01b03821682036101f157565b602435906001600160a01b03821682036101f157565b346101f15760203660031901126101f157611388611343565b5060206040515f198152f35b6040810190811067ffffffffffffffff8211176106c457604052565b90601f8019910116810190811067ffffffffffffffff8211176106c457604052565b60609060031901126101f157600435906001600160a01b039060243582811681036101f1579160443590811681036101f15790565b346101f15760203660031901126101f15760206102c960043561166a565b5f80516020611d6f833981519152546040516370a0823160e01b815230600482015290602090829060249082906001600160a01b03165afa90811561149d575f9161146e575090565b90506020813d602011611495575b81611489602093836113b0565b810103126101f1575190565b3d915061147c565b6040513d5f823e3d90fd5b90600182811c921680156114d6575b60208310146114c257565b634e487b7160e01b5f52602260045260245ffd5b91607f16916114b7565b6001600160a01b03165f9081527f52c63247e1f47db19d5ce0460030c497f067ca4cebf71ba98eeadabe20bace016020526040902090565b6001600160a01b03165f9081525f80516020611cef833981519152602052604090205490565b6001600160a01b03908116908115611597575f80516020611d2f83398151915280546001600160a01b031981168417909155167f8be0079c531659141344cd1fd0a4f28419497f9722a3daafe3b4186f6b6457e05f80a3565b604051631e4fbdf760e01b81525f6004820152602490fd5b919082018092116110e357565b6115c4611425565b600181018091116110e3575f80516020611d4f8339815191525490620f424082018092116110e3576115f592611b0e565b90565b611600611425565b600181018091116110e3575f80516020611d4f8339815191525490620f424082018092116110e3576115f592611b83565b5f80516020611d4f83398151915254620f424081018091116110e357611655611425565b90600182018092116110e3576115f592611b0e565b5f80516020611d4f83398151915254620f424081018091116110e35761168e611425565b90600182018092116110e3576115f592611b83565b6116ac816114e0565b9060018060a01b0380841692835f5260205260405f2054935f1985106116d5575b505050505050565b85851061170a575081161561120d5781156111f5576116f3906114e0565b905f526020520360405f20555f80808080806116cd565b604051637dc7a0d960e11b81526001600160a01b039190911660048201526024810185905260448101869052606490fd5b916001600160a01b0380841692831561180c57169283156117f457825f525f80516020611cef8339815191528060205260405f2054918383106117c1575091806020927fddf252ad1be2c89b69c2b068fc378daa952ba7f163c4a11628f55a4df523b3ef94865f5284520360405f2055845f5260405f20818154019055604051908152a3565b60405163391434e360e21b81526001600160a01b0391909116600482015260248101929092525060448101829052606490fd5b60405163ec442f0560e01b81525f6004820152602490fd5b604051634b637e8f60e11b81525f6004820152602490fd5b5f80516020611d2f833981519152546001600160a01b0316330361184457565b60405163118cdaa760e01b8152336004820152602490fd5b909160018060a01b03805f80516020611d6f833981519152541693604093828551916323b872dd60e01b5f52169586600452306024528460445260205f60648180855af160015f5114811615611983575b8287525f6060521561196e5750501693841561195757907fdcbc1c05240f31ff3ad067ef1ee35ce4997762752e3a095284754544f4c709d792915f80516020611d4f8339815191526119008282546115af565b9055855f525f80516020611cef833981519152602052825f20818154019055855f7fddf252ad1be2c89b69c2b068fc378daa952ba7f163c4a11628f55a4df523b3ef60208651858152a382519182526020820152a3565b825163ec442f0560e01b81525f6004820152602490fd5b635274afe760e01b8252600482015260249150fd5b600181151661199957813b15153d1516166118ad565b823d5f823e3d90fd5b6001600160a01b038084169590948583169493909282888703611afd575b5050861561180c57865f525f80516020611cef8339815191529384602052604094855f205491848310611acb5750908391895f5260205203845f20555f80516020611d4f8339815191528281540390555f877fddf252ad1be2c89b69c2b068fc378daa952ba7f163c4a11628f55a4df523b3ef60208751868152a3855f80516020611d6f83398151915254169584519163a9059cbb60e01b5f521695866004528360245260205f60448180855af160015f5114811615611ab5575b8286521561196e575050825191825260208201527ffbde797d201c681b91056529119e0b02407c7bb96a4a2c75c01fc9667232c8db9190a4565b600181151661199957813b15153d151616611a7b565b865163391434e360e21b81526001600160a01b0391909116600482015260248101929092525060448101839052606490fd5b611b0791866116a3565b5f826119c0565b91611b1a818385611b83565b918115611b2e576115f593091515906115af565b634e487b7160e01b5f52601260045260245ffd5b60ff7ff0c57e16840df040f15088dc2f81fe391c3923bec73e23a9662efc9c229c6a005460401c1615611b7157565b604051631afcd79f60e31b8152600490fd5b90915f198383099280830292838086109503948086039514611c0f5784831115611bf75790829109815f038216809204600280826003021880830282030280830282030280830282030280830282030280830282030280920290030293600183805f03040190848311900302920304170290565b82634e487b715f52156003026011186020526024601cfd5b505080925015611b2e570490565b905f8091602081519101845af48080611c9b575b15611c515750506040513d81523d5f602083013e60203d82010160405290565b15611c7857604051639996b31560e01b81526001600160a01b039091166004820152602490fd5b3d15611c89576040513d5f823e3d90fd5b60405163d6bda27560e01b8152600490fd5b503d151580611c315750813b1515611c3156fe2ae08a8e29253f69ac5d979a101956ab8f8d9d7ded63fa7a83b16fc47648eab052c63247e1f47db19d5ce0460030c497f067ca4cebf71ba98eeadabe20bace0352c63247e1f47db19d5ce0460030c497f067ca4cebf71ba98eeadabe20bace0052c63247e1f47db19d5ce0460030c497f067ca4cebf71ba98eeadabe20bace049016d09d72d40fdae2fd8ceac6b6234c7706214fd39c1cd1e609a0528c19930052c63247e1f47db19d5ce0460030c497f067ca4cebf71ba98eeadabe20bace020773e532dfede91f04b12a73d3d2acd361424f41f76b4fb79f090161e36b4e0046a2803e59a4de4e7a4c574b1243f25977ac4c77d5a1a4a609b5394cebb4a2aaa2646970667358221220ed85edda188c5248148b359bcf7f2f07eabe286a219ac7e3d97290d15deafe6964736f6c63430008180033","linkReferences":{}},"methodIdentifiers":{"UPGRADE_INTERFACE_VERSION()":"ad3cb1cc","allowance(address,address)":"dd62ed3e","approve(address,uint256)":"095ea7b3","asset()":"38d52e0f","balanceOf(address)":"70a08231","convertToAssets(uint256)":"07a2d13a","convertToShares(uint256)":"c6e6f592","decimals()":"313ce567","deposit(uint256,address)":"6e553f65","feeRecipient()":"46904840","initialize(address,address,address)":"c0c53b8b","maxDeposit(address)":"402d267d","maxMint(address)":"c63d75b6","maxRedeem(address)":"d905777e","maxWithdraw(address)":"ce96cb77","mint(uint256,address)":"94bf804d","name()":"06fdde03","owner()":"8da5cb5b","pause()":"8456cb59","paused()":"5c975abb","performanceFeeBps()":"b9d4e879","previewDeposit(uint256)":"ef8b30f7","previewMint(uint256)":"b3d7f6b9","previewRedeem(uint256)":"4cdad506","previewWithdraw(uint256)":"0a28a477","proxiableUUID()":"52d1902d","redeem(uint256,address,address)":"ba087652","renounceOwnership()":"715018a6","setFeeRecipient(address)":"e74b981b","setPerformanceFee(uint96)":"87451de6","symbol()":"95d89b41","totalAssets()":"01e1d114","totalSupply()":"18160ddd","transfer(address,uint256)":"a9059cbb","transferFrom(address,address,uint256)":"23b872dd","transferOwnership(address)":"f2fde38b","unpause()":"3f4ba83a","upgradeToAndCall(address,bytes)":"4f1ef286","withdraw(uint256,address,address)":"b460af94"},"id":3}