{"abi":[{"type":"constructor","inputs":[{"name":"admin","type":"address","internalType":"address"}],"stateMutability":"nonpayable"},{"type":"function","name":"DEFAULT_ADMIN_ROLE","inputs":[],"outputs":[{"name":"","type":"bytes32","internalType":"bytes32"}],"stateMutability":"view"},{"type":"function","name":"FEED_MANAGER_ROLE","inputs":[],"outputs":[{"name":"","type":"bytes32","internalType":"bytes32"}],"stateMutability":"view"},{"type":"function","name":"STALENESS_THRESHOLD","inputs":[],"outputs":[{"name":"","type":"uint256","internalType":"uint256"}],"stateMutability":"view"},{"type":"function","name":"feeds","inputs":[{"name":"asset","type":"address","internalType":"address"}],"outputs":[{"name":"feed","type":"address","internalType":"contract AggregatorV3Interface"}],"stateMutability":"view"},{"type":"function","name":"getPrice","inputs":[{"name":"asset","type":"address","internalType":"address"}],"outputs":[{"name":"price1e18","type":"uint256","internalType":"uint256"}],"stateMutability":"view"},{"type":"function","name":"getRoleAdmin","inputs":[{"name":"role","type":"bytes32","internalType":"bytes32"}],"outputs":[{"name":"","type":"bytes32","internalType":"bytes32"}],"stateMutability":"view"},{"type":"function","name":"grantRole","inputs":[{"name":"role","type":"bytes32","internalType":"bytes32"},{"name":"account","type":"address","internalType":"address"}],"outputs":[],"stateMutability":"nonpayable"},{"type":"function","name":"hasRole","inputs":[{"name":"role","type":"bytes32","internalType":"bytes32"},{"name":"account","type":"address","internalType":"address"}],"outputs":[{"name":"","type":"bool","internalType":"bool"}],"stateMutability":"view"},{"type":"function","name":"renounceRole","inputs":[{"name":"role","type":"bytes32","internalType":"bytes32"},{"name":"callerConfirmation","type":"address","internalType":"address"}],"outputs":[],"stateMutability":"nonpayable"},{"type":"function","name":"revokeRole","inputs":[{"name":"role","type":"bytes32","internalType":"bytes32"},{"name":"account","type":"address","internalType":"address"}],"outputs":[],"stateMutability":"nonpayable"},{"type":"function","name":"setFeed","inputs":[{"name":"asset","type":"address","internalType":"address"},{"name":"feed","type":"address","internalType":"address"}],"outputs":[],"stateMutability":"nonpayable"},{"type":"function","name":"supportsInterface","inputs":[{"name":"interfaceId","type":"bytes4","internalType":"bytes4"}],"outputs":[{"name":"","type":"bool","internalType":"bool"}],"stateMutability":"view"},{"type":"event","name":"FeedSet","inputs":[{"name":"asset","type":"address","indexed":true,"internalType":"address"},{"name":"feed","type":"address","indexed":true,"internalType":"address"}],"anonymous":false},{"type":"event","name":"RoleAdminChanged","inputs":[{"name":"role","type":"bytes32","indexed":true,"internalType":"bytes32"},{"name":"previousAdminRole","type":"bytes32","indexed":true,"internalType":"bytes32"},{"name":"newAdminRole","type":"bytes32","indexed":true,"internalType":"bytes32"}],"anonymous":false},{"type":"event","name":"RoleGranted","inputs":[{"name":"role","type":"bytes32","indexed":true,"internalType":"bytes32"},{"name":"account","type":"address","indexed":true,"internalType":"address"},{"name":"sender","type":"address","indexed":true,"internalType":"address"}],"anonymous":false},{"type":"event","name":"RoleRevoked","inputs":[{"name":"role","type":"bytes32","indexed":true,"internalType":"bytes32"},{"name":"account","type":"address","indexed":true,"internalType":"address"},{"name":"sender","type":"address","indexed":true,"internalType":"address"}],"anonymous":false},{"type":"error","name":"AccessControlBadConfirmation","inputs":[]},{"type":"error","name":"AccessControlUnauthorizedAccount","inputs":[{"name":"account","type":"address","internalType":"address"},{"name":"neededRole","type":"bytes32","internalType":"bytes32"}]},{"type":"error","name":"FeedNotSet","inputs":[{"name":"asset","type":"address","internalType":"address"}]},{"type":"error","name":"IncompleteRound","inputs":[{"name":"roundId","type":"uint80","internalType":"uint80"},{"name":"answeredInRound","type":"uint80","internalType":"uint80"}]},{"type":"error","name":"InvalidPrice","inputs":[{"name":"answer","type":"int256","internalType":"int256"}]},{"type":"error","name":"StalePrice","inputs":[{"name":"updatedAt","type":"uint256","internalType":"uint256"},{"name":"nowTs","type":"uint256","internalType":"uint256"}]}],"bytecode":{"object":"0x60803461007257601f6109ec38819003918201601f19168301916001600160401b038311848410176100765780849260209460405283398101031261007257516001600160a01b0381168103610072578061005c6100629261008a565b506100f6565b5060405161081790816101958239f35b5f80fd5b634e487b7160e01b5f52604160045260245ffd5b6001600160a01b03165f8181525f805160206109cc833981519152602052604090205460ff166100f1575f8181525f805160206109cc83398151915260205260408120805460ff191660011790553391905f805160206109ac8339815191528180a4600190565b505f90565b6001600160a01b03165f8181527f51ff18b21c447e105ebe7f1df018a6388f6b0b95b88884a053f40188c31af6b160205260409020547fddbe48f52bb812894c8051224ff4457244fc2b78c8caa3e39179c65d4b6de412919060ff1661018e57815f525f60205260405f20815f5260205260405f20600160ff1982541617905533915f805160206109ac8339815191525f80a4600190565b50505f9056fe6080604081815260049182361015610015575f80fd5b5f3560e01c90816301ffc9a7146105c457508063248a9ca31461059b5780632f2ff15d146105735780632fba4aa91461053a57806336568abe146104f657806340b1eb101461042357806341976e09146101945780637215b0bf1461017857806391d148541461013557806398e39360146100fb578063a217fddf146100e15763d547741f146100a3575f80fd5b346100dd57806003193601126100dd576100db91356100d660016100c5610616565b93835f525f6020525f2001546106b4565b61076f565b005b5f80fd5b50346100dd575f3660031901126100dd57602090515f8152f35b50346100dd575f3660031901126100dd57602090517fddbe48f52bb812894c8051224ff4457244fc2b78c8caa3e39179c65d4b6de4128152f35b50346100dd57806003193601126100dd57602091610151610616565b90355f525f8352815f209060018060a01b03165f52825260ff815f20541690519015158152f35b50346100dd575f3660031901126100dd5760209051610e108152f35b50346100dd57602091826003193601126100dd576101b061062c565b6001600160a01b039081165f81815260018652849020549091169190821561040d57508251633fabe5a360e21b81529160a0838381845afa92831561034c575f935f945f925f926103b8575b505f8613156103a15769ffffffffffffffffffff918216911680821061038557505080420342811161037257610e1010610356575084829185519283809263313ce56760e01b82525afa801561034c575f90610314575b60ff16905060128110156102b55760120360ff81116102a2576102759061068f565b9182810292818404149015171561028f5750905b51908152f35b601190634e487b7160e01b5f525260245ffd5b601182634e487b7160e01b5f525260245ffd5b909190601281111561030b576011190160ff81116102f8576102d69061068f565b9182156102e557500490610289565b601290634e487b7160e01b5f525260245ffd5b601183634e487b7160e01b5f525260245ffd5b50905090610289565b508481813d8311610345575b61032a8183610642565b810103126100dd575160ff811681036100dd5760ff90610253565b503d610320565b84513d5f823e3d90fd5b826044918651916304e61d6960e31b8352820152426024820152fd5b601184634e487b7160e01b5f525260245ffd5b604491859188519263014382d760e01b84528301526024820152fd5b86516338ee04a760e01b8152808601879052602490fd5b955050505060a0833d60a011610405575b816103d660a09383610642565b810103126100dd576103e783610678565b858401516103fc608060608701519601610678565b9094915f6101fc565b3d91506103c9565b8351630dcaf86b60e01b81529182015260249150fd5b50346100dd57806003193601126100dd5761043c61062c565b91610445610616565b907fddbe48f52bb812894c8051224ff4457244fc2b78c8caa3e39179c65d4b6de412805f525f602052835f20335f5260205260ff845f205416156104d957505060018060a01b03809116921690815f5260016020525f20826bffffffffffffffffffffffff60a01b8254161790557f3206e79c8cb385b303820bc579358c388d2f7539de2fa2f24644faf6bd0354d15f80a3005b6044925083519163e2517d3f60e01b835233908301526024820152fd5b50346100dd57806003193601126100dd5761050f610616565b90336001600160a01b0383160361052b57506100db913561076f565b5163334bd91960e11b81529050fd5b50346100dd5760203660031901126100dd576020906001600160a01b038061056061062c565b165f5260018352815f2054169051908152f35b50346100dd57806003193601126100dd576100db913561059660016100c5610616565b6106f3565b50346100dd5760203660031901126100dd57602091355f525f82526001815f2001549051908152f35b83346100dd5760203660031901126100dd57359063ffffffff60e01b82168092036100dd57602091637965db0b60e01b8114908115610605575b5015158152f35b6301ffc9a760e01b149050836105fe565b602435906001600160a01b03821682036100dd57565b600435906001600160a01b03821682036100dd57565b90601f8019910116810190811067ffffffffffffffff82111761066457604052565b634e487b7160e01b5f52604160045260245ffd5b519069ffffffffffffffffffff821682036100dd57565b60ff16604d81116106a057600a0a90565b634e487b7160e01b5f52601160045260245ffd5b805f525f60205260405f20335f5260205260ff60405f205416156106d55750565b6044906040519063e2517d3f60e01b82523360048301526024820152fd5b90815f525f60205260405f209060018060a01b031690815f5260205260ff60405f205416155f1461076957815f525f60205260405f20815f5260205260405f20600160ff1982541617905533917f2f8788117e7eff1d82e926ec794901d17c78024a50270940304540a733656f0d5f80a4600190565b50505f90565b90815f525f60205260405f209060018060a01b031690815f5260205260ff60405f2054165f1461076957815f525f60205260405f20815f5260205260405f2060ff19815416905533917ff6391f5c32d9c69d2a47ea670b442974b53935d1edc7fd64eb21e047a839171b5f80a460019056fea264697066735822122018a4f77418324f4e476c1b8e640131ab1d74205111eac64e338f35aa1cd4085664736f6c634300081800332f8788117e7eff1d82e926ec794901d17c78024a50270940304540a733656f0dad3228b676f7d3cd4284a5443f17f1962b36e491b30a40b2405849e597ba5fb5","linkReferences":{}},"methodIdentifiers":{"DEFAULT_ADMIN_ROLE()":"a217fddf","FEED_MANAGER_ROLE()":"98e39360","STALENESS_THRESHOLD()":"7215b0bf","feeds(address)":"2fba4aa9","getPrice(address)":"41976e09","getRoleAdmin(bytes32)":"248a9ca3","grantRole(bytes32,address)":"2f2ff15d","hasRole(bytes32,address)":"91d14854","renounceRole(bytes32,address)":"36568abe","revokeRole(bytes32,address)":"d547741f","setFeed(address,address)":"40b1eb10","supportsInterface(bytes4)":"01ffc9a7"},"id":9}