{"abi":[{"type":"constructor","inputs":[],"stateMutability":"nonpayable"},{"type":"function","name":"UPGRADE_INTERFACE_VERSION","inputs":[],"outputs":[{"name":"","type":"string","internalType":"string"}],"stateMutability":"view"},{"type":"function","name":"allowance","inputs":[{"name":"owner","type":"address","internalType":"address"},{"name":"spender","type":"address","internalType":"address"}],"outputs":[{"name":"","type":"uint256","internalType":"uint256"}],"stateMutability":"view"},{"type":"function","name":"approve","inputs":[{"name":"spender","type":"address","internalType":"address"},{"name":"value","type":"uint256","internalType":"uint256"}],"outputs":[{"name":"","type":"bool","internalType":"bool"}],"stateMutability":"nonpayable"},{"type":"function","name":"asset","inputs":[],"outputs":[{"name":"","type":"address","internalType":"address"}],"stateMutability":"view"},{"type":"function","name":"balanceOf","inputs":[{"name":"account","type":"address","internalType":"address"}],"outputs":[{"name":"","type":"uint256","internalType":"uint256"}],"stateMutability":"view"},{"type":"function","name":"convertToAssets","inputs":[{"name":"shares","type":"uint256","internalType":"uint256"}],"outputs":[{"name":"","type":"uint256","internalType":"uint256"}],"stateMutability":"view"},{"type":"function","name":"convertToShares","inputs":[{"name":"assets","type":"uint256","internalType":"uint256"}],"outputs":[{"name":"","type":"uint256","internalType":"uint256"}],"stateMutability":"view"},{"type":"function","name":"decimals","inputs":[],"outputs":[{"name":"","type":"uint8","internalType":"uint8"}],"stateMutability":"view"},{"type":"function","name":"deposit","inputs":[{"name":"assets","type":"uint256","internalType":"uint256"},{"name":"receiver","type":"address","internalType":"address"}],"outputs":[{"name":"","type":"uint256","internalType":"uint256"}],"stateMutability":"nonpayable"},{"type":"function","name":"feeRecipient","inputs":[],"outputs":[{"name":"","type":"address","internalType":"address"}],"stateMutability":"view"},{"type":"function","name":"initialize","inputs":[{"name":"asset_","type":"address","internalType":"contract IERC20"},{"name":"owner_","type":"address","internalType":"address"},{"name":"feeRecipient_","type":"address","internalType":"address"}],"outputs":[],"stateMutability":"nonpayable"},{"type":"function","name":"maxDeposit","inputs":[{"name":"","type":"address","internalType":"address"}],"outputs":[{"name":"","type":"uint256","internalType":"uint256"}],"stateMutability":"view"},{"type":"function","name":"maxMint","inputs":[{"name":"","type":"address","internalType":"address"}],"outputs":[{"name":"","type":"uint256","internalType":"uint256"}],"stateMutability":"view"},{"type":"function","name":"maxRedeem","inputs":[{"name":"owner","type":"address","internalType":"address"}],"outputs":[{"name":"","type":"uint256","internalType":"uint256"}],"stateMutability":"view"},{"type":"function","name":"maxWithdraw","inputs":[{"name":"owner","type":"address","internalType":"address"}],"outputs":[{"name":"","type":"uint256","internalType":"uint256"}],"stateMutability":"view"},{"type":"function","name":"mint","inputs":[{"name":"shares","type":"uint256","internalType":"uint256"},{"name":"receiver","type":"address","internalType":"address"}],"outputs":[{"name":"","type":"uint256","internalType":"uint256"}],"stateMutability":"nonpayable"},{"type":"function","name":"name","inputs":[],"outputs":[{"name":"","type":"string","internalType":"string"}],"stateMutability":"view"},{"type":"function","name":"owner","inputs":[],"outputs":[{"name":"","type":"address","internalType":"address"}],"stateMutability":"view"},{"type":"function","name":"pause","inputs":[],"outputs":[],"stateMutability":"nonpayable"},{"type":"function","name":"paused","inputs":[],"outputs":[{"name":"","type":"bool","internalType":"bool"}],"stateMutability":"view"},{"type":"function","name":"performanceFeeBps","inputs":[],"outputs":[{"name":"","type":"uint96","internalType":"uint96"}],"stateMutability":"view"},{"type":"function","name":"previewDeposit","inputs":[{"name":"assets","type":"uint256","internalType":"uint256"}],"outputs":[{"name":"","type":"uint256","internalType":"uint256"}],"stateMutability":"view"},{"type":"function","name":"previewMint","inputs":[{"name":"shares","type":"uint256","internalType":"uint256"}],"outputs":[{"name":"","type":"uint256","internalType":"uint256"}],"stateMutability":"view"},{"type":"function","name":"previewRedeem","inputs":[{"name":"shares","type":"uint256","internalType":"uint256"}],"outputs":[{"name":"","type":"uint256","internalType":"uint256"}],"stateMutability":"view"},{"type":"function","name":"previewWithdraw","inputs":[{"name":"assets","type":"uint256","internalType":"uint256"}],"outputs":[{"name":"","type":"uint256","internalType":"uint256"}],"stateMutability":"view"},{"type":"function","name":"proxiableUUID","inputs":[],"outputs":[{"name":"","type":"bytes32","internalType":"bytes32"}],"stateMutability":"view"},{"type":"function","name":"redeem","inputs":[{"name":"shares","type":"uint256","internalType":"uint256"},{"name":"receiver","type":"address","internalType":"address"},{"name":"owner","type":"address","internalType":"address"}],"outputs":[{"name":"","type":"uint256","internalType":"uint256"}],"stateMutability":"nonpayable"},{"type":"function","name":"renounceOwnership","inputs":[],"outputs":[],"stateMutability":"nonpayable"},{"type":"function","name":"setFeeRecipient","inputs":[{"name":"recipient","type":"address","internalType":"address"}],"outputs":[],"stateMutability":"nonpayable"},{"type":"function","name":"setPerformanceFee","inputs":[{"name":"bps","type":"uint96","internalType":"uint96"}],"outputs":[],"stateMutability":"nonpayable"},{"type":"function","name":"symbol","inputs":[],"outputs":[{"name":"","type":"string","internalType":"string"}],"stateMutability":"view"},{"type":"function","name":"totalAssets","inputs":[],"outputs":[{"name":"","type":"uint256","internalType":"uint256"}],"stateMutability":"view"},{"type":"function","name":"totalSupply","inputs":[],"outputs":[{"name":"","type":"uint256","internalType":"uint256"}],"stateMutability":"view"},{"type":"function","name":"transfer","inputs":[{"name":"to","type":"address","internalType":"address"},{"name":"value","type":"uint256","internalType":"uint256"}],"outputs":[{"name":"","type":"bool","internalType":"bool"}],"stateMutability":"nonpayable"},{"type":"function","name":"transferFrom","inputs":[{"name":"from","type":"address","internalType":"address"},{"name":"to","type":"address","internalType":"address"},{"name":"value","type":"uint256","internalType":"uint256"}],"outputs":[{"name":"","type":"bool","internalType":"bool"}],"stateMutability":"nonpayable"},{"type":"function","name":"transferOwnership","inputs":[{"name":"newOwner","type":"address","internalType":"address"}],"outputs":[],"stateMutability":"nonpayable"},{"type":"function","name":"unpause","inputs":[],"outputs":[],"stateMutability":"nonpayable"},{"type":"function","name":"upgradeToAndCall","inputs":[{"name":"newImplementation","type":"address","internalType":"address"},{"name":"data","type":"bytes","internalType":"bytes"}],"outputs":[],"stateMutability":"payable"},{"type":"function","name":"withdraw","inputs":[{"name":"assets","type":"uint256","internalType":"uint256"},{"name":"receiver","type":"address","internalType":"address"},{"name":"owner","type":"address","internalType":"address"}],"outputs":[{"name":"","type":"uint256","internalType":"uint256"}],"stateMutability":"nonpayable"},{"type":"event","name":"Approval","inputs":[{"name":"owner","type":"address","indexed":true,"internalType":"address"},{"name":"spender","type":"address","indexed":true,"internalType":"address"},{"name":"value","type":"uint256","indexed":false,"internalType":"uint256"}],"anonymous":false},{"type":"event","name":"Deposit","inputs":[{"name":"sender","type":"address","indexed":true,"internalType":"address"},{"name":"owner","type":"address","indexed":true,"internalType":"address"},{"name":"assets","type":"uint256","indexed":false,"internalType":"uint256"},{"name":"shares","type":"uint256","indexed":false,"internalType":"uint256"}],"anonymous":false},{"type":"event","name":"FeeRecipientChanged","inputs":[{"name":"newRecipient","type":"address","indexed":true,"internalType":"address"}],"anonymous":false},{"type":"event","name":"Initialized","inputs":[{"name":"version","type":"uint64","indexed":false,"internalType":"uint64"}],"anonymous":false},{"type":"event","name":"OwnershipTransferred","inputs":[{"name":"previousOwner","type":"address","indexed":true,"internalType":"address"},{"name":"newOwner","type":"address","indexed":true,"internalType":"address"}],"anonymous":false},{"type":"event","name":"Paused","inputs":[{"name":"account","type":"address","indexed":false,"internalType":"address"}],"anonymous":false},{"type":"event","name":"PerformanceFeeChanged","inputs":[{"name":"newBps","type":"uint96","indexed":false,"internalType":"uint96"}],"anonymous":false},{"type":"event","name":"Transfer","inputs":[{"name":"from","type":"address","indexed":true,"internalType":"address"},{"name":"to","type":"address","indexed":true,"internalType":"address"},{"name":"value","type":"uint256","indexed":false,"internalType":"uint256"}],"anonymous":false},{"type":"event","name":"Unpaused","inputs":[{"name":"account","type":"address","indexed":false,"internalType":"address"}],"anonymous":false},{"type":"event","name":"Upgraded","inputs":[{"name":"implementation","type":"address","indexed":true,"internalType":"address"}],"anonymous":false},{"type":"event","name":"Withdraw","inputs":[{"name":"sender","type":"address","indexed":true,"internalType":"address"},{"name":"receiver","type":"address","indexed":true,"internalType":"address"},{"name":"owner","type":"address","indexed":true,"internalType":"address"},{"name":"assets","type":"uint256","indexed":false,"internalType":"uint256"},{"name":"shares","type":"uint256","indexed":false,"internalType":"uint256"}],"anonymous":false},{"type":"error","name":"AddressEmptyCode","inputs":[{"name":"target","type":"address","internalType":"address"}]},{"type":"error","name":"ERC1967InvalidImplementation","inputs":[{"name":"implementation","type":"address","internalType":"address"}]},{"type":"error","name":"ERC1967NonPayable","inputs":[]},{"type":"error","name":"ERC20InsufficientAllowance","inputs":[{"name":"spender","type":"address","internalType":"address"},{"name":"allowance","type":"uint256","internalType":"uint256"},{"name":"needed","type":"uint256","internalType":"uint256"}]},{"type":"error","name":"ERC20InsufficientBalance","inputs":[{"name":"sender","type":"address","internalType":"address"},{"name":"balance","type":"uint256","internalType":"uint256"},{"name":"needed","type":"uint256","internalType":"uint256"}]},{"type":"error","name":"ERC20InvalidApprover","inputs":[{"name":"approver","type":"address","internalType":"address"}]},{"type":"error","name":"ERC20InvalidReceiver","inputs":[{"name":"receiver","type":"address","internalType":"address"}]},{"type":"error","name":"ERC20InvalidSender","inputs":[{"name":"sender","type":"address","internalType":"address"}]},{"type":"error","name":"ERC20InvalidSpender","inputs":[{"name":"spender","type":"address","internalType":"address"}]},{"type":"error","name":"ERC4626ExceededMaxDeposit","inputs":[{"name":"receiver","type":"address","internalType":"address"},{"name":"assets","type":"uint256","internalType":"uint256"},{"name":"max","type":"uint256","internalType":"uint256"}]},{"type":"error","name":"ERC4626ExceededMaxMint","inputs":[{"name":"receiver","type":"address","internalType":"address"},{"name":"shares","type":"uint256","internalType":"uint256"},{"name":"max","type":"uint256","internalType":"uint256"}]},{"type":"error","name":"ERC4626ExceededMaxRedeem","inputs":[{"name":"owner","type":"address","internalType":"address"},{"name":"shares","type":"uint256","internalType":"uint256"},{"name":"max","type":"uint256","internalType":"uint256"}]},{"type":"error","name":"ERC4626ExceededMaxWithdraw","inputs":[{"name":"owner","type":"address","internalType":"address"},{"name":"assets","type":"uint256","internalType":"uint256"},{"name":"max","type":"uint256","internalType":"uint256"}]},{"type":"error","name":"EnforcedPause","inputs":[]},{"type":"error","name":"ExpectedPause","inputs":[]},{"type":"error","name":"FailedCall","inputs":[]},{"type":"error","name":"InvalidFee","inputs":[{"name":"bps","type":"uint96","internalType":"uint96"}]},{"type":"error","name":"InvalidInitialization","inputs":[]},{"type":"error","name":"NotInitializing","inputs":[]},{"type":"error","name":"OwnableInvalidOwner","inputs":[{"name":"owner","type":"address","internalType":"address"}]},{"type":"error","name":"OwnableUnauthorizedAccount","inputs":[{"name":"account","type":"address","internalType":"address"}]},{"type":"error","name":"SafeERC20FailedOperation","inputs":[{"name":"token","type":"address","internalType":"address"}]},{"type":"error","name":"UUPSUnauthorizedCallContext","inputs":[]},{"type":"error","name":"UUPSUnsupportedProxiableUUID","inputs":[{"name":"slot","type":"bytes32","internalType":"bytes32"}]}],"bytecode":{"object":"0x60a080604052346100cc57306080527ff0c57e16840df040f15088dc2f81fe391c3923bec73e23a9662efc9c229c6a009081549060ff8260401c166100bd57506001600160401b036002600160401b031982821601610078575b604051611e4490816100d18239608051818181610dd40152610ec00152f35b6001600160401b031990911681179091556040519081527fc7f505b2f371ae2175ee4913f4499e1f2633a7b5936321eed1cdaeb6115181d290602090a15f8080610059565b63f92ee8a960e01b8152600490fd5b5f80fdfe60806040526004361015610011575f80fd5b5f3560e01c806301e1d1141461138457806306fdde03146112d257806307a2d13a1461106a578063095ea7b3146112235780630a28a4771461120557806318160ddd146111dc57806323b872dd146111a4578063313ce5671461115257806338d52e0f1461111e5780633f4ba83a14611096578063402d267d146102f7578063469048401461106f5780634cdad5061461106a5780634f1ef28614610e3e57806352d1902d14610dc25780635c975abb14610d815780636e553f6514610d4e57806370a08231146102a6578063715018a614610ce75780638456cb5914610c5c57806387451de614610bb75780638da5cb5b14610b8357806394bf804d14610b5057806395d89b4114610a51578063a9059cbb14610a20578063ad3cb1cc146109df578063b3d7f6b9146109c1578063b460af9414610951578063b9d4e87914610932578063ba087652146108c5578063c0c53b8b146102fc578063c63d75b6146102f7578063c6e6f592146101f5578063ce96cb77146102d1578063d905777e146102a6578063dd62ed3e1461025f578063e74b981b146101fa578063ef8b30f7146101f55763f2fde38b146101c6575f80fd5b346101f15760203660031901126101f1576101ef6101e2611403565b6101ea6118e4565b6115fe565b005b5f80fd5b6114c7565b346101f15760203660031901126101f157610213611403565b61021b6118e4565b5f80546001600160a01b0319166001600160a01b039290921691821781557f167cccccc6e9b2892a740ec13fc1e51d3de8ea384f25bd87fee7412d588637e29080a2005b346101f15760403660031901126101f157610278611403565b610289610283611419565b916115a0565b9060018060a01b03165f52602052602060405f2054604051908152f35b346101f15760203660031901126101f15760206102c96102c4611403565b6115d8565b604051908152f35b346101f15760203660031901126101f15760206102c96102f26102c4611403565b6116b8565b61142f565b346101f15760603660031901126101f1576004356001600160a01b0380821682036101f157610329611419565b60443582811681036101f1577ff0c57e16840df040f15088dc2f81fe391c3923bec73e23a9662efc9c229c6a009283549267ffffffffffffffff8416801590816108b5575b60011490816108ab575b1590816108a2575b5061089057600167ffffffffffffffff19851617855560ff8460401c1615610871575b604051956103b087611454565b6012875271105c985b1e5cc8165a595b190815985d5b1d60721b6020880152604051966103dc88611454565b60058852647941524c5960d81b60208901526103f6611c02565b6103fe611c02565b80519067ffffffffffffffff82116107395781906104295f80516020611d6f83398151915254611568565b601f81116107f7575b50602090601f8311600114610758575f9261074d575b50508160011b915f199060031b1c1916175f80516020611d6f833981519152555b865167ffffffffffffffff8111610739577f52c63247e1f47db19d5ce0460030c497f067ca4cebf71ba98eeadabe20bace04906104a68254611568565b601f81116106d7575b506020601f821160011461064e57908061057c9594939260ff9a9b5f92610643575b50508160011b915f199060031b1c19161790555b6104ed611c02565b6104f5611c02565b60405160405f6020830163313ce56760e01b81526004845261051684611454565b8351908886165afa5f519160405280610638575b8061062e575b1561062657871660015b1561061e575b5f80516020611def833981519152805492861691891660a01b6001600160a81b031990931692909217179055610574611c02565b6101ea611c02565b610584611c02565b6001604051602081017f8f512fdee3b85f154acf5e55718dc6e140c9380a285506f24acf32d35df083ce8152602082526105bd82611454565b86199151902016556105cd611c02565b16607d60a31b175f5560401c16156105e157005b68ff00000000000000001981541690557fc7f505b2f371ae2175ee4913f4499e1f2633a7b5936321eed1cdaeb6115181d2602060405160018152a1005b506012610540565b505f8061053a565b5087811115610530565b5060203d101561052a565b015190508b806104d1565b601f19821699835f527f46a2803e59a4de4e7a4c574b1243f25977ac4c77d5a1a4a609b5394cebb4a2aa9a5f5b8181106106bf57509a600192849261057c9897969560ff9d9e106106a7575b505050811b0190556104e5565b01515f1960f88460031b161c191690558b808061069a565b838301518d556001909c019b6020938401930161067b565b825f527f46a2803e59a4de4e7a4c574b1243f25977ac4c77d5a1a4a609b5394cebb4a2aa601f830160051c8101916020841061072f575b601f0160051c01905b81811061072457506104af565b5f8155600101610717565b909150819061070e565b634e487b7160e01b5f52604160045260245ffd5b015190508980610448565b92505f80516020611d6f8339815191525f527f2ae08a8e29253f69ac5d979a101956ab8f8d9d7ded63fa7a83b16fc47648eab0905f935b601f19841685106107dc576001945083601f198116106107c4575b505050811b015f80516020611d6f83398151915255610469565b01515f1960f88460031b161c191690558980806107aa565b8181015183556020948501946001909301929091019061078f565b9091505f80516020611d6f8339815191525f527f2ae08a8e29253f69ac5d979a101956ab8f8d9d7ded63fa7a83b16fc47648eab0601f840160051c81019160208510610867575b90601f859493920160051c01905b8181106108595750610432565b5f815584935060010161084c565b909150819061083e565b68ffffffffffffffffff198416680100000000000000011785556103a3565b60405163f92ee8a960e01b8152600490fd5b90501587610380565b303b159150610378565b604086901c60ff1615915061036e565b346101f1576108d336611492565b906108dd826115d8565b8084116108fe5750826102c9916108f56020956116b8565b93849133611a62565b604051632e52afbb60e21b81526001600160a01b039390931660048401526024830193909352506044810191909152606490fd5b346101f1575f3660031901126101f15760205f5460a01c604051908152f35b346101f15761095f36611492565b9061096c6102f2836115d8565b80841161098d57506102c990836109846020956116f1565b93849233611a62565b604051633fa733bb60e21b81526001600160a01b039390931660048401526024830193909352506044810191909152606490fd5b346101f15760203660031901126101f15760206102c960043561167c565b346101f1575f3660031901126101f157610a1c6040516109fe81611454565b60058152640352e302e360dc1b60208201526040519182918261139e565b0390f35b346101f15760403660031901126101f157610a46610a3c611403565b60243590336117fb565b602060405160018152f35b346101f1575f3660031901126101f1576040515f7f52c63247e1f47db19d5ce0460030c497f067ca4cebf71ba98eeadabe20bace04805490610a9282611568565b80855291602091600191828116908115610b235750600114610acb575b610a1c86610abf81880382611470565b6040519182918261139e565b5f90815293507f46a2803e59a4de4e7a4c574b1243f25977ac4c77d5a1a4a609b5394cebb4a2aa5b838510610b1057505050508101602001610abf82610a1c85610aaf565b8054868601840152938201938101610af3565b9050869550610a1c96935060209250610abf94915060ff191682840152151560051b820101929385610aaf565b346101f15760403660031901126101f15760206004356102c9610b71611419565b91610b7b8161167c565b80933361191c565b346101f1575f3660031901126101f1575f80516020611daf833981519152546040516001600160a01b039091168152602090f35b346101f15760203660031901126101f1576004356bffffffffffffffffffffffff8116908181036101f157610bea6118e4565b6107d08211610c43575f80546001600160a01b031660a09290921b6001600160a01b0319169190911790556040519081527f627daa270e4d2b7e3c44730b3e6c316182b046ec2a0fa55c97ff97abb574066e90602090a1005b60405163e3c1d40760e01b815260048101839052602490fd5b346101f1575f3660031901126101f157610c746118e4565b7fcd5ed15c6e187e77e9aee88184c21f4f2182ab5827cb3b7e07fbedcd63f03300805460ff8116610cd55760019060ff19161790557f62e78cea01bee320cd4e420270b5ea74000d11b0c9f74754ebdbfc544b05a2586020604051338152a1005b60405163d93c066560e01b8152600490fd5b346101f1575f3660031901126101f157610cff6118e4565b5f80516020611daf83398151915280546001600160a01b031981169091555f906001600160a01b03167f8be0079c531659141344cd1fd0a4f28419497f9722a3daafe3b4186f6b6457e08280a3005b346101f15760403660031901126101f15760206004356102c9610d6f611419565b610d788361172a565b9283913361191c565b346101f1575f3660031901126101f157602060ff7fcd5ed15c6e187e77e9aee88184c21f4f2182ab5827cb3b7e07fbedcd63f0330054166040519015158152f35b346101f1575f3660031901126101f1577f00000000000000000000000000000000000000000000000000000000000000006001600160a01b03163003610e2c5760206040517f360894a13ba1a3210667c828492db98dca3e2076cc3735a920a3ca505d382bbc8152f35b60405163703e46dd60e11b8152600490fd5b60403660031901126101f157610e52611403565b602490813567ffffffffffffffff918282116101f157366023830112156101f15781600401359283116110575760209260405192610e9985601f19601f8501160185611470565b818452368683830101116101f157815f928787930183870137840101526001600160a01b037f00000000000000000000000000000000000000000000000000000000000000008116308114908115611029575b50610e2c57610ef96118e4565b6040516352d1902d60e01b8152908216938082600481885afa9182915f93610ff9575b5050610f3a5750505060405190634c9c8ce360e01b82526004820152fd5b847f360894a13ba1a3210667c828492db98dca3e2076cc3735a920a3ca505d382bbc91828103610fe45750823b15610fce575080546001600160a01b03191684179055604051927fbc7cd75a20ee27fd9adebab32041f755214dbc6bffa90cc0225b39da2e5c2d3b5f80a2815115610fb6576101ef9250611cdd565b505034610fbf57005b63b398979f60e01b8152600490fd5b604051634c9c8ce360e01b815260048101869052fd5b60405190632a87526960e21b82526004820152fd5b9080929350813d8311611022575b6110118183611470565b810103126101f15751908680610f1c565b503d611007565b9050817f360894a13ba1a3210667c828492db98dca3e2076cc3735a920a3ca505d382bbc5416141586610eec565b83634e487b7160e01b5f5260416004525ffd5b6113e5565b346101f1575f3660031901126101f1575f546040516001600160a01b039091168152602090f35b346101f1575f3660031901126101f1576110ae6118e4565b7fcd5ed15c6e187e77e9aee88184c21f4f2182ab5827cb3b7e07fbedcd63f03300805460ff81161561110c5760ff191690557f5db9ee0a495bf2e6ff9c91a7834c1ba4fdd244a5e8aa4e537bd38aeae4b073aa6020604051338152a1005b604051638dfc202b60e01b8152600490fd5b346101f1575f3660031901126101f1575f80516020611def833981519152546040516001600160a01b039091168152602090f35b346101f1575f3660031901126101f157600660ff5f80516020611def8339815191525460a01c160160ff81116111905760209060ff60405191168152f35b634e487b7160e01b5f52601160045260245ffd5b346101f15760603660031901126101f157610a466111c0611403565b6111c8611419565b604435916111d7833383611763565b6117fb565b346101f1575f3660031901126101f15760205f80516020611dcf83398151915254604051908152f35b346101f15760203660031901126101f15760206102c96004356116f1565b346101f15760403660031901126101f15761123c611403565b6024359033156112ba576001600160a01b03169081156112a25761125f336115a0565b825f526020528060405f20556040519081527f8c5be1e5ebec7d5bd14f71427d1e84f3dd0314c0f7b2291e5b200ac8c7c3b92560203392a3602060405160018152f35b604051634a1406b160e11b81525f6004820152602490fd5b60405163e602df0560e01b81525f6004820152602490fd5b346101f1575f3660031901126101f1576040515f5f80516020611d6f83398151915280549061130082611568565b80855291602091600191828116908115610b23575060011461132c57610a1c86610abf81880382611470565b5f90815293507f2ae08a8e29253f69ac5d979a101956ab8f8d9d7ded63fa7a83b16fc47648eab05b83851061137157505050508101602001610abf82610a1c85610aaf565b8054868601840152938201938101611354565b346101f1575f3660031901126101f15760206102c96114e5565b602080825282518183018190529093925f5b8281106113d157505060409293505f838284010152601f8019910116010190565b8181018601518482016040015285016113b0565b346101f15760203660031901126101f15760206102c96004356116b8565b600435906001600160a01b03821682036101f157565b602435906001600160a01b03821682036101f157565b346101f15760203660031901126101f157611448611403565b5060206040515f198152f35b6040810190811067ffffffffffffffff82111761073957604052565b90601f8019910116810190811067ffffffffffffffff82111761073957604052565b60609060031901126101f157600435906001600160a01b039060243582811681036101f1579160443590811681036101f15790565b346101f15760203660031901126101f15760206102c960043561172a565b5f80516020611def833981519152546040516370a0823160e01b815230600482015290602090829060249082906001600160a01b03165afa90811561155d575f9161152e575090565b90506020813d602011611555575b8161154960209383611470565b810103126101f1575190565b3d915061153c565b6040513d5f823e3d90fd5b90600182811c92168015611596575b602083101461158257565b634e487b7160e01b5f52602260045260245ffd5b91607f1691611577565b6001600160a01b03165f9081527f52c63247e1f47db19d5ce0460030c497f067ca4cebf71ba98eeadabe20bace016020526040902090565b6001600160a01b03165f9081525f80516020611d8f833981519152602052604090205490565b6001600160a01b03908116908115611657575f80516020611daf83398151915280546001600160a01b031981168417909155167f8be0079c531659141344cd1fd0a4f28419497f9722a3daafe3b4186f6b6457e05f80a3565b604051631e4fbdf760e01b81525f6004820152602490fd5b9190820180921161119057565b6116846114e5565b60018101809111611190575f80516020611dcf8339815191525490620f42408201809211611190576116b592611bce565b90565b6116c06114e5565b60018101809111611190575f80516020611dcf8339815191525490620f42408201809211611190576116b592611c43565b5f80516020611dcf83398151915254620f42408101809111611190576117156114e5565b9060018201809211611190576116b592611bce565b5f80516020611dcf83398151915254620f424081018091116111905761174e6114e5565b9060018201809211611190576116b592611c43565b61176c816115a0565b9060018060a01b0380841692835f5260205260405f2054935f198510611795575b505050505050565b8585106117ca57508116156112ba5781156112a2576117b3906115a0565b905f526020520360405f20555f808080808061178d565b604051637dc7a0d960e11b81526001600160a01b039190911660048201526024810185905260448101869052606490fd5b916001600160a01b038084169283156118cc57169283156118b457825f525f80516020611d8f8339815191528060205260405f205491838310611881575091806020927fddf252ad1be2c89b69c2b068fc378daa952ba7f163c4a11628f55a4df523b3ef94865f5284520360405f2055845f5260405f20818154019055604051908152a3565b60405163391434e360e21b81526001600160a01b0391909116600482015260248101929092525060448101829052606490fd5b60405163ec442f0560e01b81525f6004820152602490fd5b604051634b637e8f60e11b81525f6004820152602490fd5b5f80516020611daf833981519152546001600160a01b0316330361190457565b60405163118cdaa760e01b8152336004820152602490fd5b909160018060a01b03805f80516020611def833981519152541693604093828551916323b872dd60e01b5f52169586600452306024528460445260205f60648180855af160015f5114811615611a43575b8287525f60605215611a2e57505016938415611a1757907fdcbc1c05240f31ff3ad067ef1ee35ce4997762752e3a095284754544f4c709d792915f80516020611dcf8339815191526119c082825461166f565b9055855f525f80516020611d8f833981519152602052825f20818154019055855f7fddf252ad1be2c89b69c2b068fc378daa952ba7f163c4a11628f55a4df523b3ef60208651858152a382519182526020820152a3565b825163ec442f0560e01b81525f6004820152602490fd5b635274afe760e01b8252600482015260249150fd5b6001811516611a5957813b15153d15161661196d565b823d5f823e3d90fd5b6001600160a01b038084169590948583169493909282888703611bbd575b505086156118cc57865f525f80516020611d8f8339815191529384602052604094855f205491848310611b8b5750908391895f5260205203845f20555f80516020611dcf8339815191528281540390555f877fddf252ad1be2c89b69c2b068fc378daa952ba7f163c4a11628f55a4df523b3ef60208751868152a3855f80516020611def83398151915254169584519163a9059cbb60e01b5f521695866004528360245260205f60448180855af160015f5114811615611b75575b82865215611a2e575050825191825260208201527ffbde797d201c681b91056529119e0b02407c7bb96a4a2c75c01fc9667232c8db9190a4565b6001811516611a5957813b15153d151616611b3b565b865163391434e360e21b81526001600160a01b0391909116600482015260248101929092525060448101839052606490fd5b611bc79186611763565b5f82611a80565b91611bda818385611c43565b918115611bee576116b5930915159061166f565b634e487b7160e01b5f52601260045260245ffd5b60ff7ff0c57e16840df040f15088dc2f81fe391c3923bec73e23a9662efc9c229c6a005460401c1615611c3157565b604051631afcd79f60e31b8152600490fd5b90915f198383099280830292838086109503948086039514611ccf5784831115611cb75790829109815f038216809204600280826003021880830282030280830282030280830282030280830282030280830282030280920290030293600183805f03040190848311900302920304170290565b82634e487b715f52156003026011186020526024601cfd5b505080925015611bee570490565b905f8091602081519101845af48080611d5b575b15611d115750506040513d81523d5f602083013e60203d82010160405290565b15611d3857604051639996b31560e01b81526001600160a01b039091166004820152602490fd5b3d15611d49576040513d5f823e3d90fd5b60405163d6bda27560e01b8152600490fd5b503d151580611cf15750813b1515611cf156fe52c63247e1f47db19d5ce0460030c497f067ca4cebf71ba98eeadabe20bace0352c63247e1f47db19d5ce0460030c497f067ca4cebf71ba98eeadabe20bace009016d09d72d40fdae2fd8ceac6b6234c7706214fd39c1cd1e609a0528c19930052c63247e1f47db19d5ce0460030c497f067ca4cebf71ba98eeadabe20bace020773e532dfede91f04b12a73d3d2acd361424f41f76b4fb79f090161e36b4e00a26469706673582212209f109d680516ececa9848fc39359e3067e2caec1e9647c0eda24d2b2ac4f160c64736f6c63430008180033","linkReferences":{}},"methodIdentifiers":{"UPGRADE_INTERFACE_VERSION()":"ad3cb1cc","allowance(address,address)":"dd62ed3e","approve(address,uint256)":"095ea7b3","asset()":"38d52e0f","balanceOf(address)":"70a08231","convertToAssets(uint256)":"07a2d13a","convertToShares(uint256)":"c6e6f592","decimals()":"313ce567","deposit(uint256,address)":"6e553f65","feeRecipient()":"46904840","initialize(address,address,address)":"c0c53b8b","maxDeposit(address)":"402d267d","maxMint(address)":"c63d75b6","maxRedeem(address)":"d905777e","maxWithdraw(address)":"ce96cb77","mint(uint256,address)":"94bf804d","name()":"06fdde03","owner()":"8da5cb5b","pause()":"8456cb59","paused()":"5c975abb","performanceFeeBps()":"b9d4e879","previewDeposit(uint256)":"ef8b30f7","previewMint(uint256)":"b3d7f6b9","previewRedeem(uint256)":"4cdad506","previewWithdraw(uint256)":"0a28a477","proxiableUUID()":"52d1902d","redeem(uint256,address,address)":"ba087652","renounceOwnership()":"715018a6","setFeeRecipient(address)":"e74b981b","setPerformanceFee(uint96)":"87451de6","symbol()":"95d89b41","totalAssets()":"01e1d114","totalSupply()":"18160ddd","transfer(address,uint256)":"a9059cbb","transferFrom(address,address,uint256)":"23b872dd","transferOwnership(address)":"f2fde38b","unpause()":"3f4ba83a","upgradeToAndCall(address,bytes)":"4f1ef286","withdraw(uint256,address,address)":"b460af94"},"id":3}