{"abi":[{"type":"constructor","inputs":[],"stateMutability":"nonpayable"},{"type":"function","name":"BPS","inputs":[],"outputs":[{"name":"","type":"uint256","internalType":"uint256"}],"stateMutability":"view"},{"type":"function","name":"LIQ_BONUS_BPS","inputs":[],"outputs":[{"name":"","type":"uint256","internalType":"uint256"}],"stateMutability":"view"},{"type":"function","name":"LIQ_THRESHOLD_BPS","inputs":[],"outputs":[{"name":"","type":"uint256","internalType":"uint256"}],"stateMutability":"view"},{"type":"function","name":"LTV_BPS","inputs":[],"outputs":[{"name":"","type":"uint256","internalType":"uint256"}],"stateMutability":"view"},{"type":"function","name":"UPGRADE_INTERFACE_VERSION","inputs":[],"outputs":[{"name":"","type":"string","internalType":"string"}],"stateMutability":"view"},{"type":"function","name":"WAD","inputs":[],"outputs":[{"name":"","type":"uint256","internalType":"uint256"}],"stateMutability":"view"},{"type":"function","name":"collateralToken","inputs":[],"outputs":[{"name":"","type":"address","internalType":"contract IERC20"}],"stateMutability":"view"},{"type":"function","name":"debtToken","inputs":[],"outputs":[{"name":"","type":"address","internalType":"contract IERC20"}],"stateMutability":"view"},{"type":"function","name":"deposit","inputs":[{"name":"amount","type":"uint256","internalType":"uint256"}],"outputs":[],"stateMutability":"nonpayable"},{"type":"function","name":"healthFactor","inputs":[{"name":"user","type":"address","internalType":"address"}],"outputs":[{"name":"","type":"uint256","internalType":"uint256"}],"stateMutability":"view"},{"type":"function","name":"initialize","inputs":[{"name":"collateralToken_","type":"address","internalType":"contract IERC20"},{"name":"debtToken_","type":"address","internalType":"contract IERC20"},{"name":"oracle_","type":"address","internalType":"contract OracleAdapter"},{"name":"owner_","type":"address","internalType":"address"}],"outputs":[],"stateMutability":"nonpayable"},{"type":"function","name":"interestRatePerSecond","inputs":[],"outputs":[{"name":"","type":"uint256","internalType":"uint256"}],"stateMutability":"view"},{"type":"function","name":"oracle","inputs":[],"outputs":[{"name":"","type":"address","internalType":"contract OracleAdapter"}],"stateMutability":"view"},{"type":"function","name":"owner","inputs":[],"outputs":[{"name":"","type":"address","internalType":"address"}],"stateMutability":"view"},{"type":"function","name":"pause","inputs":[],"outputs":[],"stateMutability":"nonpayable"},{"type":"function","name":"paused","inputs":[],"outputs":[{"name":"","type":"bool","internalType":"bool"}],"stateMutability":"view"},{"type":"function","name":"positions","inputs":[{"name":"user","type":"address","internalType":"address"}],"outputs":[{"name":"collateral","type":"uint256","internalType":"uint256"},{"name":"debt","type":"uint256","internalType":"uint256"},{"name":"lastAccrued","type":"uint256","internalType":"uint256"}],"stateMutability":"view"},{"type":"function","name":"proxiableUUID","inputs":[],"outputs":[{"name":"","type":"bytes32","internalType":"bytes32"}],"stateMutability":"view"},{"type":"function","name":"renounceOwnership","inputs":[],"outputs":[],"stateMutability":"nonpayable"},{"type":"function","name":"setInterestRate","inputs":[{"name":"ratePerSecond","type":"uint256","internalType":"uint256"}],"outputs":[],"stateMutability":"nonpayable"},{"type":"function","name":"totalBorrowed","inputs":[],"outputs":[{"name":"","type":"uint256","internalType":"uint256"}],"stateMutability":"view"},{"type":"function","name":"totalDeposited","inputs":[],"outputs":[{"name":"","type":"uint256","internalType":"uint256"}],"stateMutability":"view"},{"type":"function","name":"transferOwnership","inputs":[{"name":"newOwner","type":"address","internalType":"address"}],"outputs":[],"stateMutability":"nonpayable"},{"type":"function","name":"unpause","inputs":[],"outputs":[],"stateMutability":"nonpayable"},{"type":"function","name":"upgradeToAndCall","inputs":[{"name":"newImplementation","type":"address","internalType":"address"},{"name":"data","type":"bytes","internalType":"bytes"}],"outputs":[],"stateMutability":"payable"},{"type":"function","name":"withdraw","inputs":[{"name":"amount","type":"uint256","internalType":"uint256"}],"outputs":[],"stateMutability":"nonpayable"},{"type":"event","name":"Borrow","inputs":[{"name":"user","type":"address","indexed":true,"internalType":"address"},{"name":"amount","type":"uint256","indexed":false,"internalType":"uint256"}],"anonymous":false},{"type":"event","name":"Deposit","inputs":[{"name":"user","type":"address","indexed":true,"internalType":"address"},{"name":"amount","type":"uint256","indexed":false,"internalType":"uint256"}],"anonymous":false},{"type":"event","name":"Initialized","inputs":[{"name":"version","type":"uint64","indexed":false,"internalType":"uint64"}],"anonymous":false},{"type":"event","name":"Liquidate","inputs":[{"name":"liquidator","type":"address","indexed":true,"internalType":"address"},{"name":"user","type":"address","indexed":true,"internalType":"address"},{"name":"seized","type":"uint256","indexed":false,"internalType":"uint256"},{"name":"repaid","type":"uint256","indexed":false,"internalType":"uint256"}],"anonymous":false},{"type":"event","name":"OwnershipTransferred","inputs":[{"name":"previousOwner","type":"address","indexed":true,"internalType":"address"},{"name":"newOwner","type":"address","indexed":true,"internalType":"address"}],"anonymous":false},{"type":"event","name":"Paused","inputs":[{"name":"account","type":"address","indexed":false,"internalType":"address"}],"anonymous":false},{"type":"event","name":"Repay","inputs":[{"name":"user","type":"address","indexed":true,"internalType":"address"},{"name":"amount","type":"uint256","indexed":false,"internalType":"uint256"}],"anonymous":false},{"type":"event","name":"Unpaused","inputs":[{"name":"account","type":"address","indexed":false,"internalType":"address"}],"anonymous":false},{"type":"event","name":"Upgraded","inputs":[{"name":"implementation","type":"address","indexed":true,"internalType":"address"}],"anonymous":false},{"type":"event","name":"Withdraw","inputs":[{"name":"user","type":"address","indexed":true,"internalType":"address"},{"name":"amount","type":"uint256","indexed":false,"internalType":"uint256"}],"anonymous":false},{"type":"error","name":"AddressEmptyCode","inputs":[{"name":"target","type":"address","internalType":"address"}]},{"type":"error","name":"ERC1967InvalidImplementation","inputs":[{"name":"implementation","type":"address","internalType":"address"}]},{"type":"error","name":"ERC1967NonPayable","inputs":[]},{"type":"error","name":"EnforcedPause","inputs":[]},{"type":"error","name":"ExpectedPause","inputs":[]},{"type":"error","name":"FailedCall","inputs":[]},{"type":"error","name":"Healthy","inputs":[]},{"type":"error","name":"InsufficientCollateral","inputs":[]},{"type":"error","name":"InvalidInitialization","inputs":[]},{"type":"error","name":"NotInitializing","inputs":[]},{"type":"error","name":"OwnableInvalidOwner","inputs":[{"name":"owner","type":"address","internalType":"address"}]},{"type":"error","name":"OwnableUnauthorizedAccount","inputs":[{"name":"account","type":"address","internalType":"address"}]},{"type":"error","name":"ReentrancyGuardReentrantCall","inputs":[]},{"type":"error","name":"SafeERC20FailedOperation","inputs":[{"name":"token","type":"address","internalType":"address"}]},{"type":"error","name":"UUPSUnauthorizedCallContext","inputs":[]},{"type":"error","name":"UUPSUnsupportedProxiableUUID","inputs":[{"name":"slot","type":"bytes32","internalType":"bytes32"}]},{"type":"error","name":"Unhealthy","inputs":[]},{"type":"error","name":"ZeroAmount","inputs":[]}],"bytecode":{"object":"0x60a080604052346100cc57306080527ff0c57e16840df040f15088dc2f81fe391c3923bec73e23a9662efc9c229c6a009081549060ff8260401c166100bd57506001600160401b036002600160401b031982821601610078575b60405161103b90816100d182396080518181816107c301526108a80152f35b6001600160401b031990911681179091556040519081527fc7f505b2f371ae2175ee4913f4499e1f2633a7b5936321eed1cdaeb6115181d290602090a15f8080610059565b63f92ee8a960e01b8152600490fd5b5f80fdfe6080604081815260049182361015610015575f80fd5b5f3560e01c908163249d39e914610c1f575080632e1a7d4d14610aed5780633f4ba83a14610a785780634c19386c14610a5a5780634f1ef2861461082757806352d1902d146107b057806355f57510146107635780635c975abb146107345780635f84f302146107145780636a146024146106f25780636ad9f9df146106c6578063715018a61461065f5780637dc0d1d0146106375780638456cb59146105d25780638da5cb5b1461059e5780639cc820da14610580578063ad3cb1cc146104e2578063b2016bd4146104bb578063b6b55f2514610394578063e351353114610378578063e3cd32d61461035c578063f2fde38b14610336578063f8c8765e146101a0578063f8d8989814610178578063fae3706f1461015c5763ff50abdc1461013d575f80fd5b34610158575f36600319011261015857602091549051908152f35b5f80fd5b5034610158575f3660031901126101585760209051611d4c8152f35b5034610158575f3660031901126101585760015490516001600160a01b039091168152602090f35b509034610158576080366003190112610158576101bb610c39565b6001600160a01b0391906024358381169190829003610158576044359184831680930361015857606435948086168603610158577ff0c57e16840df040f15088dc2f81fe391c3923bec73e23a9662efc9c229c6a0095865460ff818a1c16159667ffffffffffffffff82168015908161032e575b6001149081610324575b15908161031b575b5061030d575067ffffffffffffffff19811660011788556102799190876102ee575b5061026c610ef3565b610274610ef3565b610de1565b610281610ef3565b6bffffffffffffffffffffffff60a01b9216825f5416175f5581600154161760015560025416176002556102b157005b805468ff00000000000000001916905551600181527fc7f505b2f371ae2175ee4913f4499e1f2633a7b5936321eed1cdaeb6115181d290602090a1005b68ffffffffffffffffff1916680100000000000000011788555f610263565b895163f92ee8a960e01b8152fd5b9050155f610241565b303b159150610239565b89915061022f565b346101585760203660031901126101585761035a610352610c39565b610274610ebb565b005b5034610158575f3660031901126101585760209051611f408152f35b5034610158575f36600319011261015857602090516101f48152f35b5034610158576020366003190112610158578135916103b1610e52565b6103b9610e91565b82156104ad57335f526003602052815f206103d5848254610dd4565b90556103e2838254610dd4565b815560018060a01b035f54168251916323b872dd60e01b5f52338152306024528460445260205f60648180865af160015f511481161561048e575b8385525f6060521561047b57505050519081527fe1fffcc4923d04b559f4d29a8bfc6cda04eb5b0d3c460751c2402c5c5cc9109c60203392a25f7f9b779b17422d0df92223018b32b4d1fa46e071723d6817e2486d003becc55f005d005b635274afe760e01b835282015260249150fd5b60018115166104a457823b15153d15161661041d565b833d5f823e3d90fd5b9051631f2a200560e01b8152fd5b5034610158575f366003190112610158575f5490516001600160a01b039091168152602090f35b5034610158575f366003190112610158578051918183019083821067ffffffffffffffff83111761056d57508152600582526020640352e302e360dc1b60208401528151928391602083528151918260208501525f5b8381106105575750505f83830185015250601f01601f19168101030190f35b8181018301518782018701528694508201610538565b604190634e487b7160e01b5f525260245ffd5b5034610158575f366003190112610158576020906006549051908152f35b5034610158575f366003190112610158575f80516020610fc68339815191525490516001600160a01b039091168152602090f35b5034610158575f3660031901126101585760207f62e78cea01bee320cd4e420270b5ea74000d11b0c9f74754ebdbfc544b05a2589161060f610ebb565b610617610e91565b5f80516020610fe6833981519152805460ff1916600117905551338152a1005b5034610158575f3660031901126101585760025490516001600160a01b039091168152602090f35b34610158575f36600319011261015857610677610ebb565b5f80516020610fc683398151915280546001600160a01b031981169091555f906001600160a01b03167f8be0079c531659141344cd1fd0a4f28419497f9722a3daafe3b4186f6b6457e08280a3005b5034610158576020366003190112610158576020906106eb6106e6610c39565b610ca6565b9051908152f35b5034610158575f3660031901126101585760209051670de0b6b3a76400008152f35b82346101585760203660031901126101585761072e610ebb565b35600655005b5034610158575f3660031901126101585760209060ff5f80516020610fe6833981519152541690519015158152f35b5034610158576020366003190112610158576060906001600160a01b03610788610c39565b165f526003602052805f20805491600260018301549201549181519384526020840152820152f35b5034610158575f366003190112610158577f00000000000000000000000000000000000000000000000000000000000000006001600160a01b0316300361081a57602090517f360894a13ba1a3210667c828492db98dca3e2076cc3735a920a3ca505d382bbc8152f35b5163703e46dd60e11b8152fd5b5090816003193601126101585761083c610c39565b602492833567ffffffffffffffff9283821161015857366023830112156101585781850135938411610a485760209383519261088186601f19601f8501160185610c4f565b8184523688838301011161015857815f928988930183870137840101526001600160a01b037f00000000000000000000000000000000000000000000000000000000000000008116308114908115610a1a575b50610a0a576108e1610ebb565b83516352d1902d60e01b81529082169480828881895afa9182915f936109da575b505061091c575050505191634c9c8ce360e01b8352820152fd5b85938591887f360894a13ba1a3210667c828492db98dca3e2076cc3735a920a3ca505d382bbc918281036109c55750843b156109b1575080546001600160a01b0319168317905551907fbc7cd75a20ee27fd9adebab32041f755214dbc6bffa90cc0225b39da2e5c2d3b5f80a282511561099b575061035a9250610f34565b915050346109a557005b63b398979f60e01b8152fd5b8251634c9c8ce360e01b8152808801859052fd5b8351632a87526960e21b815280890191909152fd5b9080929350813d8311610a03575b6109f28183610c4f565b810103126101585751905f80610902565b503d6109e8565b835163703e46dd60e11b81528690fd5b9050817f360894a13ba1a3210667c828492db98dca3e2076cc3735a920a3ca505d382bbc541614155f6108d4565b85604186634e487b7160e01b5f52525ffd5b5034610158575f366003190112610158576020906005549051908152f35b5034610158575f36600319011261015857610a91610ebb565b5f80516020610fe68339815191529182549060ff821615610adf577f5db9ee0a495bf2e6ff9c91a7834c1ba4fdd244a5e8aa4e537bd38aeae4b073aa602084868560ff1916905551338152a1005b8251638dfc202b60e01b8152fd5b503461015857602036600319011261015857813591610b0a610e52565b610b12610e91565b82156104ad57335f526003602052815f208054848110610c0f5784610b3691610c85565b9055610b43838254610c85565b8155670de0b6b3a7640000610b5733610ca6565b10610c015760018060a01b035f541682519163a9059cbb60e01b5f523381528460245260205f60448180865af160015f5114811615610beb575b8385521561047b57505050519081527f884edad9ce6fa2440d8a54cc123490eb96d2768479d49ff9c7366125a942436460203392a25f7f9b779b17422d0df92223018b32b4d1fa46e071723d6817e2486d003becc55f005d005b60018115166104a457823b15153d151616610b91565b9051631f6de81d60e21b8152fd5b8351633a23d82560e01b81528390fd5b34610158575f366003190112610158578061271060209252f35b600435906001600160a01b038216820361015857565b90601f8019910116810190811067ffffffffffffffff821117610c7157604052565b634e487b7160e01b5f52604160045260245ffd5b91908203918211610c9257565b634e487b7160e01b5f52601160045260245ffd5b60018060a01b038091165f52602060038152604090815f20928251916060830183811067ffffffffffffffff821117610c7157845284548352600185015460028285019682885201548585015215610dca57808260025416925f541660248651809581936341976e0960e01b835260048301525afa938415610dc157505f93610d91575b505051818102918183041490151715610c9257611f4090818102918183041490151715610c9257612710900490670de0b6b3a764000091828102928184041490151715610c925751908115610d7d570490565b634e487b7160e01b5f52601260045260245ffd5b9080929350813d8311610dba575b610da98183610c4f565b810103126101585751905f80610d2a565b503d610d9f565b513d5f823e3d90fd5b50505050505f1990565b91908201809211610c9257565b6001600160a01b03908116908115610e3a575f80516020610fc683398151915280546001600160a01b031981168417909155167f8be0079c531659141344cd1fd0a4f28419497f9722a3daafe3b4186f6b6457e05f80a3565b604051631e4fbdf760e01b81525f6004820152602490fd5b7f9b779b17422d0df92223018b32b4d1fa46e071723d6817e2486d003becc55f00805c610e7f576001905d565b604051633ee5aeb560e01b8152600490fd5b60ff5f80516020610fe68339815191525416610ea957565b60405163d93c066560e01b8152600490fd5b5f80516020610fc6833981519152546001600160a01b03163303610edb57565b60405163118cdaa760e01b8152336004820152602490fd5b60ff7ff0c57e16840df040f15088dc2f81fe391c3923bec73e23a9662efc9c229c6a005460401c1615610f2257565b604051631afcd79f60e31b8152600490fd5b905f8091602081519101845af48080610fb2575b15610f685750506040513d81523d5f602083013e60203d82010160405290565b15610f8f57604051639996b31560e01b81526001600160a01b039091166004820152602490fd5b3d15610fa0576040513d5f823e3d90fd5b60405163d6bda27560e01b8152600490fd5b503d151580610f485750813b1515610f4856fe9016d09d72d40fdae2fd8ceac6b6234c7706214fd39c1cd1e609a0528c199300cd5ed15c6e187e77e9aee88184c21f4f2182ab5827cb3b7e07fbedcd63f03300a264697066735822122030737d836621c750fcf4e7a37c2779656bca8a8ce99797c6c65db19ef08cb05a64736f6c63430008180033","linkReferences":{}},"methodIdentifiers":{"BPS()":"249d39e9","LIQ_BONUS_BPS()":"e3513531","LIQ_THRESHOLD_BPS()":"e3cd32d6","LTV_BPS()":"fae3706f","UPGRADE_INTERFACE_VERSION()":"ad3cb1cc","WAD()":"6a146024","collateralToken()":"b2016bd4","debtToken()":"f8d89898","deposit(uint256)":"b6b55f25","healthFactor(address)":"6ad9f9df","initialize(address,address,address,address)":"f8c8765e","interestRatePerSecond()":"9cc820da","oracle()":"7dc0d1d0","owner()":"8da5cb5b","pause()":"8456cb59","paused()":"5c975abb","positions(address)":"55f57510","proxiableUUID()":"52d1902d","renounceOwnership()":"715018a6","setInterestRate(uint256)":"5f84f302","totalBorrowed()":"4c19386c","totalDeposited()":"ff50abdc","transferOwnership(address)":"f2fde38b","unpause()":"3f4ba83a","upgradeToAndCall(address,bytes)":"4f1ef286","withdraw(uint256)":"2e1a7d4d"},"id":2}