{"abi":[{"type":"constructor","inputs":[],"stateMutability":"nonpayable"},{"type":"function","name":"BPS","inputs":[],"outputs":[{"name":"","type":"uint256","internalType":"uint256"}],"stateMutability":"view"},{"type":"function","name":"LIQ_BONUS_BPS","inputs":[],"outputs":[{"name":"","type":"uint256","internalType":"uint256"}],"stateMutability":"view"},{"type":"function","name":"LIQ_THRESHOLD_BPS","inputs":[],"outputs":[{"name":"","type":"uint256","internalType":"uint256"}],"stateMutability":"view"},{"type":"function","name":"LTV_BPS","inputs":[],"outputs":[{"name":"","type":"uint256","internalType":"uint256"}],"stateMutability":"view"},{"type":"function","name":"UPGRADE_INTERFACE_VERSION","inputs":[],"outputs":[{"name":"","type":"string","internalType":"string"}],"stateMutability":"view"},{"type":"function","name":"WAD","inputs":[],"outputs":[{"name":"","type":"uint256","internalType":"uint256"}],"stateMutability":"view"},{"type":"function","name":"collateralToken","inputs":[],"outputs":[{"name":"","type":"address","internalType":"contract IERC20"}],"stateMutability":"view"},{"type":"function","name":"debtToken","inputs":[],"outputs":[{"name":"","type":"address","internalType":"contract IERC20"}],"stateMutability":"view"},{"type":"function","name":"deposit","inputs":[{"name":"amount","type":"uint256","internalType":"uint256"}],"outputs":[],"stateMutability":"nonpayable"},{"type":"function","name":"initialize","inputs":[{"name":"collateralToken_","type":"address","internalType":"contract IERC20"},{"name":"debtToken_","type":"address","internalType":"contract IERC20"},{"name":"oracle_","type":"address","internalType":"contract OracleAdapter"},{"name":"owner_","type":"address","internalType":"address"}],"outputs":[],"stateMutability":"nonpayable"},{"type":"function","name":"interestRatePerSecond","inputs":[],"outputs":[{"name":"","type":"uint256","internalType":"uint256"}],"stateMutability":"view"},{"type":"function","name":"oracle","inputs":[],"outputs":[{"name":"","type":"address","internalType":"contract OracleAdapter"}],"stateMutability":"view"},{"type":"function","name":"owner","inputs":[],"outputs":[{"name":"","type":"address","internalType":"address"}],"stateMutability":"view"},{"type":"function","name":"pause","inputs":[],"outputs":[],"stateMutability":"nonpayable"},{"type":"function","name":"paused","inputs":[],"outputs":[{"name":"","type":"bool","internalType":"bool"}],"stateMutability":"view"},{"type":"function","name":"positions","inputs":[{"name":"user","type":"address","internalType":"address"}],"outputs":[{"name":"collateral","type":"uint256","internalType":"uint256"},{"name":"debt","type":"uint256","internalType":"uint256"},{"name":"lastAccrued","type":"uint256","internalType":"uint256"}],"stateMutability":"view"},{"type":"function","name":"proxiableUUID","inputs":[],"outputs":[{"name":"","type":"bytes32","internalType":"bytes32"}],"stateMutability":"view"},{"type":"function","name":"renounceOwnership","inputs":[],"outputs":[],"stateMutability":"nonpayable"},{"type":"function","name":"setInterestRate","inputs":[{"name":"ratePerSecond","type":"uint256","internalType":"uint256"}],"outputs":[],"stateMutability":"nonpayable"},{"type":"function","name":"totalBorrowed","inputs":[],"outputs":[{"name":"","type":"uint256","internalType":"uint256"}],"stateMutability":"view"},{"type":"function","name":"totalDeposited","inputs":[],"outputs":[{"name":"","type":"uint256","internalType":"uint256"}],"stateMutability":"view"},{"type":"function","name":"transferOwnership","inputs":[{"name":"newOwner","type":"address","internalType":"address"}],"outputs":[],"stateMutability":"nonpayable"},{"type":"function","name":"unpause","inputs":[],"outputs":[],"stateMutability":"nonpayable"},{"type":"function","name":"upgradeToAndCall","inputs":[{"name":"newImplementation","type":"address","internalType":"address"},{"name":"data","type":"bytes","internalType":"bytes"}],"outputs":[],"stateMutability":"payable"},{"type":"event","name":"Borrow","inputs":[{"name":"user","type":"address","indexed":true,"internalType":"address"},{"name":"amount","type":"uint256","indexed":false,"internalType":"uint256"}],"anonymous":false},{"type":"event","name":"Deposit","inputs":[{"name":"user","type":"address","indexed":true,"internalType":"address"},{"name":"amount","type":"uint256","indexed":false,"internalType":"uint256"}],"anonymous":false},{"type":"event","name":"Initialized","inputs":[{"name":"version","type":"uint64","indexed":false,"internalType":"uint64"}],"anonymous":false},{"type":"event","name":"Liquidate","inputs":[{"name":"liquidator","type":"address","indexed":true,"internalType":"address"},{"name":"user","type":"address","indexed":true,"internalType":"address"},{"name":"seized","type":"uint256","indexed":false,"internalType":"uint256"},{"name":"repaid","type":"uint256","indexed":false,"internalType":"uint256"}],"anonymous":false},{"type":"event","name":"OwnershipTransferred","inputs":[{"name":"previousOwner","type":"address","indexed":true,"internalType":"address"},{"name":"newOwner","type":"address","indexed":true,"internalType":"address"}],"anonymous":false},{"type":"event","name":"Paused","inputs":[{"name":"account","type":"address","indexed":false,"internalType":"address"}],"anonymous":false},{"type":"event","name":"Repay","inputs":[{"name":"user","type":"address","indexed":true,"internalType":"address"},{"name":"amount","type":"uint256","indexed":false,"internalType":"uint256"}],"anonymous":false},{"type":"event","name":"Unpaused","inputs":[{"name":"account","type":"address","indexed":false,"internalType":"address"}],"anonymous":false},{"type":"event","name":"Upgraded","inputs":[{"name":"implementation","type":"address","indexed":true,"internalType":"address"}],"anonymous":false},{"type":"event","name":"Withdraw","inputs":[{"name":"user","type":"address","indexed":true,"internalType":"address"},{"name":"amount","type":"uint256","indexed":false,"internalType":"uint256"}],"anonymous":false},{"type":"error","name":"AddressEmptyCode","inputs":[{"name":"target","type":"address","internalType":"address"}]},{"type":"error","name":"ERC1967InvalidImplementation","inputs":[{"name":"implementation","type":"address","internalType":"address"}]},{"type":"error","name":"ERC1967NonPayable","inputs":[]},{"type":"error","name":"EnforcedPause","inputs":[]},{"type":"error","name":"ExpectedPause","inputs":[]},{"type":"error","name":"FailedCall","inputs":[]},{"type":"error","name":"Healthy","inputs":[]},{"type":"error","name":"InsufficientCollateral","inputs":[]},{"type":"error","name":"InvalidInitialization","inputs":[]},{"type":"error","name":"NotInitializing","inputs":[]},{"type":"error","name":"OwnableInvalidOwner","inputs":[{"name":"owner","type":"address","internalType":"address"}]},{"type":"error","name":"OwnableUnauthorizedAccount","inputs":[{"name":"account","type":"address","internalType":"address"}]},{"type":"error","name":"ReentrancyGuardReentrantCall","inputs":[]},{"type":"error","name":"SafeERC20FailedOperation","inputs":[{"name":"token","type":"address","internalType":"address"}]},{"type":"error","name":"UUPSUnauthorizedCallContext","inputs":[]},{"type":"error","name":"UUPSUnsupportedProxiableUUID","inputs":[{"name":"slot","type":"bytes32","internalType":"bytes32"}]},{"type":"error","name":"Unhealthy","inputs":[]},{"type":"error","name":"ZeroAmount","inputs":[]}],"bytecode":{"object":"0x60a080604052346100cc57306080527ff0c57e16840df040f15088dc2f81fe391c3923bec73e23a9662efc9c229c6a009081549060ff8260401c166100bd57506001600160401b036002600160401b031982821601610078575b604051610d6190816100d18239608051818181610795015261087a0152f35b6001600160401b031990911681179091556040519081527fc7f505b2f371ae2175ee4913f4499e1f2633a7b5936321eed1cdaeb6115181d290602090a15f8080610059565b63f92ee8a960e01b8152600490fd5b5f80fdfe6080604081815260049182361015610015575f80fd5b5f3560e01c908163249d39e914610abf575080633f4ba83a14610a4a5780634c19386c14610a2c5780634f1ef286146107f957806352d1902d1461078257806355f57510146107355780635c975abb146107065780635f84f302146106e65780636a146024146106c4578063715018a61461065d5780637dc0d1d0146106355780638456cb59146105d05780638da5cb5b1461059c5780639cc820da1461057e578063ad3cb1cc146104e0578063b2016bd4146104b9578063b6b55f251461037e578063e351353114610362578063e3cd32d614610346578063f2fde38b14610320578063f8c8765e1461018a578063f8d8989814610162578063fae3706f146101465763ff50abdc14610127575f80fd5b34610142575f36600319011261014257602091549051908152f35b5f80fd5b5034610142575f3660031901126101425760209051611d4c8152f35b5034610142575f3660031901126101425760015490516001600160a01b039091168152602090f35b509034610142576080366003190112610142576101a5610ad9565b6001600160a01b0391906024358381169190829003610142576044359184831680930361014257606435948086168603610142577ff0c57e16840df040f15088dc2f81fe391c3923bec73e23a9662efc9c229c6a0095865460ff818a1c16159667ffffffffffffffff821680159081610318575b600114908161030e575b159081610305575b506102f7575067ffffffffffffffff19811660011788556102639190876102d8575b50610256610c19565b61025e610c19565b610b46565b61026b610c19565b6bffffffffffffffffffffffff60a01b9216825f5416175f55816001541617600155600254161760025561029b57005b805468ff00000000000000001916905551600181527fc7f505b2f371ae2175ee4913f4499e1f2633a7b5936321eed1cdaeb6115181d290602090a1005b68ffffffffffffffffff1916680100000000000000011788555f61024d565b895163f92ee8a960e01b8152fd5b9050155f61022b565b303b159150610223565b899150610219565b346101425760203660031901126101425761034461033c610ad9565b61025e610bb7565b005b5034610142575f3660031901126101425760209051611f408152f35b5034610142575f36600319011261014257602090516101f48152f35b50346101425760203660031901126101425781357f9b779b17422d0df92223018b32b4d1fa46e071723d6817e2486d003becc55f0091825c6104aa576001835d6103c6610bef565b811561049b57335f526003602052805f206103e2838254610b25565b90556103ef828554610b25565b845560018060a01b035f54168151906323b872dd60e01b5f52338652306024528360445260205f60648180855af160015f511481161561047c575b8284525f606052156104685750505f9350519081527fe1fffcc4923d04b559f4d29a8bfc6cda04eb5b0d3c460751c2402c5c5cc9109c60203392a25d005b635274afe760e01b82528186015260249150fd5b600181151661049257813b15153d15161661042a565b823d5f823e3d90fd5b51631f2a200560e01b81528390fd5b51633ee5aeb560e01b81528390fd5b5034610142575f366003190112610142575f5490516001600160a01b039091168152602090f35b5034610142575f366003190112610142578051918183019083821067ffffffffffffffff83111761056b57508152600582526020640352e302e360dc1b60208401528151928391602083528151918260208501525f5b8381106105555750505f83830185015250601f01601f19168101030190f35b8181018301518782018701528694508201610536565b604190634e487b7160e01b5f525260245ffd5b5034610142575f366003190112610142576020906006549051908152f35b5034610142575f366003190112610142575f80516020610cec8339815191525490516001600160a01b039091168152602090f35b5034610142575f3660031901126101425760207f62e78cea01bee320cd4e420270b5ea74000d11b0c9f74754ebdbfc544b05a2589161060d610bb7565b610615610bef565b5f80516020610d0c833981519152805460ff1916600117905551338152a1005b5034610142575f3660031901126101425760025490516001600160a01b039091168152602090f35b34610142575f36600319011261014257610675610bb7565b5f80516020610cec83398151915280546001600160a01b031981169091555f906001600160a01b03167f8be0079c531659141344cd1fd0a4f28419497f9722a3daafe3b4186f6b6457e08280a3005b5034610142575f3660031901126101425760209051670de0b6b3a76400008152f35b823461014257602036600319011261014257610700610bb7565b35600655005b5034610142575f3660031901126101425760209060ff5f80516020610d0c833981519152541690519015158152f35b5034610142576020366003190112610142576060906001600160a01b0361075a610ad9565b165f526003602052805f20805491600260018301549201549181519384526020840152820152f35b5034610142575f366003190112610142577f00000000000000000000000000000000000000000000000000000000000000006001600160a01b031630036107ec57602090517f360894a13ba1a3210667c828492db98dca3e2076cc3735a920a3ca505d382bbc8152f35b5163703e46dd60e11b8152fd5b5090816003193601126101425761080e610ad9565b602492833567ffffffffffffffff9283821161014257366023830112156101425781850135938411610a1a5760209383519261085386601f19601f8501160185610aef565b8184523688838301011161014257815f928988930183870137840101526001600160a01b037f000000000000000000000000000000000000000000000000000000000000000081163081149081156109ec575b506109dc576108b3610bb7565b83516352d1902d60e01b81529082169480828881895afa9182915f936109ac575b50506108ee575050505191634c9c8ce360e01b8352820152fd5b85938591887f360894a13ba1a3210667c828492db98dca3e2076cc3735a920a3ca505d382bbc918281036109975750843b15610983575080546001600160a01b0319168317905551907fbc7cd75a20ee27fd9adebab32041f755214dbc6bffa90cc0225b39da2e5c2d3b5f80a282511561096d57506103449250610c5a565b9150503461097757005b63b398979f60e01b8152fd5b8251634c9c8ce360e01b8152808801859052fd5b8351632a87526960e21b815280890191909152fd5b9080929350813d83116109d5575b6109c48183610aef565b810103126101425751905f806108d4565b503d6109ba565b835163703e46dd60e11b81528690fd5b9050817f360894a13ba1a3210667c828492db98dca3e2076cc3735a920a3ca505d382bbc541614155f6108a6565b85604186634e487b7160e01b5f52525ffd5b5034610142575f366003190112610142576020906005549051908152f35b5034610142575f36600319011261014257610a63610bb7565b5f80516020610d0c8339815191529182549060ff821615610ab1577f5db9ee0a495bf2e6ff9c91a7834c1ba4fdd244a5e8aa4e537bd38aeae4b073aa602084868560ff1916905551338152a1005b8251638dfc202b60e01b8152fd5b34610142575f366003190112610142578061271060209252f35b600435906001600160a01b038216820361014257565b90601f8019910116810190811067ffffffffffffffff821117610b1157604052565b634e487b7160e01b5f52604160045260245ffd5b91908201809211610b3257565b634e487b7160e01b5f52601160045260245ffd5b6001600160a01b03908116908115610b9f575f80516020610cec83398151915280546001600160a01b031981168417909155167f8be0079c531659141344cd1fd0a4f28419497f9722a3daafe3b4186f6b6457e05f80a3565b604051631e4fbdf760e01b81525f6004820152602490fd5b5f80516020610cec833981519152546001600160a01b03163303610bd757565b60405163118cdaa760e01b8152336004820152602490fd5b60ff5f80516020610d0c8339815191525416610c0757565b60405163d93c066560e01b8152600490fd5b60ff7ff0c57e16840df040f15088dc2f81fe391c3923bec73e23a9662efc9c229c6a005460401c1615610c4857565b604051631afcd79f60e31b8152600490fd5b905f8091602081519101845af48080610cd8575b15610c8e5750506040513d81523d5f602083013e60203d82010160405290565b15610cb557604051639996b31560e01b81526001600160a01b039091166004820152602490fd5b3d15610cc6576040513d5f823e3d90fd5b60405163d6bda27560e01b8152600490fd5b503d151580610c6e5750813b1515610c6e56fe9016d09d72d40fdae2fd8ceac6b6234c7706214fd39c1cd1e609a0528c199300cd5ed15c6e187e77e9aee88184c21f4f2182ab5827cb3b7e07fbedcd63f03300a2646970667358221220eed5a7fc902733b33b1c8436f541c7ce7033717e7c399db56ae15b089a9c9bff64736f6c63430008180033","linkReferences":{}},"methodIdentifiers":{"BPS()":"249d39e9","LIQ_BONUS_BPS()":"e3513531","LIQ_THRESHOLD_BPS()":"e3cd32d6","LTV_BPS()":"fae3706f","UPGRADE_INTERFACE_VERSION()":"ad3cb1cc","WAD()":"6a146024","collateralToken()":"b2016bd4","debtToken()":"f8d89898","deposit(uint256)":"b6b55f25","initialize(address,address,address,address)":"f8c8765e","interestRatePerSecond()":"9cc820da","oracle()":"7dc0d1d0","owner()":"8da5cb5b","pause()":"8456cb59","paused()":"5c975abb","positions(address)":"55f57510","proxiableUUID()":"52d1902d","renounceOwnership()":"715018a6","setInterestRate(uint256)":"5f84f302","totalBorrowed()":"4c19386c","totalDeposited()":"ff50abdc","transferOwnership(address)":"f2fde38b","unpause()":"3f4ba83a","upgradeToAndCall(address,bytes)":"4f1ef286"},"id":2}