{"abi":[{"type":"constructor","inputs":[{"name":"initialOwner","type":"address","internalType":"address"}],"stateMutability":"nonpayable"},{"type":"function","name":"allPairs","inputs":[{"name":"","type":"uint256","internalType":"uint256"}],"outputs":[{"name":"","type":"address","internalType":"address"}],"stateMutability":"view"},{"type":"function","name":"allPairsLength","inputs":[],"outputs":[{"name":"","type":"uint256","internalType":"uint256"}],"stateMutability":"view"},{"type":"function","name":"createPair","inputs":[{"name":"tokenA","type":"address","internalType":"address"},{"name":"tokenB","type":"address","internalType":"address"}],"outputs":[{"name":"pair","type":"address","internalType":"address"}],"stateMutability":"nonpayable"},{"type":"function","name":"getPair","inputs":[{"name":"tokenA","type":"address","internalType":"address"},{"name":"tokenB","type":"address","internalType":"address"}],"outputs":[{"name":"pair","type":"address","internalType":"address"}],"stateMutability":"view"},{"type":"function","name":"implementation","inputs":[],"outputs":[{"name":"","type":"address","internalType":"address"}],"stateMutability":"view"},{"type":"function","name":"owner","inputs":[],"outputs":[{"name":"","type":"address","internalType":"address"}],"stateMutability":"view"},{"type":"function","name":"predictPairAddress","inputs":[{"name":"tokenA","type":"address","internalType":"address"},{"name":"tokenB","type":"address","internalType":"address"}],"outputs":[{"name":"","type":"address","internalType":"address"}],"stateMutability":"view"},{"type":"function","name":"renounceOwnership","inputs":[],"outputs":[],"stateMutability":"nonpayable"},{"type":"function","name":"transferOwnership","inputs":[{"name":"newOwner","type":"address","internalType":"address"}],"outputs":[],"stateMutability":"nonpayable"},{"type":"event","name":"OwnershipTransferred","inputs":[{"name":"previousOwner","type":"address","indexed":true,"internalType":"address"},{"name":"newOwner","type":"address","indexed":true,"internalType":"address"}],"anonymous":false},{"type":"event","name":"PairCreated","inputs":[{"name":"token0","type":"address","indexed":true,"internalType":"address"},{"name":"token1","type":"address","indexed":true,"internalType":"address"},{"name":"pair","type":"address","indexed":false,"internalType":"address"},{"name":"totalPairs","type":"uint256","indexed":false,"internalType":"uint256"}],"anonymous":false},{"type":"error","name":"FailedDeployment","inputs":[]},{"type":"error","name":"IdenticalAddresses","inputs":[]},{"type":"error","name":"InsufficientBalance","inputs":[{"name":"balance","type":"uint256","internalType":"uint256"},{"name":"needed","type":"uint256","internalType":"uint256"}]},{"type":"error","name":"OwnableInvalidOwner","inputs":[{"name":"owner","type":"address","internalType":"address"}]},{"type":"error","name":"OwnableUnauthorizedAccount","inputs":[{"name":"account","type":"address","internalType":"address"}]},{"type":"error","name":"PairExists","inputs":[]},{"type":"error","name":"ZeroAddress","inputs":[]}],"bytecode":{"object":"0x60a03461011e576001600160401b0390601f61147b38819003918201601f1916830191848311848410176100f25780849260209460405283398101031261011e57516001600160a01b03918282169182900361011e578115610106575f80546001600160a01b03198116841782556040519391908516907f8be0079c531659141344cd1fd0a4f28419497f9722a3daafe3b4186f6b6457e09080a3610c3390828201908111838210176100f2578291610848833903905ff080156100e757166080526040516107259081610123823960805181818161012201528181610314015261058c0152f35b6040513d5f823e3d90fd5b634e487b7160e01b5f52604160045260245ffd5b604051631e4fbdf760e01b81525f6004820152602490fd5b5f80fdfe60406080815260049081361015610014575f80fd5b5f915f3560e01c9081631e3dd18b146105d9578163574f2ba3146105bb5781635c60da1b14610578578163715018a6146105215781638da5cb5b146104fa578163c9c6539614610267578163e6a439051461021b578163f2fde38b14610189575063f5ab9f1414610083575f80fd5b34610185578060031936011261018557602091605560436100a2610662565b6100aa610678565b6001600160a01b039450908482168582161015610178576100fe6100f091925b87516001600160a01b039485168a82019081529490911660208501529182906040850190565b03601f19810183528261068e565b5190208451903060388301526f5af43d82803e903d91602b57fd5bf3ff60248301527f00000000000000000000000000000000000000000000000000000000000000006014830152733d602d80600a3d3981f3363d3d373d3d3d363d73825260588201526037600c82012060788201520120169051908152f35b6100f0906100fe906100ca565b5080fd5b905034610217576020366003190112610217576101a4610662565b906101ad6106c4565b6001600160a01b039182169283156102015750505f54826bffffffffffffffffffffffff60a01b8216175f55167f8be0079c531659141344cd1fd0a4f28419497f9722a3daafe3b4186f6b6457e05f80a380f35b51631e4fbdf760e01b8152908101849052602490fd5b8280fd5b505034610185578060031936011261018557602091610238610662565b610240610678565b908360018060a01b0393848093168152600187522091165f528352815f2054169051908152f35b919050346104b257806003193601126104b257610282610662565b61028a610678565b926001600160a01b03918285168184168082146104ea5710156104e45793915b8085169182156104d657825f5260209660018852855f209483811695865f52895283875f2054166104c65786516001600160a01b03808a16828c01908152908316602082015285916102ff81604084016100f0565b5190206e5af43d82803e903d91602b57fd5bf37f0000000000000000000000000000000000000000000000000000000000000000763d602d80600a3d3981f3363d3d373d3d3d363d7300000062ffffff8260881c16175f5260781b178b52603760095ff5169788156104b657883b156104b257875163485cc95560e01b81526001600160a01b039182168582019081529190921660208201525f90829081906040010381838c5af180156104a85761047b575b5083815260018852858120855f528852855f206bffffffffffffffffffffffff60a01b90888282541617905585825260018952868220855f52895287875f2091825416179055600254916801000000000000000083101561046857505080600161041f9201600255610619565b819291549060031b9187831b921b19161790557f0d3648bd0f6ba80134a33ba9275ac585d9d315f0ad8355cddefde31afa28d0e98360025481519087825288820152a351908152f35b634e487b7160e01b825260419052602490fd5b905067ffffffffffffffff81116104955785525f806103b2565b604182634e487b7160e01b5f525260245ffd5b87513d5f823e3d90fd5b5f80fd5b875163b06ebf3d60e01b81528490fd5b8651633d77e89160e01b81528390fd5b845163d92e233d60e01b8152fd5b916102aa565b8551630bd969eb60e41b81528490fd5b82346104b2575f3660031901126104b2575f5490516001600160a01b039091168152602090f35b346104b2575f3660031901126104b2576105396106c4565b5f80546001600160a01b0319811682556001600160a01b03167f8be0079c531659141344cd1fd0a4f28419497f9722a3daafe3b4186f6b6457e08280a3005b82346104b2575f3660031901126104b257517f00000000000000000000000000000000000000000000000000000000000000006001600160a01b03168152602090f35b82346104b2575f3660031901126104b2576020906002549051908152f35b9050346104b25760203660031901126104b25735906002548210156104b257610603602092610619565b905491519160018060a01b039160031b1c168152f35b60025481101561064e5760025f527f405787fa12a823e0f2b7631cc41b3ba8828b3321ca811111fa75cd3aa3bb5ace01905f90565b634e487b7160e01b5f52603260045260245ffd5b600435906001600160a01b03821682036104b257565b602435906001600160a01b03821682036104b257565b90601f8019910116810190811067ffffffffffffffff8211176106b057604052565b634e487b7160e01b5f52604160045260245ffd5b5f546001600160a01b031633036106d757565b60405163118cdaa760e01b8152336004820152602490fdfea26469706673582212207ad7a178ff64f0b91eb1b1c40eda3828d062099d45ea78fd3dba9a85c035c6c964736f6c6343000818003360803462000342576001600160401b0390604090808201838111828210176200024d578252600981526020926804172616c7973204c560bc1b84830152825190838201828110828211176200024d5784526007825266041524c592d4c560cc1b8583015282518181116200024d576003908154906001958683811c9316801562000337575b8984101462000323578190601f93848111620002d0575b5089908483116001146200026d575f9262000261575b50505f1982851b1c191690861b1782555b83519283116200024d576004938454978689811c9916801562000242575b818a10146200022f578883869798999a11620001d6575b50809285116001146200016c57505f9362000160575b505082851b925f19911b1c19161790555b7f9b779b17422d0df92223018b32b4d1fa46e071723d6817e2486d003becc55f0055600580546001600160a01b03191633179055516108ec9081620003478239f35b015191505f806200010d565b929190879550601f198516875f52845f20945f905b828210620001bc5750508511620001a2575b50505050811b0190556200011e565b01519060f8845f19921b161c191690555f80808062000193565b8484015187558a9890960195938401939081019062000181565b909192939450865f52815f208480880160051c82019284891062000225575b918a91899897969594930160051c01915b82811062000216575050620000f7565b5f81558897508a910162000206565b92508192620001f5565b602286634e487b7160e01b5f525260245ffd5b98607f1698620000e0565b634e487b7160e01b5f52604160045260245ffd5b015190505f80620000b1565b90889350601f19831691865f528b5f20925f5b8d828210620002b95750508411620002a1575b505050811b018255620000c2565b01515f1983871b60f8161c191690555f808062000293565b8385015186558c9790950194938401930162000280565b909150845f52895f208480850160051c8201928c861062000319575b918a91869594930160051c01915b8281106200030a5750506200009b565b5f81558594508a9101620002fa565b92508192620002ec565b634e487b7160e01b5f52602260045260245ffd5b92607f169262000084565b5f80fdfe604060808152600480361015610013575f80fd5b5f3560e01c908163022c0d9f1461067457816306fdde03146105995781630902f1ac14610584578163095ea7b3146104dc5781630dfe1681146104b457816318160ddd1461049657816323b872dd146103a4578163313ce5671461038957816341cd47bf1461036d578163485cc955146103465781636a627842146102e957816370a082311461031057816389afcb44146102e957816395d89b41146101ca57508063a9059cbb1461019a578063ba9a7a5614610145578063c45a015514610172578063d21220a71461014a578063d73792a9146101455763dd62ed3e146100f9575f80fd5b346101415780600319360112610141576020906101146106d4565b61011c6106ea565b9060018060a01b038091165f5260018452825f2091165f528252805f20549051908152f35b5f80fd5b610747565b5034610141575f3660031901126101415760075490516001600160a01b039091168152602090f35b5034610141575f3660031901126101415760055490516001600160a01b039091168152602090f35b50346101415780600319360112610141576020906101c36101b96106d4565b60243590336107dc565b5160018152f35b8234610141575f366003190112610141578051905f835460018160011c90600183169283156102df575b60209384841081146102cc578388529081156102b0575060011461025c575b505050829003601f01601f191682019267ffffffffffffffff8411838510176102495750829182610245925282610700565b0390f35b604190634e487b7160e01b5f525260245ffd5b5f878152929350837f8a35acfbc15ff81a39ae7d344fd709f28e8600b4aa8c65c6b64bfe7fe36bd19b5b83851061029c5750505050830101848080610213565b805488860183015293019284908201610286565b60ff1916878501525050151560051b8401019050848080610213565b602289634e487b7160e01b5f525260245ffd5b91607f16916101f4565b34610141576020366003190112610141576103026106d4565b5061030b61079a565b610763565b8234610141576020366003190112610141576020906001600160a01b036103356106d4565b165f525f8252805f20549051908152f35b8234610141573660031901126101415761035e6106d4565b506103676106ea565b50610763565b8234610141575f36600319011261014157602090516103e58152f35b8234610141575f366003190112610141576020905160128152f35b905034610141576060366003190112610141576103bf6106d4565b6103c76106ea565b906044359260018060a01b038216805f526001602052855f20335f52602052855f2054915f198310610402575b6020876101c38888886107dc565b85831061046a57811561045457331561043e57505f908152600160209081528682203383528152908690209185900390915582906101c36103f4565b6024905f885191634a1406b160e11b8352820152fd5b6024905f88519163e602df0560e01b8352820152fd5b8651637dc7a0d960e11b8152339181019182526020820193909352604081018690528291506060010390fd5b8234610141575f366003190112610141576020906002549051908152f35b8234610141575f3660031901126101415760065490516001600160a01b039091168152602090f35b82346101415780600319360112610141576104f56106d4565b60243590331561056e576001600160a01b03169081156105585760209350335f5260018452825f20825f52845280835f205582519081527f8c5be1e5ebec7d5bd14f71427d1e84f3dd0314c0f7b2291e5b200ac8c7c3b925843392a35160018152f35b8251634a1406b160e11b81525f81860152602490fd5b825163e602df0560e01b81525f81860152602490fd5b34610141575f36600319011215610763575f80fd5b8234610141575f366003190112610141578051905f60035460018160011c906001831692831561066a575b60209384841081146102cc578388529081156102b0575060011461061457505050829003601f01601f191682019267ffffffffffffffff8411838510176102495750829182610245925282610700565b60035f908152929350837fc2575a0e9e593c00f959f8c92f12db2869c3395a3b0502d05e2516446f71f85b5b8385106106565750505050830101848080610213565b805488860183015293019284908201610640565b91607f16916105c4565b34610141576080366003190112610141576044356001600160a01b03811603610141576064359067ffffffffffffffff9081831161014157366023840112156101415782013590811161014157369101602401116101415761030b61079a565b600435906001600160a01b038216820361014157565b602435906001600160a01b038216820361014157565b602080825282518183018190529093925f5b82811061073357505060409293505f838284010152601f8019910116010190565b818101860151848201604001528501610712565b34610141575f3660031901126101415760206040516103e88152f35b60405162461bcd60e51b815260206004820152600f60248201526e1b9bdd081a5b5c1b195b595b9d1959608a1b6044820152606490fd5b7f9b779b17422d0df92223018b32b4d1fa46e071723d6817e2486d003becc55f0060028154146107ca5760029055565b604051633ee5aeb560e01b8152600490fd5b916001600160a01b0380841692831561089e571692831561088657825f525f60205260405f2054908282106108545750817fddf252ad1be2c89b69c2b068fc378daa952ba7f163c4a11628f55a4df523b3ef92602092855f525f84520360405f2055845f5260405f20818154019055604051908152a3565b60405163391434e360e21b81526001600160a01b03919091166004820152602481019190915260448101829052606490fd5b60405163ec442f0560e01b81525f6004820152602490fd5b604051634b637e8f60e11b81525f6004820152602490fdfea264697066735822122029a0c5c6f8791c59f844016e2ba2e4072212072c92deec7e122277c676cba6da64736f6c63430008180033","linkReferences":{}},"methodIdentifiers":{"allPairs(uint256)":"1e3dd18b","allPairsLength()":"574f2ba3","createPair(address,address)":"c9c65396","getPair(address,address)":"e6a43905","implementation()":"5c60da1b","owner()":"8da5cb5b","predictPairAddress(address,address)":"f5ab9f14","renounceOwnership()":"715018a6","transferOwnership(address)":"f2fde38b"},"id":0}