{"abi":[{"type":"constructor","inputs":[{"name":"initialHolder","type":"address","internalType":"address"}],"stateMutability":"nonpayable"},{"type":"function","name":"CLOCK_MODE","inputs":[],"outputs":[{"name":"","type":"string","internalType":"string"}],"stateMutability":"pure"},{"type":"function","name":"DOMAIN_SEPARATOR","inputs":[],"outputs":[{"name":"","type":"bytes32","internalType":"bytes32"}],"stateMutability":"view"},{"type":"function","name":"INITIAL_SUPPLY","inputs":[],"outputs":[{"name":"","type":"uint256","internalType":"uint256"}],"stateMutability":"view"},{"type":"function","name":"allowance","inputs":[{"name":"owner","type":"address","internalType":"address"},{"name":"spender","type":"address","internalType":"address"}],"outputs":[{"name":"","type":"uint256","internalType":"uint256"}],"stateMutability":"view"},{"type":"function","name":"approve","inputs":[{"name":"spender","type":"address","internalType":"address"},{"name":"value","type":"uint256","internalType":"uint256"}],"outputs":[{"name":"","type":"bool","internalType":"bool"}],"stateMutability":"nonpayable"},{"type":"function","name":"balanceOf","inputs":[{"name":"account","type":"address","internalType":"address"}],"outputs":[{"name":"","type":"uint256","internalType":"uint256"}],"stateMutability":"view"},{"type":"function","name":"checkpoints","inputs":[{"name":"account","type":"address","internalType":"address"},{"name":"pos","type":"uint32","internalType":"uint32"}],"outputs":[{"name":"","type":"tuple","internalType":"struct Checkpoints.Checkpoint208","components":[{"name":"_key","type":"uint48","internalType":"uint48"},{"name":"_value","type":"uint208","internalType":"uint208"}]}],"stateMutability":"view"},{"type":"function","name":"clock","inputs":[],"outputs":[{"name":"","type":"uint48","internalType":"uint48"}],"stateMutability":"view"},{"type":"function","name":"decimals","inputs":[],"outputs":[{"name":"","type":"uint8","internalType":"uint8"}],"stateMutability":"view"},{"type":"function","name":"delegate","inputs":[{"name":"delegatee","type":"address","internalType":"address"}],"outputs":[],"stateMutability":"nonpayable"},{"type":"function","name":"delegateBySig","inputs":[{"name":"delegatee","type":"address","internalType":"address"},{"name":"nonce","type":"uint256","internalType":"uint256"},{"name":"expiry","type":"uint256","internalType":"uint256"},{"name":"v","type":"uint8","internalType":"uint8"},{"name":"r","type":"bytes32","internalType":"bytes32"},{"name":"s","type":"bytes32","internalType":"bytes32"}],"outputs":[],"stateMutability":"nonpayable"},{"type":"function","name":"delegates","inputs":[{"name":"account","type":"address","internalType":"address"}],"outputs":[{"name":"","type":"address","internalType":"address"}],"stateMutability":"view"},{"type":"function","name":"eip712Domain","inputs":[],"outputs":[{"name":"fields","type":"bytes1","internalType":"bytes1"},{"name":"name","type":"string","internalType":"string"},{"name":"version","type":"string","internalType":"string"},{"name":"chainId","type":"uint256","internalType":"uint256"},{"name":"verifyingContract","type":"address","internalType":"address"},{"name":"salt","type":"bytes32","internalType":"bytes32"},{"name":"extensions","type":"uint256[]","internalType":"uint256[]"}],"stateMutability":"view"},{"type":"function","name":"getPastTotalSupply","inputs":[{"name":"timepoint","type":"uint256","internalType":"uint256"}],"outputs":[{"name":"","type":"uint256","internalType":"uint256"}],"stateMutability":"view"},{"type":"function","name":"getPastVotes","inputs":[{"name":"account","type":"address","internalType":"address"},{"name":"timepoint","type":"uint256","internalType":"uint256"}],"outputs":[{"name":"","type":"uint256","internalType":"uint256"}],"stateMutability":"view"},{"type":"function","name":"getVotes","inputs":[{"name":"account","type":"address","internalType":"address"}],"outputs":[{"name":"","type":"uint256","internalType":"uint256"}],"stateMutability":"view"},{"type":"function","name":"name","inputs":[],"outputs":[{"name":"","type":"string","internalType":"string"}],"stateMutability":"view"},{"type":"function","name":"nonces","inputs":[{"name":"owner","type":"address","internalType":"address"}],"outputs":[{"name":"","type":"uint256","internalType":"uint256"}],"stateMutability":"view"},{"type":"function","name":"numCheckpoints","inputs":[{"name":"account","type":"address","internalType":"address"}],"outputs":[{"name":"","type":"uint32","internalType":"uint32"}],"stateMutability":"view"},{"type":"function","name":"permit","inputs":[{"name":"owner","type":"address","internalType":"address"},{"name":"spender","type":"address","internalType":"address"},{"name":"value","type":"uint256","internalType":"uint256"},{"name":"deadline","type":"uint256","internalType":"uint256"},{"name":"v","type":"uint8","internalType":"uint8"},{"name":"r","type":"bytes32","internalType":"bytes32"},{"name":"s","type":"bytes32","internalType":"bytes32"}],"outputs":[],"stateMutability":"nonpayable"},{"type":"function","name":"symbol","inputs":[],"outputs":[{"name":"","type":"string","internalType":"string"}],"stateMutability":"view"},{"type":"function","name":"totalSupply","inputs":[],"outputs":[{"name":"","type":"uint256","internalType":"uint256"}],"stateMutability":"view"},{"type":"function","name":"transfer","inputs":[{"name":"to","type":"address","internalType":"address"},{"name":"value","type":"uint256","internalType":"uint256"}],"outputs":[{"name":"","type":"bool","internalType":"bool"}],"stateMutability":"nonpayable"},{"type":"function","name":"transferFrom","inputs":[{"name":"from","type":"address","internalType":"address"},{"name":"to","type":"address","internalType":"address"},{"name":"value","type":"uint256","internalType":"uint256"}],"outputs":[{"name":"","type":"bool","internalType":"bool"}],"stateMutability":"nonpayable"},{"type":"event","name":"Approval","inputs":[{"name":"owner","type":"address","indexed":true,"internalType":"address"},{"name":"spender","type":"address","indexed":true,"internalType":"address"},{"name":"value","type":"uint256","indexed":false,"internalType":"uint256"}],"anonymous":false},{"type":"event","name":"DelegateChanged","inputs":[{"name":"delegator","type":"address","indexed":true,"internalType":"address"},{"name":"fromDelegate","type":"address","indexed":true,"internalType":"address"},{"name":"toDelegate","type":"address","indexed":true,"internalType":"address"}],"anonymous":false},{"type":"event","name":"DelegateVotesChanged","inputs":[{"name":"delegate","type":"address","indexed":true,"internalType":"address"},{"name":"previousVotes","type":"uint256","indexed":false,"internalType":"uint256"},{"name":"newVotes","type":"uint256","indexed":false,"internalType":"uint256"}],"anonymous":false},{"type":"event","name":"EIP712DomainChanged","inputs":[],"anonymous":false},{"type":"event","name":"Transfer","inputs":[{"name":"from","type":"address","indexed":true,"internalType":"address"},{"name":"to","type":"address","indexed":true,"internalType":"address"},{"name":"value","type":"uint256","indexed":false,"internalType":"uint256"}],"anonymous":false},{"type":"error","name":"CheckpointUnorderedInsertion","inputs":[]},{"type":"error","name":"ECDSAInvalidSignature","inputs":[]},{"type":"error","name":"ECDSAInvalidSignatureLength","inputs":[{"name":"length","type":"uint256","internalType":"uint256"}]},{"type":"error","name":"ECDSAInvalidSignatureS","inputs":[{"name":"s","type":"bytes32","internalType":"bytes32"}]},{"type":"error","name":"ERC20ExceededSafeSupply","inputs":[{"name":"increasedSupply","type":"uint256","internalType":"uint256"},{"name":"cap","type":"uint256","internalType":"uint256"}]},{"type":"error","name":"ERC20InsufficientAllowance","inputs":[{"name":"spender","type":"address","internalType":"address"},{"name":"allowance","type":"uint256","internalType":"uint256"},{"name":"needed","type":"uint256","internalType":"uint256"}]},{"type":"error","name":"ERC20InsufficientBalance","inputs":[{"name":"sender","type":"address","internalType":"address"},{"name":"balance","type":"uint256","internalType":"uint256"},{"name":"needed","type":"uint256","internalType":"uint256"}]},{"type":"error","name":"ERC20InvalidApprover","inputs":[{"name":"approver","type":"address","internalType":"address"}]},{"type":"error","name":"ERC20InvalidReceiver","inputs":[{"name":"receiver","type":"address","internalType":"address"}]},{"type":"error","name":"ERC20InvalidSender","inputs":[{"name":"sender","type":"address","internalType":"address"}]},{"type":"error","name":"ERC20InvalidSpender","inputs":[{"name":"spender","type":"address","internalType":"address"}]},{"type":"error","name":"ERC2612ExpiredSignature","inputs":[{"name":"deadline","type":"uint256","internalType":"uint256"}]},{"type":"error","name":"ERC2612InvalidSigner","inputs":[{"name":"signer","type":"address","internalType":"address"},{"name":"owner","type":"address","internalType":"address"}]},{"type":"error","name":"ERC5805FutureLookup","inputs":[{"name":"timepoint","type":"uint256","internalType":"uint256"},{"name":"clock","type":"uint48","internalType":"uint48"}]},{"type":"error","name":"InvalidAccountNonce","inputs":[{"name":"account","type":"address","internalType":"address"},{"name":"currentNonce","type":"uint256","internalType":"uint256"}]},{"type":"error","name":"InvalidShortString","inputs":[]},{"type":"error","name":"SafeCastOverflowedUintDowncast","inputs":[{"name":"bits","type":"uint8","internalType":"uint8"},{"name":"value","type":"uint256","internalType":"uint256"}]},{"type":"error","name":"StringTooLong","inputs":[{"name":"str","type":"string","internalType":"string"}]},{"type":"error","name":"VotesExpiredSignature","inputs":[{"name":"expiry","type":"uint256","internalType":"uint256"}]}],"bytecode":{"object":"0x61016080604052346200009957602062002c7b80380380916200002282620000b1565b8439126200009957516001600160a01b03811681036200009957620000479062000158565b604051611d2a908162000f11823960805181610f2c015260a05181610fe7015260c05181610ef6015260e05181610f7b01526101005181610fa1015261012051816106cc015261014051816106f50152f35b5f80fd5b634e487b7160e01b5f52604160045260245ffd5b601f01601f1916610160908101906001600160401b03821190821017620000d757604052565b6200009d565b604081019081106001600160401b03821117620000d757604052565b604051906200010882620000dd565b565b604051906200011982620000dd565b60048252565b604051906200012e82620000dd565b60018252565b604051906200014382620000dd565b60068252654172616c797360d01b6020830152565b906200016362000134565b916200016e62000134565b92620001796200010a565b906020906341524c5960e01b82840152620001936200011f565b9180830193603160f81b8552875160018060401b038111620000d757620001c781620001c1600354620002ef565b6200032a565b82601f82116001146200025f57816200020b93926200020292620001089b9c5f9262000253575b50508160011b915f199060031b1c19161790565b6003556200047e565b620002168262000657565b61012052620002258362000761565b61014052815191012060e052519020610100524660a0526200024662000868565b6080523060c05262000567565b015190505f80620001ee565b60035f52601f198216997fc2575a0e9e593c00f959f8c92f12db2869c3395a3b0502d05e2516446f71f85b9a5f5b818110620002d757509a60019284926200020b9695620001089d9e10620002be575b505050811b016003556200047e565b01515f1960f88460031b161c191690555f8080620002af565b838301518d556001909c019b9286019286016200028d565b90600182811c921680156200031f575b60208310146200030b57565b634e487b7160e01b5f52602260045260245ffd5b91607f1691620002ff565b601f811162000337575050565b60035f5260205f20906020601f840160051c8301931062000374575b601f0160051c01905b81811062000368575050565b5f81556001016200035c565b909150819062000353565b601f81116200038c575050565b60045f5260205f20906020601f840160051c83019310620003c9575b601f0160051c01905b818110620003bd575050565b5f8155600101620003b1565b9091508190620003a8565b601f8111620003e1575050565b60055f5260205f20906020601f840160051c830193106200041e575b601f0160051c01905b81811062000412575050565b5f815560010162000406565b9091508190620003fd565b601f811162000436575050565b60065f5260205f20906020601f840160051c8301931062000473575b601f0160051c01905b81811062000467575050565b5f81556001016200045b565b909150819062000452565b80519091906001600160401b038111620000d757620004aa81620004a4600454620002ef565b6200037f565b602080601f8311600114620004e257508190620004dd93945f92620002535750508160011b915f199060031b1c19161790565b600455565b60045f52601f198316949091907f8a35acfbc15ff81a39ae7d344fd709f28e8600b4aa8c65c6b64bfe7fe36bd19b925f905b8782106200054e57505083600195961062000535575b505050811b01600455565b01515f1960f88460031b161c191690555f80806200052a565b8060018596829496860151815501950193019062000514565b6001600160a01b03811680156200063f5760025469d3c21bcecceda10000009081810180911162000639576002556001600160a01b0383165f9081526020819052604090209081540190555f7fddf252ad1be2c89b69c2b068fc378daa952ba7f163c4a11628f55a4df523b3ef60405180620005f1819069d3c21bcecceda1000000602083019252565b0390a36002546001600160d01b038111620006125750620001089062000986565b604051630e58ae9360e11b815260048101919091526001600160d01b036024820152604490fd5b62000972565b60405163ec442f0560e01b81525f6004820152602490fd5b90815160208082105f1462000677575050906200067490620008f7565b90565b6001600160401b038211620000d7576200069e8262000698600554620002ef565b620003d4565b602090601f8311600114620006d957508190620006d193945f92620002535750508160011b915f199060031b1c19161790565b60055560ff90565b60055f52601f198316949091907f036b6384b5eca791c62761152d0c79bb0604c104a5fb6f4eb0703f3154bb3db0925f905b878210620007485750508360019596106200072f575b505050811b0160055560ff90565b01515f1960f88460031b161c191690555f808062000721565b806001859682949686015181550195019301906200070b565b90815160208082105f146200077e575050906200067490620008f7565b6001600160401b038211620000d757620007a5826200079f600654620002ef565b62000429565b602090601f8311600114620007e057508190620007d893945f92620002535750508160011b915f199060031b1c19161790565b60065560ff90565b60065f52601f198316949091907ff652222313e28459528d920b65115c16c04f3efc82aaedc97be59f3f377c0d3f925f905b8782106200084f57505083600195961062000836575b505050811b0160065560ff90565b01515f1960f88460031b161c191690555f808062000828565b8060018596829496860151815501950193019062000812565b60e051610100516040519060208201927f8b73c3c69bb8fe3d512ecc4cf759cc79239f7b179b0ffacaa9a75d522b39400f8452604083015260608201524660808201523060a082015260a0815260c0810181811060018060401b03821117620000d75760405251902090565b602081519101519060208110620008e9575090565b5f199060200360031b1b1690565b601f81511162000912576200090c81620008d4565b90511790565b6040519063305a27a960e01b82528160208060048301528251908160248401525f935b82851062000958575050604492505f838284010152601f80199101168101030190fd5b848101820151868601604401529381019385935062000935565b634e487b7160e01b5f52601160045260245ffd5b600a548062000a2d57505f905b6001600160d01b0391821669d3c21bcecceda1000000019182116200063957620009ca620001089265ffffffffffff421662000d4c565b50506001600160a01b0390811690811562000a1b575b60086020527f5eff886ea0ce6ca488a3d6e336d6c0f75f46d19b42c06ce5ee98e42c96d256c7545f9283526040909220548116911662000b29565b62000a2562000a5a565b5050620009e0565b5f199080828101116200063957600a5f52015f8051602062002c3b833981519152015460301c9062000993565b600a548062000a9e57505f5b6001600160d01b0390811669d3c21bcecceda0ffffff1901908111620006395762000a9a9065ffffffffffff421662000d4c565b9091565b5f199080828101116200063957600a5f52015f8051602062002c3b833981519152015460301c62000a66565b80548062000b0957505f5b6001600160d01b0390811669d3c21bcecceda100000001908111620006395762000a9a9165ffffffffffff42169062000e45565b5f199080828101116200063957825f5260205f2001015460301c62000ad5565b6001600160a01b03808316929190811690818414158062000c6b575b62000b51575b50505050565b8162000bbd575b50508162000b69575b808062000b4b565b6001600160a01b03165f9081526009602052604090205f8051602062002c5b8339815191529062000b9a9062000aca565b604080516001600160d01b039384168152919092166020820152a25f8062000b61565b6001600160a01b03165f90815260096020526040902080548062000c4b57505f5b6001600160d01b0390811669d3c21bcecceda0ffffff1901818111620006395762000c2762000c40915f8051602062002c5b8339815191529465ffffffffffff42169062000e45565b6040805192851683529316602082015291829190820190565b0390a25f8062000b58565b5f199080828101116200063957825f5260205f2001015460301c62000bde565b50600162000b45565b5f198101919082116200063957565b600a549068010000000000000000821015620000d7576001820180600a5582101562000ce357600a5f5280516020919091015160301b65ffffffffffff191665ffffffffffff91909116175f8051602062002c3b83398151915290910155565b634e487b7160e01b5f52603260045260245ffd5b90815468010000000000000000811015620000d7576001810180845581101562000ce3575f9283526020928390208251929093015160301b65ffffffffffff191665ffffffffffff9290921691909117910155565b600a54919291801562000e175762000d6862000d7f9162000c74565b600a5f525f8051602062002c3b8339815191520190565b9081549165ffffffffffff9081841691831680831162000e055786920362000dc75762000dc092509065ffffffffffff82549181199060301b169116179055565b60301c9190565b505062000dff9062000dea62000ddc620000f9565b65ffffffffffff9092168252565b6001600160d01b038516602082015262000c83565b62000dc0565b604051632520601d60e01b8152600490fd5b5062000e409062000e2b62000ddc620000f9565b6001600160d01b038416602082015262000c83565b5f9190565b8054929392801562000ee65762000e6062000e6b9162000c74565b825f5260205f200190565b9182549265ffffffffffff9182851692811680841162000e055787930362000ead575062000dc092509065ffffffffffff82549181199060301b169116179055565b91505062000dff9162000ed162000ec3620000f9565b65ffffffffffff9093168352565b6001600160d01b038616602083015262000cf7565b509062000e409162000efb62000ec3620000f9565b6001600160d01b038516602083015262000cf756fe60806040526004361015610011575f80fd5b5f3560e01c806306fdde0314610194578063095ea7b31461018f57806318160ddd1461018a57806323b872dd146101855780632ff2e9dc14610180578063313ce5671461017b5780633644e515146101765780633a46b1a8146101715780634bf5d7e91461016c578063587cde1e146101675780635c19a95c146101625780636fcfff451461015d57806370a08231146101585780637ecebe001461015357806384b0196e1461014e5780638e539e8c1461014957806391ddadf41461014457806395d89b411461013f5780639ab24eb01461013a578063a9059cbb14610135578063c3cda52014610130578063d505accf1461012b578063dd62ed3e146101265763f1127ed814610121575f80fd5b610c18565b610bc1565b610a8e565b6109c5565b61097f565b610938565b610893565b610871565b6107aa565b6106b4565b61067c565b610644565b6105de565b6105ba565b610581565b610533565b610455565b610433565b610418565b6103f4565b610349565b61032c565b6102fb565b6101eb565b91908251928382525f5b8481106101c3575050825f602080949584010152601f8019910116010190565b6020818301810151848301820152016101a3565b9060206101e8928181520190610199565b90565b346102cb575f3660031901126102cb576040515f60035461020b81610cde565b808452906020906001908181169081156102a15750600114610248575b6102448561023881870382610d9f565b604051918291826101d7565b0390f35b60035f90815293507fc2575a0e9e593c00f959f8c92f12db2869c3395a3b0502d05e2516446f71f85b5b83851061028e5750505050810160200161023882610244610228565b8054868601840152938201938101610272565b8695506102449693506020925061023894915060ff191682840152151560051b8201019293610228565b5f80fd5b600435906001600160a01b03821682036102cb57565b602435906001600160a01b03821682036102cb57565b346102cb5760403660031901126102cb576103216103176102cf565b6024359033611205565b602060405160018152f35b346102cb575f3660031901126102cb576020600254604051908152f35b346102cb5760603660031901126102cb576103626102cf565b61036a6102e5565b6001600160a01b0382165f9081526001602090815260408083203384529091529020604435919054925f1984106103b2575b6103a69350610de8565b60405160018152602090f35b8284106103ce576103c9836103a6950333836112b3565b61039c565b604051637dc7a0d960e11b81523360048201526024810185905260448101849052606490fd5b346102cb575f3660031901126102cb57602060405169d3c21bcecceda10000008152f35b346102cb575f3660031901126102cb57602060405160128152f35b346102cb575f3660031901126102cb57602061044d610ef3565b604051908152f35b346102cb5760403660031901126102cb576001600160a01b036104766102cf565b165f52600960205260405f2061048d60243561100d565b8154905f8291600584116104e0575b6104a793508461148e565b90816104c557505060205f5b6040516001600160d01b039091168152f35b6104d0602092611069565b905f52815f20015460301c6104b3565b91926104eb81611309565b810390811161052e576104a793855f5265ffffffffffff808360205f20015416908516105f1461051c57509161049c565b92915061052890611077565b9061049c565b610cca565b346102cb575f3660031901126102cb5761024460405161055281610d2a565b600e81526d06d6f64653d74696d657374616d760941b6020820152604051918291602083526020830190610199565b346102cb5760203660031901126102cb5760206001600160a01b03806105a56102cf565b165f526008825260405f205416604051908152f35b346102cb5760203660031901126102cb576105dc6105d66102cf565b33611085565b005b346102cb5760203660031901126102cb576001600160a01b036105ff6102cf565b165f52600960205260405f205463ffffffff908181116106255760209160405191168152f35b604490604051906306dfcc6560e41b8252602060048301526024820152fd5b346102cb5760203660031901126102cb57602061044d6106626102cf565b6001600160a01b03165f9081526020819052604090205490565b346102cb5760203660031901126102cb576001600160a01b0361069d6102cf565b165f526007602052602060405f2054604051908152f35b346102cb575f3660031901126102cb5761074d6106f07f0000000000000000000000000000000000000000000000000000000000000000611631565b6107197f000000000000000000000000000000000000000000000000000000000000000061172f565b6040519061072682610d4b565b5f825261075b602091604051958695600f60f81b875260e0602088015260e0870190610199565b908582036040870152610199565b4660608501523060808501525f60a085015283810360c0850152602080845192838152019301915f5b82811061079357505050500390f35b835185528695509381019392810192600101610784565b346102cb5760203660031901126102cb576107c660043561100d565b600a54905f829160058411610818575b6107e09350611434565b806107f157506040515f8152602090f35b6107fc602091611069565b600a5f525f80516020611cd5833981519152015460301c6104b3565b919261082381611309565b810390811161052e576107e093600a5f5265ffffffffffff80835f80516020611cd5833981519152015416908516105f1461085f5750916107d6565b92915061086b90611077565b906107d6565b346102cb575f3660031901126102cb57602060405165ffffffffffff42168152f35b346102cb575f3660031901126102cb576040515f6004546108b381610cde565b808452906020906001908181169081156102a157506001146108df576102448561023881870382610d9f565b60045f90815293507f8a35acfbc15ff81a39ae7d344fd709f28e8600b4aa8c65c6b64bfe7fe36bd19b5b8385106109255750505050810160200161023882610244610228565b8054868601840152938201938101610909565b346102cb5760203660031901126102cb576001600160a01b036109596102cf565b165f526009602052602060018060d01b0361097660405f2061114a565b16604051908152f35b346102cb5760403660031901126102cb5761032161099b6102cf565b6024359033610de8565b6064359060ff821682036102cb57565b6084359060ff821682036102cb57565b346102cb5760c03660031901126102cb576109de6102cf565b604435906024356109ed6109a5565b834211610a7557610a696105dc94610a70926040519060208201927fe48329057bfd03d55e49b547132e39cffd9c1820ad7b9d4c5307691425d15adf845260018060a01b0388166040840152866060840152608083015260808252610a5182610d67565b610a6460a4359360843593519020611172565b611198565b91826111b0565b611085565b604051632341d78760e11b815260048101859052602490fd5b346102cb5760e03660031901126102cb57610aa76102cf565b610aaf6102e5565b60443590606435610abe6109b5565b814211610ba8576001600160a01b038581165f8181526007602090815260409182902080546001810190915582517f6e71edae12b1b97f4d1f60370fef10105fa2faae0126114a169c64845d6126c99281019283529283019390935292861660608201526080810187905260a081019190915260c080820194909452928352610b61929091610b4e60e083610d9f565b610a6460c4359360a43593519020611172565b6001600160a01b0384811690821603610b7e57506105dc92611205565b6040516325c0072360e11b81526001600160a01b0391821660048201529084166024820152604490fd5b60405163313c898160e11b815260048101839052602490fd5b346102cb5760403660031901126102cb576020610c0f610bdf6102cf565b610be76102e5565b6001600160a01b039182165f9081526001855260408082209290931681526020919091522090565b54604051908152f35b346102cb5760403660031901126102cb57610c316102cf565b6024359063ffffffff821682036102cb5761024491610c8091610c52610dd0565b50610c5b610dd0565b506001600160a01b03165f908152600960205260409020610c7a610dd0565b50611924565b5060405190610c8e82610d2a565b5465ffffffffffff811680835260309190911c60209283019081526040805192835290516001600160d01b031692820192909252918291820190565b634e487b7160e01b5f52601160045260245ffd5b90600182811c92168015610d0c575b6020831014610cf857565b634e487b7160e01b5f52602260045260245ffd5b91607f1691610ced565b634e487b7160e01b5f52604160045260245ffd5b6040810190811067ffffffffffffffff821117610d4657604052565b610d16565b6020810190811067ffffffffffffffff821117610d4657604052565b60a0810190811067ffffffffffffffff821117610d4657604052565b60c0810190811067ffffffffffffffff821117610d4657604052565b90601f8019910116810190811067ffffffffffffffff821117610d4657604052565b60405190610dce82610d2a565b565b60405190610ddd82610d2a565b5f6020838281520152565b6001600160a01b0380821694939291908515610edb5782168015610ec3576001600160a01b0382165f9081526020819052604090205495848710610e945784610dce969703610e468460018060a01b03165f525f60205260405f2090565b556001600160a01b0384165f908152602081815260409182902080548801905590518681527fddf252ad1be2c89b69c2b068fc378daa952ba7f163c4a11628f55a4df523b3ef9190a36119b7565b60405163391434e360e21b81526001600160a01b03841660048201526024810188905260448101869052606490fd5b60405163ec442f0560e01b81525f6004820152602490fd5b604051634b637e8f60e11b81525f6004820152602490fd5b307f00000000000000000000000000000000000000000000000000000000000000006001600160a01b03161480610fe4575b15610f4e577f000000000000000000000000000000000000000000000000000000000000000090565b60405160208101907f8b73c3c69bb8fe3d512ecc4cf759cc79239f7b179b0ffacaa9a75d522b39400f82527f000000000000000000000000000000000000000000000000000000000000000060408201527f000000000000000000000000000000000000000000000000000000000000000060608201524660808201523060a082015260a08152610fde81610d83565b51902090565b507f00000000000000000000000000000000000000000000000000000000000000004614610f25565b65ffffffffffff908142168082101561104b575081811161102c571690565b604490604051906306dfcc6560e41b8252603060048301526024820152fd5b6044925060405191637669fc0f60e11b835260048301526024820152fd5b5f1981019190821161052e57565b906001820180921161052e57565b6001600160a01b038181165f81815260086020526040812080548685166001600160a01b031982168117909255610dce969416946111009390928691907f3134e8a2e6d97e929a7e54011ea5485d7d196dd5f0ba4d4ef95803e8e3fc257f9080a46001600160a01b03165f9081526020819052604090205490565b916114e2565b600a548061111357505f90565b805f1981011161052e57600a5f527fc65a7bb8d6351c1cf70c95a316cc6a92839c986682d98bc35f958f4883f9d2a7015460301c90565b8054806111575750505f90565b5f1991818381011161052e575f5260205f2001015460301c90565b60429061117d610ef3565b906040519161190160f01b8352600283015260228201522090565b916101e893916111a7936117ec565b90929192611897565b6001600160a01b0381165f90815260076020526040902080546001810190915590918190036111dd575050565b6040516301d4b62360e61b81526001600160a01b039092166004830152602482015260449150fd5b6001600160a01b03808216929190831561129b57821693841561128357806112797f8c5be1e5ebec7d5bd14f71427d1e84f3dd0314c0f7b2291e5b200ac8c7c3b9259461126460209560018060a01b03165f52600160205260405f2090565b9060018060a01b03165f5260205260405f2090565b55604051908152a3565b604051634a1406b160e11b81525f6004820152602490fd5b60405163e602df0560e01b81525f6004820152602490fd5b906001600160a01b038083161561129b57811615611283576112646112e89260018060a01b03165f52600160205260405f2090565b55565b81156112f5570490565b634e487b7160e01b5f52601260045260245ffd5b60018111156101e857600181600160801b811015611422575b6113ca6113c06113b66113ac6113a26113986113d697600488600160401b6113d19a1015611415575b640100000000811015611408575b620100008110156113fb575b6101008110156113ef575b60108110156113e3575b10156113db575b60030260011c611391818b6112eb565b0160011c90565b611391818a6112eb565b61139181896112eb565b61139181886112eb565b61139181876112eb565b61139181866112eb565b80936112eb565b821190565b900390565b60011b611381565b811c9160021b9161137a565b60081c91811b91611370565b60101c9160081b91611365565b60201c9160101b91611359565b60401c9160201b9161134b565b50600160401b9050608082901c611322565b82821061144057505090565b909180831860011c8184160190600a5f5265ffffffffffff80835f80516020611cd5833981519152015416908416105f1461147e5750915b90611434565b925061148990611077565b611478565b905b83831061149d5750505090565b90919280841860011c8185160190835f5265ffffffffffff808360205f20015416908416105f146114d25750925b9190611490565b93506114dd90611077565b6114cb565b6001600160a01b03808316939291908116908185141580611628575b61150a575b5050505050565b8161158e575b50508261151f575b8080611503565b6001600160a01b03165f9081526009602052604090207fdec2bacdd2f05b59de34da9b523dff8be42e5e38e818c82fdb0bae774387a7249161156b91611565909161194d565b90611980565b604080516001600160d01b039384168152919092166020820152a25f8080611518565b6001600160a01b03165f9081526009602052604090206115ad8461194d565b6001600160d01b039081806115c18561114a565b169116900381811161052e5761160561161e917fdec2bacdd2f05b59de34da9b523dff8be42e5e38e818c82fdb0bae774387a7249465ffffffffffff421690611c1a565b6040805192851683529316602082015291829190820190565b0390a25f80611510565b508315156114fe565b60ff811461166f5760ff811690601f821161165d576040519161165383610d2a565b8252602082015290565b604051632cd44ac360e21b8152600490fd5b50604051600554815f61168183610cde565b8083529260209060019081811690811561170b57506001146116ac575b50506101e892500382610d9f565b91509260055f527f036b6384b5eca791c62761152d0c79bb0604c104a5fb6f4eb0703f3154bb3db0935f925b8284106116f357506101e89450505081016020015f8061169e565b855487850183015294850194869450928101926116d8565b915050602092506101e894915060ff191682840152151560051b8201015f8061169e565b60ff81146117515760ff811690601f821161165d576040519161165383610d2a565b50604051600654815f61176383610cde565b8083529260209060019081811690811561170b575060011461178d5750506101e892500382610d9f565b91509260065f527ff652222313e28459528d920b65115c16c04f3efc82aaedc97be59f3f377c0d3f935f925b8284106117d457506101e89450505081016020015f8061169e565b855487850183015294850194869450928101926117b9565b91907f7fffffffffffffffffffffffffffffff5d576e7357a4501ddfe92f46681b20a0841161186e579160209360809260ff5f9560405194855216868401526040830152606082015282805260015afa15611863575f516001600160a01b0381161561185957905f905f90565b505f906001905f90565b6040513d5f823e3d90fd5b5050505f9160039190565b6004111561188357565b634e487b7160e01b5f52602160045260245ffd5b6118a081611879565b806118a9575050565b6118b281611879565b600181036118cc5760405163f645eedf60e01b8152600490fd5b6118d581611879565b600281036118f65760405163fce698f760e01b815260048101839052602490fd5b80611902600392611879565b1461190a5750565b6040516335e2f38360e21b81526004810191909152602490fd5b8054821015611939575f5260205f2001905f90565b634e487b7160e01b5f52603260045260245ffd5b6001600160d01b0390818111611961571690565b604490604051906306dfcc6560e41b825260d060048301526024820152fd5b906001600160d01b039081806119958561114a565b1691160190811161052e576119b39165ffffffffffff421690611c1a565b9091565b6001600160a01b03908116929181908415611a3e575b169081156119f7575b610dce935f5260086020528060405f205416915f5260405f205416906114e2565b611a008361194d565b6001600160d01b0394908580611a14611106565b169116900394851161052e57611a35610dce9565ffffffffffff4216611b34565b505093506119d6565b9050611a498361194d565b6001600160d01b0391908280611a5d611106565b1691160191821161052e57611a7b839265ffffffffffff4216611b34565b50506119cd565b600a5490600160401b821015610d46576001820180600a5582101561193957600a5f52805160209091015160301b65ffffffffffff191665ffffffffffff91909116175f80516020611cd583398151915290910155565b8054600160401b811015610d4657611af691600182018155611924565b611b2157815160209092015160301b65ffffffffffff191665ffffffffffff92909216919091179055565b634e487b7160e01b5f525f60045260245ffd5b600a549192918015611bf157611b4c611b6291611069565b600a5f525f80516020611cd58339815191520190565b9081549165ffffffffffff90818416918316808311611bdf57869203611ba757611ba092509065ffffffffffff82549181199060301b169116179055565b60301c9190565b5050611bda90611bc6611bb8610dc1565b65ffffffffffff9092168252565b6001600160d01b0385166020820152611a82565b611ba0565b604051632520601d60e01b8152600490fd5b50611c1590611c01611bb8610dc1565b6001600160d01b0384166020820152611a82565b5f9190565b80549293928015611caf57611c31611c3c91611069565b825f5260205f200190565b9182549265ffffffffffff91828516928116808411611bdf57879303611c7b5750611ba092509065ffffffffffff82549181199060301b169116179055565b915050611bda91611c9b611c8d610dc1565b65ffffffffffff9093168352565b6001600160d01b0386166020830152611ad9565b5090611c1591611cc0611c8d610dc1565b6001600160d01b0385166020830152611ad956fec65a7bb8d6351c1cf70c95a316cc6a92839c986682d98bc35f958f4883f9d2a8a26469706673582212205bf0ab693527ef05d3b7303bff32ac1c0da45bf94213b4570b4c7afe3183022264736f6c63430008180033c65a7bb8d6351c1cf70c95a316cc6a92839c986682d98bc35f958f4883f9d2a8dec2bacdd2f05b59de34da9b523dff8be42e5e38e818c82fdb0bae774387a724","linkReferences":{}},"methodIdentifiers":{"CLOCK_MODE()":"4bf5d7e9","DOMAIN_SEPARATOR()":"3644e515","INITIAL_SUPPLY()":"2ff2e9dc","allowance(address,address)":"dd62ed3e","approve(address,uint256)":"095ea7b3","balanceOf(address)":"70a08231","checkpoints(address,uint32)":"f1127ed8","clock()":"91ddadf4","decimals()":"313ce567","delegate(address)":"5c19a95c","delegateBySig(address,uint256,uint256,uint8,bytes32,bytes32)":"c3cda520","delegates(address)":"587cde1e","eip712Domain()":"84b0196e","getPastTotalSupply(uint256)":"8e539e8c","getPastVotes(address,uint256)":"3a46b1a8","getVotes(address)":"9ab24eb0","name()":"06fdde03","nonces(address)":"7ecebe00","numCheckpoints(address)":"6fcfff45","permit(address,address,uint256,uint256,uint8,bytes32,bytes32)":"d505accf","symbol()":"95d89b41","totalSupply()":"18160ddd","transfer(address,uint256)":"a9059cbb","transferFrom(address,address,uint256)":"23b872dd"},"id":9}